:020000040800F2
:10000000280F0020CD010008892E0008692700086C
:10001000852E000859030008BD3C000800000000C0
:10002000000000000000000000000000753400081F
:10003000BD030008000000009F320008553500088D
:10004000E7010008E7010008E7010008E7010008F0
:10005000E7010008E7010008E7010008E7010008E0
:10006000E7010008E7010008E7010008E7010008D0
:10007000E7010008E7010008E7010008E7010008C0
:10008000E7010008E7010008E7010008E7010008B0
:10009000E7010008E7010008E7010008E7010008A0
:1000A000E7010008E7010008E7010008E701000890
:1000B000C5350008E7010008E7010008E70100086E
:1000C000E7010008E7010008E7010008E701000870
:1000D000E7010008913C0008A13C0008E701000886
:1000E000E7010008E7010008E7010008E701000850
:1000F000E7010008E7010008E7010008E701000840
:10010000E7010008E7010008D5350008E70100080D
:10011000E7010008E7010008E5350008E7010008ED
:10012000E7010008E7010008E7010008E70100080F
:1001300000F002F800F03AF80AA090E8000C8244BF
:100140008344AAF10107DA4501D100F02FF8AFF29C
:10015000090EBAE80F0013F0010F18BFFB1A43F0A5
:1001600001031847846F0000A46F0000103A24BFF9
:1001700078C878C1FAD8520724BF30C830C144BF0C
:1001800004680C607047000000230024002500264E
:10019000103A28BF78C1FBD8520728BF30C148BFEA
:1001A0000B6070471FB51FBD10B510BD00F09EF865
:1001B0001146FFF7F7FF03F087FE00F0BCF803B429
:1001C000FFF7F2FF03BC00F0C1F8000009488047C8
:1001D00009480047FEE7FEE7FEE7FEE7FEE7FEE729
:1001E000FEE7FEE7FEE7FEE704480549054A064B41
:1001F00070470000C33500083101000828090020BD
:10020000280F0020280B0020280B00204FF00002B0
:1002100000B5134694469646203922BFA0E80C50FC
:10022000A0E80C50B1F12001BFF4F7AF090728BFD7
:10023000A0E80C5048BF0CC05DF804EB890028BF53
:1002400040F8042B08BF704748BF20F8022B11F07C
:10025000804F18BF00F8012B704700004FF0013CA1
:1002600050F8042B51F8043B9A4221D1A2EB0C0325
:10027000934313EACC1317D150F8042B51F8043BE5
:100280009A4215D1A2EB0C03934313EACC130BD182
:1002900050F8042B51F8043B9A4209D1A2EB0C030D
:1002A000934313EACC13DBD04FF00000704700BF3C
:1002B000D01A01BAB1FA81F101F0180122FA01F065
:1002C000CB40C1F12001DBB2C0B2C01A2CFA01F35D
:1002D000D11A914311EAC311E6D1704770477047B4
:1002E0007047000000487047C80800207546FFF7B7
:1002F000F9FFAE4605006946534620F007008546E3
:1003000018B020B5FFF770FFBDE820404FF00006A1
:100310004FF000074FF000084FF0000B21F00701ED
:10032000AC46ACE8C009ACE8C009ACE8C009ACE830
:10033000C0098D46704710B50446AFF300802046D3
:10034000BDE81040FFF73BBF70470000014918208F
:10035000ABBEFEE72600020000BFFEE710B501229B
:100360002021024800F0C2FB10BD00000010014037
:1003700010B50C48027804210B4800F0B7FB0B487D
:10038000027802210A4800F0B1FB0A4802780121F4
:10039000054800F0ABFB084802780221024800F053
:1003A000A5FB10BD420000200010014043000020CA
:1003B000000801404000002041000020704700007C
:1003C0001C4991F900101C4A12785143194A92F9BC
:1003D0000120194B5B7802FB0311164A92F90220A7
:1003E000154B9B7802FB0311124A92F90320124B22
:1003F000DB7802FB03120F4991F904100E4B1B79B5
:1004000001FB03220B4991F905100B4B5B7901FBB2
:100410000321084A92F90620074B9B7902FB03113E
:10042000044A92F90720044BDB7902FB031148B21E
:1004300070470000080000200000002072B600BFD6
:10044000FEE700002DE9F05F39490968394A126872
:100450001144394A1268501A04F06AFB374908609F
:100460003748006804F0B8F906464FF06632354B5D
:1004700003F0CAFF04460D463048006804F0ACF9AA
:1004800006464FF03332304B03F0BEFF8046224623
:100490002B4603F0C9FE824603F094FE2B49086008
:1004A000084600682649086029480168274800680E
:1004B00004F088FC044627480168204604F0B8F997
:1004C0002449086024492348006804F049FC02D20A
:1004D00021482049086021491E48006804F040FB7B
:1004E00002D21E481B4908601D480078012802D02E
:1004F0001C48007810B90020164908601A480168A5
:100500001448006804F060FB0446184801680F486E
:10051000006804F059FB0546214604F089F91449A6
:1005200008600846006804F0E7FABDE8F09F0000A4
:100530002400002028000020740000205800002023
:10054000600000206666E63F3333D33F5C00002046
:10055000640000206800002000803B4500803BC50F
:100560004400002045000020700000206C000020A6
:10057000540000200146002291F82100022808D0F2
:100580000420886300BF002081F8200000BF012004
:1005900070470868006820F00E000B681860086853
:1005A000006820F001000B68186091F840300120CD
:1005B0009840CB6B5860012081F8210000BF0020DB
:1005C00081F8200000BF1046E2E7000070B5044645
:1005D000002594F82100022803D00420A0630125FF
:1005E000C1E02068006820F00E00216808602068E3
:1005F000006820F00100216808605C49206888429A
:1006000052D95A4978392068884201D1012047E0FF
:10061000564964392068884201D1102040E053498E
:1006200050392068884201D1801539E04F493C3962
:100630002068884201D1801432E04C492839206872
:10064000884202D14FF480302AE0484914392068AA
:10065000884202D14FF4801022E044492068884249
:1006600001D140041CE042492068884201D10120A8
:1006700016E03F4914312068884201D110200FE074
:100680003B4928312068884201D1801508E038496B
:100690003C312068884201D1801401E04FF4803061
:1006A0003349091F086051E0304978392068884291
:1006B00001D1012047E02D4964392068884201D1E9
:1006C000102040E0294950392068884201D1801526
:1006D00039E026493C392068884201D1801432E053
:1006E000224928392068884202D14FF480302AE01C
:1006F0001E4914392068884202D14FF4801022E04C
:100700001A492068884201D140041CE01849206839
:10071000884201D1012016E0154914312068884231
:1007200001D110200FE0124928312068884201D100
:10073000801508E00E493C312068884201D18014C0
:1007400001E04FF48030094980394860012084F885
:10075000210000BF002084F8200000BF606B10B1B2
:100760002046616B8847284670BD0000800002402B
:100770000804024070B5044600F0BEF9064625465E
:10078000681C10B104480078054400BF00F0B4F9BB
:10079000801BA842FAD370BDCC0000202DE9F84799
:1007A000024600239C467BE14FF0010808FA03F45F
:1007B000D1F8008008EA0400A0427DD1DFF8F4A25D
:1007C000D1F80480A8EB0A09D0453AD014DCB8F17E
:1007D000030F50D009DCB8F1000F31D0B8F1010F90
:1007E0001CD0B8F1020F49D120E0B8F1110F18D098
:1007F000B8F1120F42D11EE0B9F5881F25D006DCF2
:10080000B9F5803F20D0B9F5801F37D11AE0B9F58E
:10081000001F18D0B9F5041F30D117E0D1F80CC073
:100820002DE0D1F80C8008F1040C28E0D1F80C8000
:1008300008F1080C23E0D1F80C8008F10C0C1EE044
:1008400000BF00BF00BF00BF00BF00BFD1F80880DD
:10085000B8F1000F02D14FF0040C0BE0D1F8088082
:10086000B8F1010F03D14FF0080C146102E04FF012
:10087000080C546103E04FF0000C00E000BF00BF23
:10088000FF2801D8904601E002F104084646FF28FF
:1008900002D84FEA830803E0A3F108084FEA88086A
:1008A0004746D6F800804FF00F0909FA07F928EA01
:1008B00009080CFA07F900E07AE048EA0908C6F8E6
:1008C0000080D1F8048008F08058B8F1805F6FD1C3
:1008D00000BFDFF8E481D8F8188048F00108DFF89D
:1008E000D891C9F81880C846D8F8188008F00108CF
:1008F000CDF8008000BF00BF4FEAB9384FEA930936
:1009000058F829504FEA83784FEA18794FF00F08CA
:1009100008FA09F825EA0805DFF8A081424502D166
:100920004FF0000824E0DFF89881424502D14FF0F3
:1009300001081DE0DFF88C81424502D14FF002082A
:1009400016E0DFF88481424502D14FF003080FE042
:10095000DFF87881424502D14FF0040808E0DFF863
:100960007081424502D14FF0050801E04FF00608C2
:100970004FEA83794FEA197908FA09F848EA050538
:10098000DFF850814FEA930948F82950D1F80480E4
:1009900008F48018B8F5801F0BD1DFF83C81D8F837
:1009A000008048EA0008DFF83091C9F800800AE0CA
:1009B00075E0DFF82481D8F8008028EA0008DFF825
:1009C0001891C9F80080D1F8048008F40018B8F52F
:1009D000001F0ED1DFF8008108F10408D8F800806C
:1009E00048EA0008DFF8F09009F10409C9F800802E
:1009F0000DE0DFF8E48008F10408D8F8008028EA68
:100A00000008DFF8D49009F10409C9F80080D1F892
:100A1000048008F40038B8F5003F0ED1DFF8B88044
:100A2000A8F10408D8F8008048EA0008DFF8A89088
:100A3000A9F10409C9F800800DE0DFF89C80A8F155
:100A40000408D8F8008028EA0008DFF88C90A9F1A3
:100A50000409C9F80080D1F8048008F48038B8F59A
:100A6000803F0ED1DFF87080A8F10808D8F8008028
:100A700048EA0008DFF86090A9F10809C9F8008089
:100A80000DE0DFF85480A8F10808D8F8008028EAC3
:100A90000008DFF84490A9F10809C9F800805B1C40
:100AA000D1F8008028FA03F8B8F1000F7FF47CAE8B
:100AB000BDE8F88700001110001002400008014056
:100AC000000C0140001001400014014000180140DA
:100AD000001C0140080001400804014002469368E0
:100AE0000B400BB1012000E0002070470AB101610A
:100AF00001E00B0403617047014800687047000083
:100B0000C400002070B504460CB9012070BD94F8F3
:100B10003D0028B9002084F83C00204600F0DAF8B7
:100B2000242084F83D002068006820F0010021683E
:100B300008602068006840F4004021680860206870
:100B4000006820F400402168086000F09DFA054626
:100B50005C496068884206D85B48854201D2012022
:100B600007E0002005E05948854201D2012000E05D
:100B70000020012800D1C9E75548B5FBF0F62068F0
:100B8000406820F03F003043216848604D4960686C
:100B9000884201D8701C07E04FF4967070434FF400
:100BA0007A71B0FBF1F0401C2168096A21F03F0125
:100BB00008432168086243496068884214D8681E67
:100BC00061684900B0FBF1F0401CC0F30B00042841
:100BD00001D204203DE0681E61684900B0FBF1F0DD
:100BE000401CC0F30B0034E0A06838B9681E61688F
:100BF00001EB4101B0FBF1F0401C0AE0681E6168A6
:100C000001EBC10202EB0111B0FBF1F0401C40F41A
:100C10008040C0F30B0008B901201AE0A06848B971
:100C2000681E616801EB4101B0FBF1F0401CC0F3AC
:100C30000B000CE0681E616801EBC10202EB0111C0
:100C4000B0FBF1F0401CC0F30B0040F4804040F4D6
:100C500000402168C9694CF6FF729143084321683E
:100C6000C861D4E9070108432168096821F0C0017F
:100C7000084321680860D4E90310084321688968A3
:100C800048F2FF329143084321688860D4E90501A6
:100C900008432168C96821F0FF0108432168C86042
:100CA0002068006840F0010021680860002020648E
:100CB000202084F83D000020206384F83E0000BF1F
:100CC00024E70000A086010080841E0000093D008A
:100CD00040420F0010B586B00446002002900390F9
:100CE0000490059016492068884226D100BF154817
:100CF000806940F00800134988610846806900F067
:100D00000800019000BF00BF4FF440600290122025
:100D100003900320059002A90B48FFF73FFD00BF99
:100D20000848C06940F480000649C8610846C069A7
:100D300000F48000019000BF00BF06B010BD0000AD
:100D40000058004000100240000C014003480068B9
:100D5000034909780844014908607047C40000202D
:100D6000CC00002010B50848006840F0100006498B
:100D70000860032000F0A8F80F2000F007F800F04A
:100D80002BF8002010BD00000020024070B5044682
:100D90000E4800784FF47A71B1FBF0F00C49096805
:100DA000B1FBF0F5284600F0F9FB08B1012070BD59
:100DB000102C07D200222146501E00F047F80548AB
:100DC000046001E00120F2E70020F0E7CC00002001
:100DD000D0000020C800002008B500BF114880697D
:100DE00040F001000F4988610846806900F0010069
:100DF000009000BF00BF00BF0846C06940F08050AF
:100E0000C8610846C06900F08050009000BF00BF74
:100E100000BF0549486820F0E06040F0007048607D
:100E200000BF08BD00100240000001400146084616
:100E3000002809DB00F01F0301229A4043099B00B0
:100E400003F1E023C3F8002100BF70472DE9F05FF4
:100E500080460D461646002702F032FF0746394607
:100E60002A46334601F00700C0F1070ABAF1040F21
:100E700002D94FF0040A01E0C0F1070AD14600F19F
:100E8000040ABAF1070F02D24FF0000A01E0A0F104
:100E9000030AD4464FF0010A0AFA09FAAAF1010A34
:100EA0000AEA020A0AFA0CFA4FF0010B0BFA0CFBE1
:100EB000ABF1010B0BEA030B4AEA0B042146404657
:100EC00002F006FFBDE8F09F00BF00F00702064BEE
:100ED00019684FF6FF031940044B0B4343EA022104
:100EE000014B196000BF70470CED00E00000FA05EF
:100EF00070B504460D460CB9012070BD5A48006813
:100F000000F00700A8420ED25748006820F0070002
:100F10002843554908600846006800F00700A842C9
:100F200001D00120E9E7207800F0020002281DD15D
:100F3000207800F00400042805D14C48406840F4B3
:100F4000E0604A494860207800F00800082805D190
:100F50004648406840F4605044494860434840680F
:100F600020F0F000A168084340494860207800F074
:100F7000010078B36068012806D13C48006800F49D
:100F8000003090B90120B8E76068022806D13748E0
:100F9000006800F0007040B90120AEE733480068F7
:100FA00000F0020008B90120A7E73048406820F0AF
:100FB0000300616808432D494860FFF79DFD064620
:100FC00009E0FFF799FD801B41F28831884202D980
:100FD000032092E707E02548406800F00C006168B4
:100FE000B0EB810FEDD12048006800F00700A84267
:100FF0000ED91D48006820F0070028431A490860F0
:101000000846006800F00700A84201D0012074E7FC
:10101000207800F00400042807D11448406820F428
:10102000E060E168084311494860207800F008005A
:10103000082808D10D48406820F46050216940EA32
:10104000C1000A49486000F03FF808494968C1F307
:101050000311074A515CC840064908600648006809
:10106000FFF794FE002048E70020024000100240F5
:10107000D0700008D0000020C8000020014800689F
:1010800070470000D000002000B5FFF7F7FF0449CB
:101090004968C1F30221034A515CC84000BD000009
:1010A00000100240E070000800B5FFF7E7FF0449B8
:1010B0004968C1F3C221034A515CC84000BD000029
:1010C00000100240E070000870B5002100220024EA
:1010D00000230020134D696801F00C05F5B1042DC3
:1010E00002D0082D19D101E00F4819E00F4DC1F3CE
:1010F0008346AB5D01F4803555B10A4D6D68C5F38B
:1011000040450B4E725D084D5D43B5FBF2F402E0C5
:10111000084D03FB05F4204602E000BF024800BF73
:1011200000BF70BD0010024000127A00BE700008BF
:10113000CE70000800093D00F8B504460CB9012046
:10114000F8BD207800F00100002878D0F848406809
:1011500000F00C0004280CD0F548406800F00C00AA
:10116000082811D1F248406800F48030B0F5803F83
:101170000AD1EF48006800F4003000285FD06068B2
:1011800000285CD10120DBE700BF6068B0F5803F3C
:1011900006D1E748006840F48030E549086028E05F
:1011A000606858B9E248006820F48030E04908607F
:1011B0000846006820F4802008601AE06068B0F5F6
:1011C000A02F0BD1DA48006840F48020D84908608D
:1011D0000846006840F4803008600AE0D44800689F
:1011E00020F48030D24908600846006820F480204E
:1011F000086000BF606888B1FFF77EFC054606E026
:10120000FFF77AFC401B642801D9032098E7C848FF
:10121000006800F400300028F2D010E0FFF76CFC0A
:10122000054606E0FFF768FC401B642801D903204F
:1012300086E7BF48006800F400300028F2D120782B
:1012400000F00200022857D1B948406800F00C00B5
:1012500050B1B748406800F00C00082818D1B448D5
:10126000406800F4803098B9B148006800F002008E
:1012700020B12069012801D0012061E7AC48006855
:1012800020F0F800616940EAC100A949086033E034
:101290002069E8B10120A7490860FFF72DFC054649
:1012A00006E0FFF729FC401B022801D9032047E78D
:1012B0009F48006800F002000028F2D09C480068B7
:1012C00020F0F800616940EAC1009949086013E024
:1012D000002098490860FFF70FFC054606E0FFF77D
:1012E0000BFC401B022801D9032029E79048006825
:1012F00000F002000028F2D1207800F00800082851
:101300002DD1A069B8B101208B490860FFF7F4FB2B
:10131000054606E0FFF7F0FB401B022801D9032039
:101320000EE78348406A00F002000028F2D0012056
:1013300001F0B6FF13E000207F490860FFF7DCFBF7
:10134000054606E0FFF7D8FB401B022801D9032021
:10135000F6E67748406A00F002000028F2D12078D3
:1013600000F00400042873D100277148C06900F020
:10137000805070B900BF6E48C06940F080506C4921
:10138000C8610846C06900F08050009000BF00BFEF
:1013900001276A48006800F48070B0B967480068A7
:1013A00040F4807065490860FFF7A6FB054606E03B
:1013B000FFF7A2FB401B642801D90320C0E65F4869
:1013C000006800F480700028F2D000BFE0680128B7
:1013D00006D15748006A40F001005549086227E0ED
:1013E000E06858B95248006A20F00100504908628C
:1013F0000846006A20F00400086219E0E068052849
:101400000BD14B48006A40F0040049490862084685
:10141000006A40F0010008620AE04548006A20F0D6
:101420000100434908620846006A20F0040008628F
:1014300000BFE068A0B1FFF75FFB054609E0FFF7DA
:101440005BFB401B41F28831884202D9032077E6DA
:1014500022E03748006A00F002000028EFD012E0D6
:10146000FFF74AFB054608E0FFF746FB401B41F249
:101470008831884201D9032062E62D48006A00F0D5
:1014800002000028F0D1012F05D12948C06920F0C1
:1014900080502749C86100BFE069C8B3244840684C
:1014A00000F00C00082860D0E069022848D1002034
:1014B00020490866FFF720FB054606E0FFF71CFB06
:1014C000401B022801D903203AE61948006800F0C1
:1014D00000700028F2D1206AB0F5803F07D114488F
:1014E000406820F40030A168084311494860D4E9FD
:1014F000080108430E49496821F4741108430C4956
:10150000486001200B490866FFF7F6FA054607E038
:101510003DE0FFF7F1FA401B022801D903200FE656
:101520000348006800F000700028F2D02FE00000AF
:10153000001002400000424280044242007000401D
:10154000002014490866FFF7D7FA054606E0FFF7C2
:10155000D3FA401B022801D90320F1E50E480068A8
:1015600000F000700028F2D111E0E069012800D1FC
:10157000E6E50948466806F48031206A814204D1D4
:1015800006F47011606A814201D00120D8E5002084
:10159000D6E50000000042420010024070B504464B
:1015A0002546681EB0F1807F01D301200FE0681E40
:1015B0004FF0E02148610F214FF0FF3002F088FB2F
:1015C00000204FF0E021886107200861002070BDF5
:1015D0007047704710B50346002200BF93F83C00E7
:1015E000012801D1022010BD012083F83C0000BF7A
:1015F00022F0FF00CC6840EA040222F440708C68BC
:1016000040EA040222F480604C6840EA040222F4BA
:1016100000600C6840EA040222F480500C6940EA41
:10162000040222F400504C6940EA040222F4804093
:10163000CC6940EA04021868426400BF002083F8C5
:101640003C0000BF00BFCEE730B502460B4600BFEE
:1016500092F83C00012801D1022030BD012082F81F
:101660003C0000BF022082F83D001068446810680A
:10167000816824F070041868044310684460144DB5
:101680001068A84213D0134D1068A8420FD01068FC
:10169000B0F1804F0BD0104D1068A84207D00F4D0D
:1016A0001068A84203D00E4D1068A84205D121F061
:1016B00080015868014310688160012082F83D0074
:1016C00000BF002082F83C0000BF00BFC5E700005B
:1016D000002C01400034014000040040000800409C
:1016E000000C004010B504460CB9012010BD94F860
:1016F0003D0028B9002084F83C00204600F026F880
:10170000022084F83D00211D206801F073FF0120B4
:1017100084F8460000BF84F83E0001213F200155B7
:10172000402001554120015500BF00BF012084F831
:10173000420043200155442001554520015500BF7A
:10174000012084F83D000020D0E7000038B50446B1
:101750003A49206888420DD100BF3948806940F479
:101760000060374988610846806900F40060009095
:1017700000BF62E02068B0F1804F16D100BF304852
:10178000C06940F001002E49C8610846C06900F0F8
:101790000100009000BF00BF002202211C20FFF7C3
:1017A00055FB1C20FFF742FB47E026492068884292
:1017B00016D100BF2248C06940F008002049C86126
:1017C0000846C06900F00800009000BF00BF00227A
:1017D00007213220FFF73AFB3220FFF727FB2CE0EE
:1017E00019492068884216D100BF1548C06940F0E9
:1017F00010001349C8610846C06900F0100000904D
:1018000000BF00BF002204213620FFF71FFB362057
:10181000FFF70CFB11E00D49206888420DD100BF95
:101820000748806940F4005005498861084680698E
:1018300000F40050009000BF00BF38BD002C0140F4
:1018400000100240000C0040001000400034014035
:10185000014691F83D00012801D001207047022087
:1018600081F83D000868C06840F001000B68D8604E
:10187000164B0868984213D0154B086898420FD051
:101880000868B0F1804F0BD0124B0868984207D01F
:10189000114B0868984203D0104B086898420CD14D
:1018A0000868806800F00702062A0CD00868006803
:1018B00040F001000B68186005E00868006840F01F
:1018C00001000B6818600020C8E70000002C0140F0
:1018D000003401400004004000080040000C0040BB
:1018E0002DE9F04104460D46002700BF94F83C0066
:1018F000012802D10220BDE8F081012084F83C00DB
:1019000000BF022084F83D002068866826F0770634
:1019100026F47F46206886602868502833D00CDC87
:10192000202850D004DC00284BD0102851D149E0A9
:10193000302849D040284CD139E060282DD070287B
:1019400007D0B0F5805F03D0B0F5005F41D10DE066
:1019500041E0D5E902136A68206801F0AAFE206818
:10196000866846F077062068866034E0D5E9021381
:101970006A68206801F09DFE2068806840F480401D
:101980002168886027E0EA686968206801F082FFC2
:101990005021206801F098FE1DE0EA68696820681F
:1019A00001F08BFF6021206801F08EFE13E0EA68F1
:1019B0006968206801F06EFF4021206801F084FE14
:1019C00009E000BF00BF00BF2968206801F07CFE6D
:1019D00001E0012700BF00BF012084F83D0000BFE7
:1019E000002084F83C0000BF384684E72DE9F04130
:1019F00004460D4614B90120BDE8F08194F83D007D
:101A000028B9002084F83C00204600F051F802205C
:101A100084F83D002068806844F20701884321680B
:101A20008860211D206801F0E5FD2068D0F808805D
:101A3000206886692068076A286840EA080840F23A
:101A400003308643A969A86840EA0120064340F6AE
:101A50000C4086434FF2F0008643E969E86840EAAB
:101A60000120064328690001296A40EA0130064343
:101A700027F022076969686840EA01100743206877
:101A8000C0F808802068866120680762012084F819
:101A9000460084F83E0001213F200155012084F8D2
:101AA000420043200155012084F83D000020A3E7B7
:101AB00010B586B004460020029003900490059073
:101AC00029492068884224D100BF2848C06940F0D5
:101AD00002002649C8610846C06900F00200019072
:101AE00000BF00BF00BF0846806940F00400886165
:101AF0000846806900F00400019000BF00BFC020CC
:101B0000029000200390049002A91948FEF746FEB7
:101B100027E018492068884223D100BF1348C069D4
:101B200040F004001149C8610846C06900F0040093
:101B3000019000BF00BF00BF0846806940F0080068
:101B400088610846806900F00800019000BF00BF6E
:101B5000C020029000200390049002A90648FEF7DE
:101B60001DFE06B010BD0000000400400010024041
:101B70000008014000080040000C01402DE9F0433E
:101B800004460D4694F83E603F20075D94F842807D
:101B9000432010F804906DB9012E02D1B8F1010F65
:101BA00002D00120BDE8F083022084F83E0084F8D2
:101BB000420025E0042D0CD1012F02D1B9F1010F13
:101BC00001D00120EEE702213F20015543200155BD
:101BD00016E0012E07D1012F05D1B8F1010F02D176
:101BE000B9F1010F01D00120DCE7022084F83E00AA
:101BF00002213F200155022084F842004320015574
:101C000015B1042D0CD105E001220021206801F05E
:101C10003FFD10E001220421206801F039FD0AE0B7
:101C200001220021206801F033FD012204212068F7
:101C300001F02EFD00BF00BF2068006840F00100E9
:101C4000216808600020ADE7704710B504462068A1
:101C50000069C0F34000D8B12068C068C0F34000FC
:101C6000B0B16FF002002168086101202077206880
:101C7000806900F0030018B12046FFF7E5FF05E09A
:101C8000204600F0F9F8204600F0ADF9002020775A
:101C900020680069C0F38000D8B12068C068C0F334
:101CA0008000B0B16FF00400216808610220207745
:101CB0002068806900F4407018B12046FFF7C4FF27
:101CC00005E0204600F0D8F8204600F08CF900200E
:101CD000207720680069C0F3C000D8B12068C068D0
:101CE000C0F3C000B0B16FF00800216808610420A3
:101CF00020772068C06900F0030018B12046FFF784
:101D0000A3FF05E0204600F0B7F8204600F06BF98D
:101D10000020207720680069C0F30010D8B1206847
:101D2000C068C0F30010B0B16FF010002168086106
:101D3000082020772068C06900F4407018B1204660
:101D4000FFF782FF05E0204600F096F8204600F0FD
:101D50004AF9002020772068006900F0010058B19E
:101D60002068C06800F0010030B16FF00100216808
:101D70000861204600F006FA20680069C0F3C01030
:101D800058B12068C068C0F3C01030B16FF0800057
:101D9000216808612046FFF71BFC20680069C0F33A
:101DA000801058B12068C068C0F3801030B16FF067
:101DB000400021680861204600F02CFA2068006984
:101DC000C0F3401058B12068C068C0F3401030B173
:101DD0006FF02000216808612046FFF7FAFB10BD74
:101DE00010B586B004460020029003900490059040
:101DF0001C492068884217D100BF1B48806940F009
:101E00000400194988610846806900F004000190C7
:101E100000BF00BF8815029002200390059002A920
:101E20001248FEF7BBFC1AE011492068884216D11F
:101E300000BF0D48806940F010000B4988610846DA
:101E4000806900F01000019000BF00BF40200290A8
:101E500002200390059002A90648FEF79FFC06B0F9
:101E600010BD0000002C014000100240000801409D
:101E7000003401400010014070472DE9F041044654
:101E80000D461646002700BF94F83C00012802D1F9
:101E90000220BDE8F081012084F83C0000BF36B18B
:101EA000042E1BD0082E31D00C2E5ED145E02946E1
:101EB000206801F013FC2068806940F00800216868
:101EC00088612068806920F00400216888612068AA
:101ED0008069296908432168886148E029462068AB
:101EE00001F034FC2068806940F40060216888615A
:101EF0002068806920F4806021688861206880699A
:101F0000296940EA01202168886130E0294620687B
:101F100001F05AFC2068C06940F008002168C861DF
:101F20002068C06920F004002168C8612068C06989
:101F3000296908432168C86119E02946206801F031
:101F40007FFC2068C06940F400602168C861206897
:101F5000C06920F480602168C8612068C06929696F
:101F600040EA01202168C86101E0012700BF00BFED
:101F700000BF002084F83C0000BF384689E710B558
:101F800004460CB9012010BD94F83D0028B900208A
:101F900084F83C00204600F025F8022084F83D003B
:101FA000211D206801F026FB012084F8460000BFB7
:101FB00084F83E0001213F20015540200155412079
:101FC000015500BF00BF012084F8420043200155A5
:101FD000442001554520015500BF012084F83D00F3
:101FE0000020D0E77047704770B504460D4615B91C
:101FF00094F83E000BE0042D02D13F20005D06E086
:10200000082D02D14020005D01E04120005D012843
:1020100001D0012070BD1DB9022084F83E000EE001
:10202000042D03D102213F20015508E0082D03D1E2
:1020300002214020015502E00221412001550122E8
:102040002946206801F024FB1F492068884203D0FC
:102050001E492068884201D1012000E0002028B1FB
:102060002068406C40F400402168486416492068AC
:10207000884213D01549206888420FD02068B0F1FB
:10208000804F0BD012492068884207D01149206840
:10209000884203D01049206888420CD120688068AB
:1020A00000F00706062E0CD02068006840F0010002
:1020B0002168086005E02068006840F001002168A0
:1020C00008600020A6E70000002C01400034014019
:1020D0000004004000080040000C004030B50446F9
:1020E0000D4600222946206801F0D2FA23492068D3
:1020F000884203D022492068884201D1012000E0B3
:10210000002090B100BF2068006A41F21111084020
:1021100050B92068006A8910084028B92068406CCE
:1021200020F400402168486400BF00BF2068006AB6
:1021300041F21111084050B92068006A8910084026
:1021400028B92068006820F001002168086000BFFD
:102150001DB9012084F83E000EE0042D03D10121B9
:102160003F20015508E0082D03D1012140200155F1
:1021700002E0012141200155002030BD002C01402A
:102180000034014010B504462068B0F1804F2AD1D8
:10219000042001F049F917490860032001F044F9CF
:1021A000154908600846016812480068FEF74AF9B8
:1021B0001249086001F0F6F8114908700F480068EC
:1021C00010490860084600680F4908600D4800681B
:1021D0000E4908600C4800F029FB0C4801680A48C9
:1021E000006801F077F90A492068884201D101F0BE
:1021F0006BF810BD24000020280000201C000020E7
:102200008000002038000020300000203400002032
:10221000001000407047F8B504460E46174694F883
:10222000420020282ED106B10FB90120F8BD0120AF
:102230002063002060633A463146204601F0D8FC16
:102240000546EDB9206B012819D100BF0020009090
:1022500020680068009020684068009000BF00BFC0
:1022600000BF00BF21680C3151E8001F41F0100091
:1022700021680C3141E80002002AF3D100E0012579
:102280002846D3E70220D1E770B504460D4611A1D8
:102290001148FDF7E3FFE0B110A10F48FDF7DEFFA5
:1022A000B8B10FA10C48FDF7D9FF90B10DA10A48B4
:1022B000FDF7D4FF68B10CA10748FDF7CFFF40B18F
:1022C0000AA10548FDF7CAFF18B109A10248FDF7A8
:1022D000C5FF70BD31000000080100203200000081
:1022E000330000003400000035000000360000001C
:1022F00037000000704700002DE9F84F04462068C1
:1023000005682068C668206847694FF00009CA461A
:1023100005F00F09B9F1000F0AD105F0200038B11E
:1023200006F0200020B1204601F066FBBDE8F88FE2
:10233000B9F1000F7BD007F0010018B906F49070D6
:10234000002874D005F0010030B106F4807018B197
:10235000606C40F00100606405F0040030B107F0EB
:10236000010018B1606C40F00200606405F00200EA
:1023700030B107F0010018B1606C40F004006064F7
:1023800005F0080048B106F0200010B907F0010080
:1023900018B1606C40F008006064606C002845D0A3
:1023A00005F0200028B106F0200010B1204601F011
:1023B00023FB20684069C0F3801A606C00F00800BD
:1023C00010B9BAF1000F2CD0204601F094FA206821
:1023D000406900F0400000B300BF00BF2168143125
:1023E00051E8001F21F040002168143141E800024B
:1023F000002AF3D100BFE06B50B17748E16B48632E
:10240000E06BFEF7E3F888B1E06B416B88470DE0C5
:102410002046FFF76FFF09E009E02046FFF76AFF5B
:1024200004E02046FFF766FF002060647EE7206B33
:10243000012877D105F01000002873D006F01000B5
:102440000028FAD000BF00200090206800680090AB
:1024500020684068009000BF00BF2068406900F01D
:10246000400000285FD0E06B006840681FFA80F8E9
:10247000B8F1000F55D0A08D404552DDA4F82E8054
:10248000E06B8069202843D000BF00BF21680C3179
:1024900051E8001F21F4807021680C3141E80002EE
:1024A000002AF3D100BF00BF00BF2168143151E8FA
:1024B000001F21F001002168143141E80002002AC8
:1024C000F3D100BF00BF00BF2168143151E8001FE5
:1024D00021F040002168143141E80002002AF3D1C4
:1024E00000BF202084F842000020206300BF00BF0E
:1024F00021680C3151E8001F21F0100021680C31D7
:1025000041E80002002AF3D100BFE06BFEF732F889
:1025100002206063A08DE28D801A81B22046FFF711
:10252000B3FE03E742E0A08DE18D401A1FFA80F868
:10253000E08DD0B3B8F1000F37D000BF00BF2168E5
:102540000C3151E8001F21F4907021680C3141E8F2
:102550000002002AF3D100BF00BF00BF2168143180
:1025600051E8001F21F001002168143141E8000208
:10257000002AF3D100BF202084F84200002020630D
:1025800000BF00BF21680C3151E8001F21F010008E
:1025900021680C3141E80002002AF3D100BF02207B
:1025A000606341462046FFF76FFEBFE605F08000FE
:1025B00030B106F0800018B1204601F039FBB5E6D5
:1025C00005F0400030B106F0400018B1204601F09F
:1025D000C8F9ABE600BFA9E6E338000810B5044629
:1025E0000CB9012010BDA06900B100E000BF94F853
:1025F000410028B9002084F84000204600F02AF865
:10260000242084F841002068C06820F4005021682C
:10261000C860204601F06EFA2068006920F49040FE
:10262000216808612068406920F02A00216848611B
:102630002068C06840F400502168C86000206064D1
:10264000202084F8410084F842000020606300BF2D
:10265000C8E7000010B586B0044600200290039041
:10266000049005903B492068884237D100BF3A4822
:10267000806940F48040384988610846806900F4E8
:102680008040019000BF00BF00BF0846806940F055
:10269000040088610846806900F00400019000BFD2
:1026A00000BF48150290022003900320059002A964
:1026B0002A48FEF773F84FF48060029000200390E0
:1026C000049002A92548FEF769F800220C21252074
:1026D000FEF7BCFB2520FEF7A9FB39E02049206866
:1026E000884235D100BF1C48C06940F400301A4907
:1026F000C8610846C06900F40030019000BF00BF07
:1027000000BF0846806940F004008861084680697F
:1027100000F00400019000BF00BF042002900220DE
:1027200003900320059002A90C48FEF737F8082013
:10273000029000200390049002A90848FEF72EF8AA
:1027400000220E212620FEF781FB2620FEF76EFBDD
:1027500006B010BD003801400010024000080140E2
:10276000004400407047704700BFFEE700B585B0E9
:1027700000BF0D48806940F010000B498861084691
:10278000806900F01000009000BF00BF4FF42040AF
:1027900001900120029003900320049001A90348B6
:1027A000FDF7FCFF05B000BD001002400010014025
:1027B00010B5012251030A48FEF798F90122D1030E
:1027C0000748FEF793F900224FF400510448FEF742
:1027D0008DF900224FF400410148FEF787F910BD42
:1027E0000010014010B50122D1030748FEF77EF921
:1027F00000224FF400510448FEF778F901225103FA
:102800000148FEF773F910BD0010014010B5012218
:10281000D1030548FEF76AF900224FF4004102484F
:10282000FEF764F910BD00000010014041F6583376
:1028300002689A4201DD1A4602600A4B02689A4217
:1028400001DA1A46026041F658330A689A4201DDFD
:102850001A460A60034B0A689A4201DA1A460A606D
:1028600070470000A8E4FFFF00B585B0002001908C
:1028700002900390049000BF5E48806940F0100011
:102880005C4988610846806900F01000009000BF34
:1028900000BF00BF0846806940F0200088610846FC
:1028A000806900F02000009000BF00BF00BF084614
:1028B000806940F0040088610846806900F00400E7
:1028C000009000BF00BF00BF0846806940F00800CC
:1028D00088610846806900F00800009000BF00BFD2
:1028E00000224AF207014448FEF700F900220221C3
:1028F0004248FEF7FBF8012220213F48FEF7F6F898
:102900004AF2200001900120029000200390022052
:10291000049001A93848FDF741FF4FF4944001901D
:1029200000200290039001A93348FDF737FF0720EC
:10293000019001200290002003900320049001A93F
:102940002D48FDF72BFF48F2110001900020029066
:10295000039001A92948FDF721FF022001900120E1
:102960000290002003900320049001A92348FDF762
:1029700015FF20200190002002900220039001A961
:102980001E48FDF70BFF4FF400400190002002901D
:102990000120039001A91A48FDF700FF4FF4A05051
:1029A0000190002002900220039001A91248FDF737
:1029B000F5FE04200190002002900220039001A95E
:1029C0001048FDF7EBFE0820019000200290022045
:1029D000039001A90A48FDF7E1FE4FF488700190C9
:1029E00000200290039001A90548FDF7D7FE05B02D
:1029F00000BD00000010024000100140000801402E
:102A0000000C01400014014010B50B480B49086050
:102A10000B484860002109488160C1604FF4804143
:102A20000161002141618161C1610162FEF76AF8C3
:102A300008B1FDF703FD10BD00580040EC05002073
:102A4000801A060000B595B00020119012901390E6
:102A500014900F9010901C2108A8FDF7D7FB20219F
:102A60006846FDF7D3FB2B482B49086000204860DF
:102A700000212948816041F61F41C16000210161A8
:102A8000416180218161FEF72DFE08B1FDF7D6FC82
:102A90004FF48050119011A91F48FEF721FF08B193
:102AA000FDF7CCFC1C48FFF76AFA08B1FDF7C6FC3D
:102AB00000200F9010900FA91748FEF7C5FD08B130
:102AC000FDF7BCFC60200890002009900A900B9054
:102AD0000C900D900E90002208A90F48FFF7CDF939
:102AE00008B1FDF7ABFC002000900190029003902C
:102AF00004904FF400500590002007906946064866
:102B0000FEF768FD08B1FDF799FC0348FFF768F987
:102B100015B000BD002C01404006002000B587B074
:102B200000200390049005900690019002904FF0D1
:102B300080401449086041F61F4048600021114858
:102B400081606321C160002101618161FEF7CAFDDE
:102B500008B1FDF773FC4FF48050039003A90948B6
:102B6000FEF7BEFE08B1FDF769FC0020019002905F
:102B700001A90448FEF768FD08B1FDF75FFC07B046
:102B800000BD00008806002000B58BB0242102A8FB
:102B9000FDF73CFB002000900190184818490860A0
:102BA000002048600021164881604FF6FF71C16027
:102BB0000021016181610120029000200390012029
:102BC00004900020059006900790012008900020B6
:102BD00009900A9002A90A48FEF708FF08B1FDF71C
:102BE0002DFC00200090019069460548FEF72CFD61
:102BF00008B1FDF723FC0BB000BD0000000400404D
:102C0000D006002000B58BB0242102A8FDF7FEFA03
:102C10000020009001901848184908600020486082
:102C20000021164881604FF6FF71C16000210161EB
:102C30008161012002900020039001200490002077
:102C400005900690079001200890002009900A90B6
:102C500002A90A48FEF7CAFE08B1FDF7EFFB002003
:102C60000090019069460548FEF7EEFC08B1FDF7BB
:102C7000E5FB0BB000BD0000000800401807002075
:102C800000B587B000200390049005900690019055
:102C9000029015481549086040F2CF204860002195
:102CA0001248816042F20F71C160002101618161AF
:102CB000FEF718FD08B1FDF7C1FB4FF480500390FB
:102CC00003A90A48FEF70CFE08B1FDF7B7FB002088
:102CD0000190029001A90548FEF7B6FC08B1FDF786
:102CE000ADFB07B000BD0000000C004060070020F5
:102CF0001CB50020009001900E480F49086041F675
:102D00001F40486000210C4881606321C1600021A0
:102D10008161FEF7E7FC08B1FDF790FB0020009011
:102D2000019069460448FEF78FFC08B1FDF786FB69
:102D30001CBD000000100040A807002000B595B0A1
:102D4000002011901290139014900F9010901C215D
:102D500008A8FDF75BFA20216846FDF757FA2B48D3
:102D60002B4908600020486000212948816041F615
:102D70001F41C16000210161416180218161FEF735
:102D8000B1FC08B1FDF75AFB4FF48050119011A926
:102D90001F48FEF7A5FD08B1FDF750FB1C48FFF7E3
:102DA000EEF808B1FDF74AFB00200F9010900FA934
:102DB0001748FEF749FC08B1FDF740FB602008907A
:102DC000002009900A900B900C900D900E9000221C
:102DD00008A90F48FFF751F808B1FDF72FFB0020B5
:102DE000009001900290039004904FF400500590E1
:102DF0000020079069460648FEF7ECFB08B1FDF796
:102E00001DFB0348FEF7ECFF15B000BD0034014088
:102E1000F007002010B50B480B4908604FF4E13073
:102E20004860002108488160C16001610C21416156
:102E300000218161C161FFF7D1FB08B1FDF7FEFA06
:102E400010BD0000003801403808002010B50B48C4
:102E50000B4908604FF41650486000210848816013
:102E6000C16001610C21416100218161C161FFF7F5
:102E7000B5FB08B1FDF7E2FA10BD000000440040C8
:102E80008008002000BFFEE700BFFEE770B5002409
:102E90000CE0002506E00020074901EBC5010855BC
:102EA000681CC5B2802DF6DB601CC4B2082CF0DBB8
:102EB00000F0D8F870BD00006C01002070B50B4622
:102EC000CE1701EB5676C6F3C702CE1701EB567646
:102ED000F610A1EBC606F4B20123A340DDB20E4BFF
:102EE00003EBC0039B5CDB430B4E06EBC006B35405
:102EF000094B03EBC0039B5C2B43074E06EBC0065C
:102F0000B354054B03EBC0039B5CDB43024E06EB63
:102F1000C006B35470BD00006C01002070B50A46B5
:102F2000CE1701EB5676C6F3C703CE1701EB5676E4
:102F3000F610A1EBC606F4B20122A240D5B2054AB2
:102F400002EBC002D25C2A43024E06EBC006F254EA
:102F500070BD00006C01002010B5FFF707FC4FF4B6
:102F60007A70FDF707FC0021AE2000F07CF900210B
:102F7000084600F078F90021102000F074F90021D3
:102F8000402000F070F90021812000F06CF9002150
:102F9000CF2000F068F90021A12000F064F90021A1
:102FA000C82000F060F90021A62000F05CF90021A3
:102FB000A82000F058F900213F2000F054F900212A
:102FC000D32000F050F90021084600F04CF9002110
:102FD000D52000F048F90021802000F044F90021BC
:102FE000D92000F040F90021F12000F03CF9002147
:102FF000DA2000F038F90021122000F034F9002125
:10300000DB2000F030F90021402000F02CF90021F5
:10301000202000F028F90021022000F024F90021EE
:103020008D2000F020F90021142000F01CF900216F
:10303000A42000F018F90021A62000F014F90021C6
:10304000AF2000F010F9FFF721FF10BD10B50246C8
:10305000012000E050430B1EA1F10104E1B2F9D1BF
:1030600010BD000070B500241CE004F1B001C8B22E
:10307000002100F0F8F80021084600F0F4F80021E3
:10308000102000F0F0F8002508E0084901EBC50128
:10309000085D012100F0E7F8681CC5B2802DF4DB63
:1030A000601CC4B2082CE0DB70BD00006C01002085
:1030B0002DE9FF4F81B080460E461C460096204603
:1030C000E31704EB5373DB1021464FEAE47C04EB77
:1030D0005C7C4FEAEC0CA4EBCC0CBCF1000F02D0F2
:1030E0004FF0010C01E04FF0000C6344224604EB6A
:1030F000D27C4FEA6C0C03FB0CF303F0FF0B03983C
:103100002038C7B2002547E00C2C07D107EB470059
:10311000234901EB800010F805A014E0102C05D124
:10312000204800EB071010F805A00CE0182C07D180
:1031300007EBC7001C4901EB800010F805A002E076
:1031400005B0BDE8F08F4FF000091FE00AF08000E5
:1031500020B131464046FFF7E1FE03E031464046EC
:10316000FFF7ACFE4FEA4A604FEA106A701CC6B225
:103170000098301AA04205D1009E08F1010000F02D
:10318000FF0806E009F1010000F0FF09B9F1080F9E
:10319000DCDB00BF681CC5B25D45B5DB00BFCFE717
:1031A000AE4E000822530008125900082DE9FF4FC7
:1031B000814615461E460D9F002D07DB3B462B2200
:1031C00048460199FFF774FFA84607E03B462D22C9
:1031D00048460199FFF76CFFC5F1000800241DE087
:1031E000301B401EC1B20A20FFF730FFB8FBF0F0E1
:1031F0000A21B0FBF1F201FB120000F1300BBA46DC
:1032000007EBDA714A10611C02FB0191C8B23B4620
:103210005A460199FFF74CFF601CC4B2B442DFDB91
:10322000BDE8FF8FF0B506460F4614461D4613E075
:1032300022782B4639463046FFF73AFF284605EB01
:10324000D07106EB6101CEB2C5F18000B04202DA66
:103250000026B81CC7B2641C2078202802DB207826
:103260007E28E5DDF0BD70B505460C46FFF7A0FAF7
:10327000782000F001F9FFF7C9FA1CB1402000F0F6
:10328000FBF802E0002000F0F7F8FFF7BFFA28464D
:1032900000F0F2F8FFF7BAFAFFF7A4FA70BD704732
:1032A00008B508490968C9084FF47A72B1FBF2F110
:1032B0004143009100BF00BF00994A1E00920029BF
:1032C000F9D108BDD000002010B508213148FDF724
:1032D00005FC3149087004213048FDF7FFFB2E49F9
:1032E000C8704FF480612E48FDF7F8FB2A498871B9
:1032F0004FF480512A48FDF7F1FB2749487200201E
:1033000045E000EB4001244A1144497821B10129EC
:1033100015D0022938D126E000EB40011E4A515C4D
:10332000012905D100EB40021B4B1A44517005E006
:10333000002100EB4002184B1A44517024E000EBCE
:103340004001154A515C012906D1022100EB4002DF
:10335000114B1A44517005E0002100EB40020E4B66
:103360001A44517010E000EB40010B4A515C51B916
:10337000002100EB4002084B1A445170012100EB80
:1033800040021A44917000BF00BF411CC8B204281B
:10339000B7DB10BD000C0140FC0000200014014010
:1033A0000010014010B54FF400711B48FDF796FB6B
:1033B0001A4908704FF400411948FDF78FFB17496F
:1033C00048704FF400611448FDF788FB134988707A
:1033D00010211448FDF782FB1049C8704FF480712A
:1033E0001048FDF77BFB0D4908714FF480410A48F6
:1033F000FDF774FB0949487101210948FDF76EFB8F
:103400000649887110210648FDF768FB0349C87119
:10341000FCF7D6FF10BD00000010014000000020A6
:1034200000080140000C0140014603290ED0042988
:1034300018D10E4A1268526A12B26FF0310302FBC1
:1034400003F00022094B1B685A620DE0084A12681B
:10345000526A12B2322302FB03F00022044B1B68B3
:103460005A6201E0002000BF00BF7047180700202B
:10347000D00600207047000070B50446002523E008
:1034800000224FF400411248FDF730FB04F08000A9
:1034900028B1012251030E48FDF728FB05E0002268
:1034A0004FF400510A48FDF721FB0122D1030848DF
:1034B000FDF71CFB00224FF400410548FDF716FB09
:1034C0006006040E681CC5B2082DD9DB70BD000073
:1034D0000010014070B504460D46002C06DD0020AA
:1034E0001649087001201649087005E001201349AB
:1034F0000870002012490870201E01DB014600E020
:103500004142104A12685163002D06DD00200E4929
:10351000087001200D49087005E001200A49087073
:1035200000200A490870281E01DB014600E04142E4
:10353000074A12685163FCF71BFF70BD4000002072
:1035400041000020400600204200002043000020EF
:10355000F007002010B5FDF7F9FB10BD00B58FB0E6
:10356000282105A8FCF752FE14216846FCF74EFE00
:10357000012005900004069000200790012009908A
:1035800002200C90C1030D914FF4E0110E9105A89B
:10359000FDF7D2FD08B1FCF751FF0F20009002208B
:1035A0000190002002904FF480600390002004906E
:1035B00002216846FDF79CFC08B1FCF73FFF0FB005
:1035C00000BD704710B50248FEF73FFB10BD00007C
:1035D0008806002010B50248FEF737FB10BD00003A
:1035E0006007002010B50248FEF72FFB10BD000059
:1035F000A807002010B50268204B98420ED0204B3F
:1036000098420BD0B0F1804F08D01E4B984205D0A5
:103610001D4B984202D01D4B984203D122F07002FC
:103620004B681A43154B98420ED0154B98420BD05D
:10363000B0F1804F08D0134B984205D0124B9842FE
:1036400002D0124B984203D122F44072CB681A4345
:1036500022F080034C6943EA040202608B68C36273
:103660000B688362054B984202D0054B984201D10A
:103670000B6903630123436110BD0000002C01406E
:10368000003401400004004000080040000C0040ED
:1036900030B501F01F05012404FA05F3046A9C43C8
:1036A0000462046A01F01F0502FA05F52C43046266
:1036B00030BD30B50C46816821F47F4142EA0325D4
:1036C00025432943816030BD0A46816821F070019D
:1036D00042F00703194381607047000030B5026A69
:1036E000056A25F0010505624368846924F07004C9
:1036F00024F003040D682C4322F002028D682A4353
:10370000104DA84200D103E00F4DA84206D100BFE2
:1037100022F00802CD682A4322F00402094DA84293
:1037200002D0094DA84207D123F4807323F400731B
:103730004D692B438D692B43436084614D6845631C
:10374000026230BD002C01400034014030B5026AF5
:10375000056A25F0100505624368846924F4E04495
:1037600024F440740D6844EA052422F020028D6898
:1037700042EA0512124DA84200D103E0114DA842C1
:1037800007D100BF22F08002CD6842EA051222F084
:1037900040020B4DA84202D00A4DA84209D123F4A1
:1037A000806323F400634D6943EA85038D6943EA2E
:1037B0008503436084614D688563026230BD00000B
:1037C000002C01400034014030B5026A056A25F43E
:1037D000807505624368C46924F0700424F0030412
:1037E0000D682C4322F400728D6842EA0522124DC6
:1037F000A84200D103E0114DA84207D100BF22F436
:103800000062CD6842EA052222F480620A4DA84295
:1038100002D00A4DA84209D123F4805323F4005367
:103820004D6943EA05138D6943EA05134360C4619A
:103830004D68C563026230BD002C01400034014078
:1038400030B5036A056A25F4805505624468C2698B
:1038500022F4E04222F440720D6842EA052223F489
:1038600000538D6843EA0533084DA84202D0084D45
:10387000A84204D124F480444D6944EA851444608C
:10388000C2614D680564036230BD0000002C014038
:103890000034014030B50B461446026A056A25F033
:1038A00001050562816921F0F00141EA041122F06D
:1038B0000A021A438161026230BD30B50B461446DC
:1038C000026A056A25F010050562816921F47041DC
:1038D00041EA043122F0A00242EA0312816102624D
:1038E00030BD70B505466C6A0020E085E084204656
:1038F000FEF700FD70BD00BF00BF02680C3252E849
:10390000002F22F4907102680C3242E80013002B61
:10391000F3D100BF00BF00BF0268143252E8002F8D
:1039200022F001010268143242E80013002BF3D1A7
:1039300000BF016B01290ED100BF00BF02680C322D
:1039400052E8002F22F0100102680C3242E8001306
:10395000002BF3D100BF202180F842100021016329
:10396000704710B504462068C06820F04000216808
:10397000C860202084F841002046FEF7F4FE0020B5
:1039800010BD000010B51648006816490968401AB5
:10399000C82800D210BD12480068124908601248B9
:1039A000006841F65831884204DA0F4800684942FD
:1039B000884212DC0D48006841F65831884204DA2A
:1039C0000A4800684942884207DC00210848FEF79F
:1039D00085FB00210748FEF781FB00BFDAE7000006
:1039E000C40000201400002030000020340000201B
:1039F00040060020F0070020F8B5044694F8420085
:103A0000222875D1A068B0F5805F0CD1206950B92B
:103A10000025A66A20684068C0F308003080A06ACC
:103A2000801CA06215E0A56A0026A068B0F5805F42
:103A300003D0A06828B9206918B9206840682870A8
:103A400004E02068406800F07F002870A06A401CF5
:103A5000A062E08D401E80B2E085002846D120683B
:103A6000C06820F020002168C8602068C06820F489
:103A700080702168C8602068406920F001002168DA
:103A80004861202084F8420000206063206B0128F8
:103A900026D10020206300BF00BF21680C3151E80F
:103AA000001F21F0100021680C3141E80002002ABB
:103AB000F3D100BF2068006800F0100010280AD180
:103AC00000BF0020009020680068009020684068D7
:103AD000009000BF00BFA18D2046FEF7D5FB02E09D
:103AE0002046FEF73FFE0020F8BD01E00020FBE786
:103AF0000220F9E770B504462168096921F44051B4
:103B0000E2681143226811612269A1681143626968
:103B100041EA02052168C96841F20C6291432943D8
:103B20002268D1602168496921F44071A26911437A
:103B3000226851612D4A2168914202D1FDF7B4FA01
:103B400001E0FDF7A1FA00EBC00101EB0011626892
:103B50009200B1FBF2F100EBC00202EB00126368CD
:103B60009B00B2FBF3F26423B2FBF3F202EBC2035D
:103B700003EB0212A1EB8201322202EB011164225B
:103B8000B1FBF2F101F0F00100EBC00202EB001218
:103B900063689B00B2FBF3F26423B2FBF3F201EB28
:103BA000021200EBC00101EB001163689B00B1FB46
:103BB000F3F100EBC00303EB00136668B600B3FB40
:103BC000F6F36426B3FBF6F303EBC30606EB03132D
:103BD000A1EB8301322303EB01116423B1FBF3F169
:103BE00001F00F0111442268916070BD003801405E
:103BF00010B5034699629A85DA8500205864222020
:103C000083F84200186928B11868C06840F48070D1
:103C10001C68E0601868406940F001001C68606141
:103C20001868C06840F020001C68E060002010BDEB
:103C3000014691F84100212828D18868B0F5805FBD
:103C40000BD1086948B90A6A1088C0F308000B68EC
:103C50005860086A801C086205E00B6A581C0862FC
:103C600018780B685860C88C401E80B2C88458B958
:103C70000868C06820F080000B68D8600868C068D9
:103C800040F040000B68D860002070470220FCE73D
:103C900010B50248FEF730FB10BD000038080020C8
:103CA00010B50448FEF728FB322203490148FEF70D
:103CB000B2FA10BD800800200801002000BFFEE716
:103CC00002480068C0F30220704700000CED00E0DD
:103CD00010B5002804DB0A07130E054A135406E04A
:103CE0000A07140E034A00F00F031B1FD45410BD23
:103CF00000E400E018ED00E070B56048807801282D
:103D00003DD15F480078012824D0022802D0032842
:103D100030D10FE05B48006800F00AFF05465A48C2
:103D20000168284600F084FD044600F0E5FE554990
:103D300008601FE05548006800F0FAFE0546544848
:103D40000168284600F074FD044600F0D5FE4F4996
:103D500008600FE04F4801684F48006800F068FDB8
:103D60004D4908604D494C48006800F0CFFD4C4972
:103D7000086000BF00BF0020404988707DE03F48D8
:103D80004079012803D100213C48417175E03B484E
:103D9000C07A01283DD13A480078012824D0022871
:103DA00002D0032830D10FE03648006800F0C0FE92
:103DB000054635480168284601F004F8044600F03D
:103DC0009BFE304908601FE03048006800F0B0FEFC
:103DD00005462F480168284600F0F4FF044600F02D
:103DE0008BFE2A4908600FE02A4801682A480068CB
:103DF00000F0E8FF2849086028492748006800F0DB
:103E000085FD2749086000BF00BF00211B48C17223
:103E100033E01A48007A01282FD119480078012888
:103E200004D0022814D0032823D121E019480068C7
:103E300000F0D2FC04461B4A1B4B00F0A9FA03D148
:103E40001A481449086002E019481249086010E055
:103E50004FF07E510C48006800F01AFE03D115485F
:103E60000949086003E04FF07E500749086000E010
:103E700000BF00BF00210148017270BDFC0000209E
:103E800046000020840000204C0000208800002014
:103E900050000020480000206C0000200000484333
:103EA000700000207B14AE47E17A843FCDCCCC3D3E
:103EB0000AD7233C0000204110B5FFF763FDFFF750
:103EC0001BFF00F021F810BDFCF74CFFFFF746FB8D
:103ED000FEF7CAFCFEF7B6FDFEF756FEFEF792FEB1
:103EE000FEF798FFFEF7B2FFFEF718FEFEF726FF7B
:103EF000FEF78AFDFEF7C4FEFEF7FAFE00F022F997
:103F000001E0FFF7D9FFFCE738B57E4800780128CB
:103F100004D002284BD0032848D19CE00C237AA27D
:103F200000210846FFF77EF90C2378A200215420D7
:103F3000FFF778F90C2004230090754800210268EF
:103F40001820FFF733F90C2372A219460020FFF75F
:103F500069F90C20052300906F480C210268182095
:103F6000FFF724F90C236DA218210020FFF75AF95E
:103F70000C20052300906A48182102680846FFF7C4
:103F800015F90C2367A224210020FFF74BF966489E
:103F9000006800F0B1FD04460C20032322462421D2
:103FA00000900846FFF702F9FFF75CF8A7E00C2342
:103FB00055A200210846FFF735F90C235BA200212A
:103FC0005420FFF72FF90C200423009050480021C3
:103FD00002681820FFF7EAF80C234EA219460020C9
:103FE000FFF720F90C20052300904B480C210268B4
:103FF0001820FFF7DBF80C2348A218210020FFF758
:1040000011F90C2005230090454818210268084644
:10401000FFF7CCF80C2346A224210020FFF702F979
:104020000C20032300904348242102680846FFF730
:10403000BDF80C2340A230210020FFF7F3F80C203C
:10404000032300903D48302102682420FFF7AEF89A
:10405000FFF708F853E00C232BA200210846FFF7D6
:10406000E1F80C2336A200215420FFF7DBF80C20E6
:10407000042300902648002102681820FFF796F8D4
:104080000C2324A219460020FFF7CCF80C200523AE
:10409000009021480C2102681820FFF787F80C23B4
:1040A0001EA218210020FFF7BDF80C200523009068
:1040B0001B48182102680846FFF778F80C231CA259
:1040C00024210020FFF7AEF80C20032300901948AC
:1040D000242102680846FFF769F80C2316A2302154
:1040E0000020FFF79FF80C20032300901348302195
:1040F00002682420FFF75AF8FEF7B4FF00BF00BFA4
:1041000038BD000046000020563A0000565000001E
:1041100074000020454C3A002400002045523A002B
:104120002800002056503A006C0000204750000044
:1041300047503A008400002047443A00880000209D
:104140004744000010B51648FDF782FB1548FDF7FF
:104150007FFB1548FDF77CFB00211448FDF744FF69
:1041600000211348FDF740FF00211248FDF706FD2E
:1041700004211048FDF702FD00210F48FDF7FEFC69
:1041800004210D48FDF7FAFC32220C490C48FEF7D9
:1041900042F8FEF7E1FEFEF779FEFCF7DFF810BD0E
:1041A00088060020A80700206007002040060020A5
:1041B000F0070020D006002018070020080100208A
:1041C0008008002021F00042A2F16052B2F5801F69
:1041D00001F0004328BFD2F17F6C0BD95FEA001CCD
:1041E00043EAC20242EB507018BF704728BF20F06C
:1041F00001007047B2F5801FBCBF184670474FEAF8
:10420000410C1CF5001F02D2084600F0A4BD70B599
:1042100000F0A4F900000089FFF7F6BF4FF000405E
:10422000A0F580007047000010B591EA030F48BF69
:1042300083F0004300F1EE81841A71EB030C05D288
:10424000121943EB0C03001B61EB0C01DFF824E1B6
:104250004FEA1154A4EB135C1EEA430F18BF9EEA09
:10426000445F73D023EA0E03DCF1200E21EA0451EF
:1042700043F4801332D322FA0CFE10EB0E0023FA23
:104280000CFE41EB0E01CCF1200E03FA0EFE10EBFA
:104290000E0051F10001B1F5801FCCF1200E32D299
:1042A00001EB045112FA0EF2BDE8104058BF7047FE
:1042B000401C38BF5FEA420218BF7047002814BF95
:1042C00020F0010041F100014FEA410313F5001F06
:1042D00038BF7047A1F1C04100F08EB9012A43EB0D
:1042E0000302ACF1200CDCF11F0E32BF4FF0000EC8
:1042F00023FA0CF310EB030041EB0451B4EB115F14
:10430000D0D0A1EB045101F5801149085FEA3000DB
:1043100001EB04510ED350F1000038BF12FA0EFE2B
:1043200008D1BDE81040C9E7401C38BF5FEA42022F
:10433000CAD1C3E7BDE810404FEA410313F5001F9F
:1043400038BF7047A1F1C04100F056B99EEA445F02
:1043500008D011EA5E0FBDE8104004BF01F0004133
:1043600000207047BDE8104070B500F0F7F800BFBE
:1043700064FBBE3E0000E0FF491058BFC1F1404160
:104380005B1058BFC3F140438B42EFF3008070478E
:1043900051EA030C17D41CF5801F58BFBCF5801FD1
:1043A00000F10680994218BF704708BF90427047DD
:1043B00007D711F5801F58BF13F5801F19D49942F4
:1043C0007047894270471CF5801F08D5BCF5801FD7
:1043D000F7D58B4218BF704708BF824270474FF431
:1043E000001C1CEB410F38BF1CEB430F01D28B426A
:1043F000704770B500F0B2F8922449004FF00051B8
:104400004FF08053FFF7B8BFDFF848C170B51CEA22
:10441000111E1EBF1CEA13159EEA0C0F95EA0C0F25
:1044200000F06F8081EA030423EA4C134EEAD47E45
:1044300021EA4C1141F4801143F48013AE44A1FBF6
:10444000024CA0FB0365AEF17F7E361955EB0C05DF
:10445000A1FB034C4CF10003A0FB021C16EB0C0665
:10446000654153F10003094218BF46F0010613F4F9
:10447000007F0BD14FEA03314FEA0530340341EAA4
:10448000155140EA16506FF003020AE04FEAC321CB
:104490004FEAC520F40241EA555140EA56506FF008
:1044A000020202EB2E4201EB025585EACE710AD0E0
:1044B0005FEA440C18BF24F0004450F1000041F1C1
:1044C000000120EAD47040F2FE7C624500D270BD4B
:1044D000A84214BF4FF080444FF04044002E08BF64
:1044E0000024BEF1806FA8BFA1F1C041BDE87040BB
:1044F00080F282804FF0000001F1C04101F00041E4
:1045000070479EEA0C0F0CEA131518BF95EA0C0FC2
:1045100006D04FF0000081EA030E0EF0004170BD9E
:1045200000F01CF88900013E00F007B800F009B85F
:104530004FEA430C5FEA5C5C08D081EA030100F0BB
:104540005BB84FEA410C5FEA5C5CF6D14FF00000CB
:10455000014970470000FF070000F87F0EF1020ECE
:104560002EF0030E5EF8046B364205D4012A43EBAD
:10457000030515F5001F12D8012841EB010C1CF5AD
:10458000001F0CD80ED14FEAD17C15F5001F0CEBA3
:104590004C0C0CF1020C08BF4CEBD37C04E04FF048
:1045A000080C01E04FEAD37C0CEB4C0526FA05F62B
:1045B00006F00706B6F1040C06D20EEB860CBDE839
:1045C00070404CF0010C6047DFE80CF0090B020270
:1045D0004FF000414FF00000A1F5002170BD1946D9
:1045E0001046012851EB010418BFD4F5001484BF14
:1045F000002001F0004170BD0808A0F500114FEA4D
:104600003101704710B591EA030F48BF83F00043B2
:104610003FF512AE841A71EB030C07D212198CF01D
:10462000004C43EB0C03001B61EB0C01DFF8A4E131
:104630004FEA1154A4EB135C1EEA430F18BF9EEA25
:10464000445F00F0B08023EA6E03524221EA045135
:10465000C3EB6E0338BF5B1EDCF1200E25D322FABC
:104660000CFE10EB0E0043FA0CFE41EB0E01CCF1F8
:10467000200E03FA0EFE10EB0E0051F10001CCF1FA
:10468000200E29D412FA0EF201EB0451BDE81040BD
:1046900058BF7047401C1CBFB2F1004F7047002844
:1046A0000CBF491C20F00100704712EB020E43EBD7
:1046B000030218BF4FF0010E4EEA4202ACF1200C8B
:1046C000DCF11E0E54D943FA0CFE10EB0E0051F132
:1046D000FF31CCF11E0ED5D50EF1010E12FA0EFEF1
:1046E000404141EB010101EB445C5FEA5C5C10D9A5
:1046F00010EBDE7001EB045138BFBEF1004FBDE896
:10470000104018BF704700280CBF491C20F0010062
:10471000704730D24FEAD42C11F5001124F4006414
:104720001BD0B1FA81F20B3AA41AA41ED2F12003D5
:10473000914030FA03F31943904001EBCC71002C07
:1047400001EB0451BDE81040A8BF704701F1C04122
:104750004FF0000001F000417047B0FA80F310FA0A
:1047600003F100D110BDE41A173C4805C90AE4E77B
:1047700001EB045110BD491001EB0451BDE810409C
:104780004FEA300002E04FF0000170474A0008BFD6
:104790000042F8D0B2F5001F28BF704701F0004179
:1047A0004FF0000070479EEA445F07D011EA5E0FA9
:1047B000BDE8104004BF002100207047BDE8104054
:1047C00070B5FFF7CBFE00BF40DFF63E83F000413F
:1047D000104670470000E0FF43004FEAD30C4FEA59
:1047E0003C0C43401FBF40070CF1605113F0FE4FDB
:1047F00070471CF0006F03D100200CF0004170479F
:104800000CF0004343EA507010B540EACC0000F0D1
:104810005CFA00BF000000924FEA0001FFF7ECBE17
:104820004FF000414FF00000A1F50021704700005B
:1048300090EA010F48BF81F0004100F1CA82421A9C
:104840003CBF801A89184FEAD0524FF07F4C1CEAC7
:10485000410FA2EBD15318BF9CEA026F00F03B80DE
:104860004FF0004C4CEA00204CEA012121FA03FCF5
:1048700010EB0C0C1ED202F1FF325FEA1C2040EB61
:10488000C25038BF70471CF07F0F4FEA400C18BF72
:10489000BCF17F4F38BF7047C3F12003994008BF78
:1048A00020F00100BCF17F4F38BF7047A0F1C0403D
:1048B00000F051BA4FEA3C00000A40EBC25028BF5A
:1048C0001CF0FF0F4FEA400CE6D018BFBCF17F4F41
:1048D00038BF7047EAE79CEA026F05D010EA5C0F28
:1048E00008BF00F00040704710B500F0EEF900BFBF
:1048F00064FBBE3E401058BFC0F14040491058BF55
:10490000C1F140418142EFF3008070474FF47F0CCA
:104910001CEAD0121EBF1CEAD11392EA0C0F93EAD4
:104920000C0F00F0858090EA010F48BF42F48072BE
:1049300040F4000C41F400002CF07F4120F07F4057
:1049400000B58142A2EB03020FF2081CACEB504E03
:10495000C0F100009EF800E04FEA4E0E00FB0EFC96
:1049600038BF49004FEA2C1C02F5FA020CFB0EF38B
:104970004FEACE1E4FEA112C4FEAC1210EEB635EC7
:1049800042EB22420EFB0CFC4FEA1C5300FB0311CE
:104990004FEA112C4FEA01310EFB0CFC4FEADC4CC4
:1049A00000FB0C11C14228BF09184CEB03335DF822
:1049B00004EB10EB410143EBC250B2F57C0F38BF62
:1049C000704729D512F0F00F1CBF00F1C04000F075
:1049D00000407047008182838485868788898B8C1C
:1049E0008D8E8F919293959697999A9C9D9FA0A258
:1049F000A3A5A7A8AAACAEB0B2B3B5B7B9BCBEC0A8
:104A0000C2C5C7C9CCCED1D4D7D9DCDFE2E6E9EC48
:104A1000F0F3F7FAFE0000004FEA400C0CF1807C46
:104A2000BCF17E4F28BF7047B0F1C04000F093B991
:104A300090EA010F0CEAD11348BF42F4807262453C
:104A400038BF634507D213F47F0F16D080EA010008
:104A500000F00040704710B500F037F9097EFC3EC9
:104A600000F005B880EA010000F00040704780EADD
:104A7000010000F0004000F06EB912F47F0F04BF97
:104A80000248704780EA010000F065B90000C07F6D
:104A900050EA010C00F113801CF5000F58BFBCF563
:104AA000000F01D48842704707D710F5000F58BF98
:104AB00011F5000F15D488427047894270471CF5E4
:104AC000000F04D5BCF5000FF7D5814270474FF0B9
:104AD000807C1CEB400F38BF1CEB410F01D28142A0
:104AE000704710B500F0F1F8922449004FF00050E3
:104AF0004FF08051FFF7FEBE41000B0ED3F19E0236
:104B000008D950F400034FEA032323FA02F048BF08
:104B10004042704710B500F0D8F800BF4992248099
:104B2000002070476FF0004282EA200070470000CA
:104B300010F0004148BF4042B0FA80F310FA03F28F
:104B4000C3F19D030BD051EAC35101EB1220530670
:104B500038BF704700F1010008BF20F00100704726
:104B600050EA010C00F113801CF5000F58BFBCF592
:104B7000000F01D48842704707D710F5000F58BFC7
:104B800011F5000F15D488427047894270471CF513
:104B9000000F04D5BCF5000FF7D5814270474FF0E8
:104BA000807C1CEB400F38BF1CEB410F01D28142CF
:104BB000704710B500F089F8922449004FF000507A
:104BC0004FF08051FFF796BE4FF47F0C1CEAD012D5
:104BD0001EBF1CEAD11392EA0C0F93EA0C0F00F0EF
:104BE000478090EA010F48BF42F480724FF0004CBA
:104BF0004CEA00204CEA012102EB0302A0FB011366
:104C0000A2F50002002918BF43F001035B0028BF92
:104C10004FEA330342EB22425FEA132C4CEBC250C3
:104C20002EBFBCEB436FB2F57C0F70474FEA036CAD
:104C3000BCF1004F08BF20F00100B2F57C0F38BF77
:104C400070470BD582F0FF0212F5803FC8BF704756
:104C500000F1C040D8BF00F00040704700F5000CE4
:104C60005FEA4C0C48BF7047B0F1C04000F073B829
:104C700090EA010F0CEAD11348BF42F480726245FA
:104C800038BF634504D280EA010000F0004070475D
:104C900010B500F01AF800BF8900013E00F007B817
:104CA00000F009B85FEA410C5FEA1C6C08D080EAAA
:104CB000010000F050B85FEA400C5FEA1C6CF6D1CE
:104CC0004FF00040A0F5800070470EF1020E2EF06C
:104CD000030E5EF8044B244204D44FEA4102B2F1C1
:104CE0007F4F11D84FEA4003B3F17F4F0CD80ED15C
:104CF0004FEAD07CB2F17F4F0CEB4C0C0CF1020C64
:104D000008BF4CEBD17C04E04FF0080C01E04FEA07
:104D1000D17C0CEB4C0324FA03F404F00704B4F147
:104D2000040C06D20EEB840CBDE810404CF0010CD4
:104D30006047DFE80CF0070802024FF00040A0F5E2
:104D4000800010BD0846420018BFD2F1807288BFB3
:104D500000F0004010BDFF2141EAD050C00570476F
:104D600051EA000C00F113801CF5000F58BFBCF590
:104D7000000F01D48142704707D711F5000F58BFCB
:104D800010F5000F15D481427047894270471CF519
:104D9000000F04D5BCF5000FF7D5884270474FF0DF
:104DA000807C1CEB410F38BF1CEB400F01D28842C6
:104DB000704780EA010081EA000180EA0100FFF704
:104DC000F8BE000090EA010F48BF81F000413FF5B6
:104DD00036AD421A04D882F00042A0EB0200114422
:104DE0004FEAD0524FF07F4C1CEA410FA2EBD15357
:104DF00018BF9CEA026F4AD04FF0004C4CEA0020EA
:104E00004CEA012121FA03FCB0EB0C0C0FD412F098
:104E1000FE0F36D05FEA4C001DD5001240EBC250A9
:104E200038BF70471CF03F0F18BF70470BE0A2F16E
:104E300001025FEA1C2040EBC25038BF70471CF0F3
:104E40007F0F18BF7047C3F12003994014BF401E65
:104E500020F00100704780084FEA122308BF704716
:104E6000B0FA80FCA2EB0C02CCF1280C60FA0CF03A
:104E700093EA122F04BF00EBC25070474FEAC37091
:104E80007047130A5FEADC1008BF7047F6E79CEA38
:104E9000026F04D010EA5C0F08BF0020704710B505
:104EA000FFF713FF40DFF63E81F00040704700003F
:104EB00000000000000000000000000000003F4073
:104EC0000000000000000000300040003000400002
:104ED000000009000BC03D000BC03D00090018C0D8
:104EE00024407FE0224031800000180024C01B00D5
:104EF0000D803240018003801C4027401C80074009
:104F000000401000600000000000000000000000F1
:104F1000000000001F802040402000004020204072
:104F20001F8000000000090006001F800600090025
:104F30000000040004003F80040004000000001092
:104F400000600000000000000000040004000400F5
:104F50000400040000000000004000000000000009
:104F60000000002001C006003800400000001F8043
:104F70002040204020401F800000000010403FC023
:104F800000400000000018C021402240244018408A
:104F9000000010802040244024401B8000000200BC
:104FA0000D0011003FC0014000003C80244024401F
:104FB0002440238000001F8024402440344003808C
:104FC00000003000200027C03800200000001B80B7
:104FD0002440244024401B8000001C0022C02240AA
:104FE00022401F8000000000000008400000000078
:104FF000000000000000046000000000000000004D
:1050000004000A0011002080404009000900090046
:1050100009000900000000004040208011000A0043
:1050200004001800200023402400180000001F8006
:105030002040274029401F400000004007C03900A1
:105040000F0001C0004020403FC0244024401B808E
:1050500000001F8020402040204030800000204081
:105060003FC0204020401F80000020403FC024401F
:105070002E4030C0000020403FC024402E003000B1
:1050800000000F00108020402240338002002040AA
:105090003FC0040004003FC02040204020403FC0EB
:1050A0002040204000000060202020203FC0200041
:1050B000200020403FC024400B0030C02040204052
:1050C0003FC020400040004000C03FC03C0003C043
:1050D0003C003FC0000020403FC00C4023003FC0C8
:1050E00020001F802040204020401F8000002040E2
:1050F0003FC024402400180000001F8021402140B0
:1051000020E01FA0000020403FC02440260019C01E
:10511000004018C02440244022403180000030006C
:1051200020403FC020403000000020003F80004071
:1051300000403F80200020003E0001C007003800F2
:105140002000380007C03C0007C0380000002040A5
:1051500039C0060039C0204000002000384007C098
:10516000384020000000304021C02640384020C098
:105170000000000000007FE0402040200000000010
:1051800070000C0003800040000000004020402020
:105190007FE0000000000000200040002000000030
:1051A000000000100010001000100010001000009F
:1051B00000004000000000000000000002800540E8
:1051C000054003C0004020003FC00440044003806D
:1051D000000000000380044004400640000000007E
:1051E0000380044024403FC000400000038005408D
:1051F000054003400000000004401FC0244024403C
:105200002000000002E00550055006500420204018
:105210003FC00440040003C000400000044027C019
:1052200000400000000000100010041027E0000003
:10523000000020403FC00140070004C0044020405F
:1052400020403FC000400040000007C0040007C0ED
:10525000040003C00000044007C00440040003C071
:10526000004000000380044004400380000004105C
:1052700007F0045004400380000000000380044055
:10528000045007F00010044007C00240040004006E
:105290000000000006400540054004C0000000007A
:1052A00004001F800440004000000400078000400C
:1052B000044007C000400400070004C0018006004D
:1052C0000400060001C0070001C006000000044001
:1052D00006C0010006C0044000000410071004E0EE
:1052E0000180060004000000044005C006400440A0
:1052F00000000000000004007BE0402000000000EF
:1053000000000000FFF000000000000040207BE0F3
:105310000400000000004000800040002000200049
:10532000400000000000000000000000000000003D
:1053300000000000000000001FCC000C0000000076
:10534000000000000800300060000800300060002D
:105350000000022003FC1E20022003FC1E2002206D
:10536000000000000E1811043FFF10840C780000AC
:1053700000000F0010840F3800C0077818840078F0
:10538000000000780F8410C411240E9800E40084FB
:105390000008080068007000000000000000000025
:1053A000000000000000000007E018182004400280
:1053B0000000000040022004181807E00000000070
:1053C00000000240024001800FF0018002400240D4
:1053D00000000080008000800FF8008000800080C6
:1053E00000000001000D000E0000000000000000A1
:1053F00000000000008000800080008000800080AD
:1054000000800000000C000C000000000000000004
:10541000000000000006001800600180060018006F
:105420002000000007F0080810041004080807F026
:1054300000000000080408041FFC00040004000031
:10544000000000000E0C10141024104411840E0CE7
:10545000000000000C1810041104110412880C70D4
:105460000000000000E00320042408241FFC0024A6
:10547000000000001F98108411041104108810709F
:105480000000000007F0088811041104188800705B
:10549000000000001C00100010FC13001C00100095
:1054A000000000000E3811441084108411440E389E
:1054B000000000000700088C10441044088807F022
:1054C0000000000000000000030C030C00000000BE
:1054D00000000000000000010106000000000000C4
:1054E00000000000008001400220041008081004A1
:1054F00000000220022002200220022002200220BE
:105500000000000010040808041002200140008080
:10551000000000000E001200100C106C10800F0034
:10552000000003E00C1813E4142417C4082807D063
:1055300000000004003C03C41C40074000E4001CC1
:10554000000410041FFC1104110411040E880070E3
:10555000000003E00C1810041004100410081C10C4
:10556000000010041FFC100410041004080807F0C9
:10557000000010041FFC1104110417C410040818C3
:10558000000010041FFC1104110017C010000800D7
:10559000000003E00C181004100410441C780040B4
:1055A000000010041FFC10840080008010841FFC89
:1055B00010040000100410041FFC1004100400006C
:1055C000000000030001100110011FFE1000100078
:1055D000000010041FFC110403801464181C100444
:1055E000000010041FFC1004000400040004000C60
:1055F000000010041FFC1F0000FC1F001FFC100413
:10560000000010041FFC0C04030000E010181FFC35
:10561000100007F00808100410041004080807F030
:10562000000010041FFC10841080108010800F00F8
:10563000000007F0081810241024101C080A07F2B4
:10564000000010041FFC1104110011C011300E0CD9
:10565000000400000E1C11041084108410441C3837
:1056600000001800100010041FFC100410001800A7
:10567000000010001FF810040004000410041FF8BC
:10568000100010001E0011E0001C007013801C00B0
:1056900010001FC0103C00E01F0000E0103C1FC0C5
:1056A00000001004180C163401C001C01634180C88
:1056B000100410001C00130400FC13041C00100054
:1056C00000000804101C1064108413041C0410183B
:1056D00000000000000000007FFE40024002400287
:1056E0000000000030000C0003800060001C00037C
:1056F000000000004002400240027FFE0000000067
:105700000000000000002000400040004000200099
:105710000000000100010001000100010001000182
:1057200000010000400040002000000000000000D8
:10573000000000000098012401440144014400FCE1
:10574000000410001FFC00880104010400880070A0
:1057500000000000007000880104010401040088BA
:1057600000000000007000880104010411081FFC03
:105770000004000000F8014401440144014400C851
:1057800000000000010401040FFC110411041100C9
:105790001800000000D601290129012901C90106CC
:1057A000000010041FFC008401000100010400FC43
:1057B000000400000104190419FC000400040000A6
:1057C00000000000000300010101190119FE0000A2
:1057D000000010041FFC0024004001B4010C01046F
:1057E00000000000100410041FFC0004000400006E
:1057F0000000010401FC0104010001FC010401009E
:1058000000FC010401FC008401000100010400FC13
:105810000004000000F8010401040104010400F880
:105820000000010101FF00850104010400880070EF
:10583000000000000070008801040104010501FF60
:1058400000010104010401FC008401040100018045
:105850000000000000CC012401240124012401984F
:10586000000000000100010007F80104010400002D
:105870000000010001F8000400040004010801FC1C
:105880000004010001800170000C00100160018023
:10589000010001F0010C003001C00030010C01F0EA
:1058A000010000000104018C00740170018C0104EE
:1058B0000000010101810171000E001801600180EA
:1058C000010000000184010C013401440184010C39
:1058D0000000000000000000000001003EFC40024B
:1058E00040020000000000000000FFFF0000000078
:1058F00000000000400240023EFC010000000000E9
:105900000000000060008000800040004000200097
:105910002000000000000000000000000000000067
:105920000000000000000000000000000000000077
:105930000000000000000000000000000000000067
:1059400000000000000F80380FFE380F8038000084
:105950000000000000000000000000000000000047
:105960000100000600000C000038000031000006B5
:1059700000000C00003800003000000000000000B3
:10598000000061800067F807F98000618000618095
:105990000061800061800067F807F9800061800085
:1059A000000000000000000001C0E003E0F006304D
:1059B000080418081FFFFE040E080787F00381E0A3
:1059C00000000000000001F000060C0004040806BE
:1059D0000C7001F9C0000E00003BE000EC18070855
:1059E00008040C180003E00000000001E00007F0CC
:1059F00003F818041C0804170807E1D003C0E000EE
:105A000023B0003C08002008000010000000000047
:105A1000000100003100003200001C000000000006
:105A20000000000000000000000000000000000076
:105A30000000000000000000000000000000000066
:105A400000007F0001FFC00780F00C001810000468
:105A50002000020000000000002000021000040CE2
:105A600000180780F001FFC0007F00000000000068
:105A700000000000000000000000000000004200E4
:105A8000006600006600003C0000180003FFC00034
:105A90001800003C000066000066000042000000A4
:105AA00000000800000800000800000800000800CE
:105AB00001FFC00008000008000008000008000006
:105AC000080000000000000100003100003200006A
:105AD0001C000000000000000000000000000000AA
