:020000040800F2
:1000000020100020ED01000885470008F73E000899
:100010003D460008FB130008B95600080000000028
:10002000000000000000000000000000294E000851
:100030009D140008000000002D4D0008314F0008FD
:10004000070200080702000807020008070200086C
:10005000070200080702000807020008070200085C
:10006000070200080702000807020008070200084C
:10007000070200080702000807020008070200083C
:10008000070200080702000807020008070200082C
:10009000070200080702000807020008070200081C
:1000A000070200080702000807020008070200080C
:1000B000A14F000807020008070200080702000815
:1000C00007020008070200080702000807020008EC
:1000D000070200088D5600089D5600080702000818
:1000E00007020008070200080702000807020008CC
:1000F00007020008070200080702000807020008BC
:100100000702000807020008B14F000807020008B4
:100110000702000807020008C14F00080702000894
:10012000070200080702000807020008070200088B
:1001300000F002F800F04AF80AA090E8000C8244AF
:100140008344AAF10107DA4501D100F03FF8AFF28C
:10015000090EBAE80F0013F0010F18BFFB1A43F0A5
:1001600001031847708F0000908F0000103A24BFE1
:1001700078C878C1FAD8520724BF30C830C144BF0C
:1001800004680C607047000000230024002500264E
:10019000103A28BF78C1FBD8520728BF30C148BFEA
:1001A0000B607047662906F02286642900F05280B1
:1001B000002070471FB500F0F3FB04000020002171
:1001C00005F018FEE0601FBD10B510BD00F0E4FCA6
:1001D0001146FFF7EFFF05F013FC00F002FD03B43A
:1001E000FFF7F2FF03BC00F047FD0000094880471D
:1001F00009480047FEE7FEE7FEE7FEE7FEE7FEE709
:10020000FEE7FEE7FEE7FEE704480549054A064B20
:10021000704700009F4F000831010008200A0020AD
:1002200020100020200C0020200C00200FB41CB552
:10023000074B06AA7B4469460090059800F097FB9F
:100240000020694600F0A6FB1CBC5DF814FB000012
:100250005D0700002DE9F04106460024106875296D
:10026000314616A510D0AFF30080002802DA4042D4
:1002700013A507E031688A0701D512A502E04907F6
:1002800004D511A5012401E0AFF3008000210A226A
:1002900006F1240709E0B0FBF2FCB0FBF2F302FB2D
:1002A0001C00303078541846491C0028F3D12346EE
:1002B0002A463046BDE8F04100F0EDB800000000ED
:1002C0002D0000002B000000200000002DE9F05F51
:1002D000894604464FF0000ADFF824B1FB44C0F819
:1002E00020A02046E168884700287DD0252806D038
:1002F000D4E901219047206A401C2062F1E70025E3
:100300005F462046E16888472028064607DB312EF5
:1003100005D2B81910F8200C08B10543F1E7A80779
:1003200001D525F00405C4F81CA00027C4F818A0C6
:100330002A2E09D0304605F0FFF938B304EB8708C0
:10034000303EC8F8186019E059F8041B204604EB49
:1003500087029161E1688847012F064618D1E0695C
:10036000002820DA25F020051DE0D8F8180000EB61
:10037000800006EB40003038C8F818002046E168DD
:100380008847064605F0D8F90028EED1012F0AD09B
:100390002E2E08D12046E16888477F1C0646022F92
:1003A00045F02005C4DBA069002803DA404245F08F
:1003B0000105A061E80701D025F01005A6B1A6F15E
:1003C0004100192802D8203645F400654A463146D6
:1003D000204625604D46FFF7E5FE60B1012807D0B5
:1003E000ED1D25F0070000E007E000F1080978E7BF
:1003F00005F1040975E730467AE7206ABDE8F09F09
:100400004C8D000010B5431C02E010F8011B71B1C7
:100410008107FAD14FF0013202C88C1A8C4314EADA
:10042000C211F9D0C01A0A0603D0C01E10BDC01AEE
:1004300010BD0A0401D0801E10BD0902FCD0401E70
:1004400010BD4FF0000200B5134694469646203981
:1004500022BFA0E80C50A0E80C50B1F12001BFF47D
:10046000F7AF090728BFA0E80C5048BF0CC05DF8E3
:1004700004EB890028BF40F8042B08BF704748BF31
:1004800020F8022B11F0804F18BF00F8012B7047A5
:100490007047704770472DE9F0470D4699469246E0
:1004A000044600F124080168880604D5E06921F0BB
:1004B0001001216000E00120A84201DD471B00E09F
:1004C0000027A1697A1902EB0900081AA0612078B7
:1004D000C00602D42046AFF30080002608E0D4E92D
:1004E00001211AF806009047206A401C761C206201
:1004F0004E45F4DB2078C0060AD52046AFF30080D5
:1005000006E0D4E9012130209047206A401C206297
:10051000381EA7F10107F4DC07E0D4E9012118F83F
:1005200005009047206A401C2062281EA5F10105A5
:10053000F3DC2046AFF300802078000602D50220CD
:10054000BDE8F0870120FBE770472DE9FF4F0C461F
:100550001E464FF0FF378BB0D2E90001DDF8608016
:100560000A908A46C1F30A5505B93D46002108465E
:100570004FF00000BAF1000F00F4400005DA00EB84
:1005800080004FF4400101EA50004FEA9059B9F160
:10059000010F00DDB9460A9850EA4A000ED044F631
:1005A0001050A5F2FF3545432F14B8F1000F1ED0AF
:1005B0007542291E1EDDC9F100021CE0B8F1010FD1
:1005C0004FF0000001D0302103E0F24305E0215458
:1005D000401CB042FBDB30460022002121540B9925
:1005E000C1F80880C1E900200FB0BDE8F08FBD1B45
:1005F0006D1CDEE74A4600DA694206A800F05AFAA6
:1006000006AB93E8070003AB83E8070050460A995E
:1006100000F038FB8DE80700A0F500501F3800906F
:100620000398002D09DD42F21F014A46084403A940
:100630000390684600F097FD08E0A0F500504A4698
:100640001F3803A90390684600F0A1FD8DE807005C
:100650000004000C03D04FF0FF30410800E01046CA
:10066000B8F1000F03D00022009215461EE0751E5F
:1006700005D400F099F9303262556D1EF9D5B346B4
:100680000122084302D000227F1C04E02078302899
:1006900001D100227F1E002A099786D01DE0112D6E
:1006A00007DA00F081F9303262556D1C50EA010220
:1006B000F5D1084302D00098C8B10EE00021681EB1
:1006C00005E0235C625C63542254401E491C814255
:1006D000F7DBAB46A81B401E0990002004F80B0076
:1006E0000B98099AC0F80880C0E9002B7CE7112616
:1006F0004FF0000859E72DE9F04F88460446D21D17
:1007000022F0070191B0D1E90001CDE90A0104F01E
:10071000E3FF02460B98C00F01D02D2007E02068B0
:10072000810701D52B2002E0202101EAC000032A25
:10073000099001D0072A05DB03464146204600F018
:1007400079F90BE12078800601D5E06900E0062008
:10075000B8F1650F814606D0B8F1660F18D0B8F130
:10076000670F70D131E00020B9F1110F009001DB6B
:10077000112301E009F101030AAA01A90CA8FFF75E
:10078000E4FEDDE90C70002609F10105834647E02F
:1007900001204B4600904FF000470AAA01A90CA87F
:1007A000FFF7D3FEDDE90DB00C995D46002610B9C8
:1007B00009F101000D18B9EB050003D4C0F1FF36B3
:1007C00009F10105A5EB09002BE0B9F1010F01DAF0
:1007D0004FF001090020B9F1110F0090484601DDEA
:1007E000112300E003460AAA01A90CA8FFF7ADFEF9
:1007F000DDE90C704D4600268346207800070AD4B8
:10080000AB4500DA5D4601A8012D04DD411911F860
:10081000011C302907D04F4502DA17F1040F04DA22
:10082000012082460FE06D1EEEE7002F02DCED1B7B
:100830003E4403E0781CA84200DD7D1CB81B00F19B
:10084000010A4FF000472078000703D4AA4501DBD6
:100850004FF0FF3A0021B7F1004F0DF143088DF83A
:10086000431024D002202B23002F01DA7F422D23B6
:100870000A21021EA0F1010000DC5FB197FBF1FC30
:1008800097FBF1F201FB1C7C17460CF1300C08F8C9
:1008900001CDEEE7A8F1010003702188090501D51B
:1008A000452100E06521A0F1010800F8011C09982C
:1008B0000FA9A1EB0807FF1D00B10120411901EBB1
:1008C000EA70A1693844081A401EA0612078C00669
:1008D00002D42046AFF30080099828B1D4E9012161
:1008E0009047206A401C20622078C00622D520460E
:1008F000AFF300801EE0002E04DBB34502DD01A84B
:10090000805D00E03020D4E901219047206A401C3E
:100910002062761CAAF101005FEA000A0AD100F009
:100920003FF8C0680168405CD4E901219047206A23
:10093000401C2062281EA5F10105DCDC07E0D4E99B
:10094000012118F8010B9047206A401C2062381ED4
:10095000A7F10107F3DC2046AFF30080032011B0BC
:1009600043E6000001694A1C02610878704700B53F
:100970008FB0CDE901310021059105497944CDE9D8
:10098000031011466846FFF7A1FC0FB000BD000040
:10099000E5FFFFFF0A6802F8010B0A6070470000DC
:1009A00000487047DC09002030B5B0F10A024FEA78
:1009B000900E71F100034EEA817EB0EB0E0061EB08
:1009C00091014FEA101E4EEA017E10EB0E0041EB42
:1009D00011114FEA102E4EEA016E10EB0E0041EBA2
:1009E00011214FEA104E4EEA014E10EB0E0041EB82
:1009F0001141401841F100014FEAD00040EA417036
:100A00004FEAD10110EB80054FEA810444EA90746B
:100A100044EB01046D1944EB0404521BA3414FF055
:100A2000000348BF0A3200D530BD401C41F100012F
:100A300030BD00002DE9F0411F4604460326016841
:100A4000072A01F4006004DB08B116A505E016A52D
:100A500003E008B115A500E015A521F01000206005
:100A6000A069C01EA0610FB1401EA0612046AFF377
:100A700000804FB1D4E9012138469047206A401CDC
:100A80002062C01C206206E0206AFAE7D4E9012156
:100A900015F8010B9047761EF8D22046AFF3008080
:100AA000BDE8F0814E414E006E616E00494E460039
:100AB000696E66002DE9F047814616468AB03348D4
:100AC00078440DC88DE80D0030487844801C03AC94
:100AD0000DC884E80D0041F69B300844372190FB97
:100AE000F1F290FBF1F5A5F1800501FB12041B3C2E
:100AF00002D56442012000E00020DFF890A080468B
:100B00000027FA44AAF1BE0A0DE0E00709D03246F8
:100B1000684607EB47010AEB810100F038FB8DE8DE
:100B2000070064107F1C002CEFD1184F7F44AC3FAE
:100B300018E0E80714D007EB04100DF1180A90E84C
:100B40000E008AE80E00C068F04201D198190890A2
:100B5000324606A903A800F01AFB03AB83E807009E
:100B60006D10641C002DE4D132466946B8F1000FC7
:100B700003A802D000F0F7FA01E000F008FBC9E991
:100B80000001C9F808200AB0BDE8F087F885000028
:100B900000487047BC0900207546FFF7F9FFAE46D4
:100BA00005006946534620F00700854618B020B579
:100BB000FFF72AFBBDE820404FF000064FF000078A
:100BC0004FF000084FF0000B21F00701AC46ACE8F5
:100BD000C009ACE8C009ACE8C009ACE8C0098D4662
:100BE000704710B50446AFF300802046BDE81040C2
:100BF000FFF7F5BA4FF0013C50F8042B51F8043BD5
:100C00009A4221D1A2EB0C03934313EACC1317D1E0
:100C100050F8042B51F8043B9A4215D1A2EB0C0377
:100C2000934313EACC130BD150F8042B51F8043B37
:100C30009A4209D1A2EB0C03934313EACC13DBD005
:100C40004FF00000704700BFD01A01BAB1FA81F12D
:100C500001F0180122FA01F0CB40C1F12001DBB212
:100C6000C0B2C01A2CFA01F3D11A914311EAC31190
:100C7000E6D170477047000001491820ABBEFEE77F
:100C8000260002005FEA400C08BF91F0000F4FEA17
:100C90008C234FEAC12243EA51514FEA1C5018BF3E
:100CA00000F5F0404FEA300018BF41F000415FEA24
:100CB0006C5C00F02980BCF1FF3F08BF40F0804031
:100CC0007047130C06BF12044FF0100C4FF0000CCD
:100CD000130E04BF12020CF1080C130F04BF120113
:100CE0000CF1040C930F04BF92000CF1020CD30F13
:100CF00004BF52000CF1010C11464FF00002A0F1AC
:100D00001F00A0EB0C00704711F0004F08BF7047A8
:100D100031F000413FF4D5AF0B0C06BF09044FF092
:100D2000100C4FF0000C0B0E04BF09020CF1080C64
:100D30000B0F04BF09010CF1040C8B0F04BF8900D9
:100D40000CF1020CCB0F04BF49000CF1010CCCF1EB
:100D50002003A0EB0C0022FA03F302FA0CF241EAA2
:100D6000030100F10100704720F07F4C80EA03008E
:100D700023F07F47ACEB070303F57C5300F0004002
:100D800003F1FF032DE980494FEA154B09B44FEAFF
:100D9000144325EA0B4E24EA03480FF2042606EB1F
:100DA000132749083E785FEA320203FB0667C7F55E
:100DB000000707FB06F64FEA54374FEAD64606F11E
:100DC000020607FB066CCCF1005C4FEA1C472CEADC
:100DD000074C07FB06F40CFB06F504EB15464FEA3F
:100DE000961634BF00204FF000404FEAD13706FB83
:100DF00007FC4FEA1C4C0CFB0BF7D21B03FB0CF758
:100E000061EB07010CFB0EF7B0EB074072EB1742EA
:100E10000CFB08F734BFA2EB0742B2EB074261EBD1
:100E200017414FEA0C444FEA910706FB07FC4FEAD3
:100E30001C4C0CFB0BF7B0EBC74072EB573203FBBB
:100E40000CF734BFA2EBC742B2EBC74261EB57319C
:100E50000CFB0EF7B0EBC70072EB57720CFB08F7F8
:100E600034BFA2EBC702B2EBC70261EB5771039F1D
:100E70004FEA816141EA921104EBCC044FEAD13789
:100E80004FEA826206FB07FC42EA90124FEA80605A
:100E90004FEA1C4C0CFB0BF7D21B03FB0CF761EB6E
:100EA00007010CFB0EF7B0EB074072EB17420CFB8F
:100EB00008F734BFA2EB0742B2EB074261EB1741E0
:100EC0004FEA8C554FEA910704EB9C2406FB07FC84
:100ED0004FEA1C4C0CFB0BF7B0EBC74072EB5732E0
:100EE00003FB0CF734BFA2EBC742B2EBC74261EB86
:100EF00057310CFB0EF7B0EBC70072EB57720CFBCF
:100F000008F734BFA2EBC702B2EBC70261EB57711F
:100F100015EB4C254FEA816141EA92114FEA82625A
:100F20004FEAD13742EA901206FB07FC44F1000475
:100F30004FEA80604FEA1C4C0CFB0BF7D21B03FB03
:100F40000CF761EB07010CFB0EF7B0EB074072EBFF
:100F500017420CFB08F734BFA2EB0742B2EB074283
:100F600061EB174115EB1C154FEA813141EA9241C3
:100F70004FEA823242EA90424FEA80304FEA0C76E2
:100F800044F1000448EA03434EEA0B484FF0000ED8
:100F9000B2EB080C71EB030724BF624639464EEBF7
:100FA0000E0E4FF0000B0018524149414BEB0B0B5A
:100FB000B2EB080C71EB03077BF1000B24BF624618
:100FC00039464EEB0E0E4FF0000B001852414941CE
:100FD0004BEB0B0BB2EB080C71EB03077BF1000B37
:100FE00024BF624639464EEB0E0E51EA020718BF87
:100FF00046F0010616EB0E7655F1000254F10001A1
:1010000003D5BDE88901BDE80088BDE88901BDE8D8
:101010000048B619524141EB0101A3F101037047A9
:1010200080807F7E7D7C7B7A797877767675747325
:10103000727171706F6E6E6D6C6C6B6A6A696868E4
:10104000676666656464636362616160605F5F5E7A
:101050005E5D5D5C5C5B5B5A5A59595858575756F0
:101060005655555554545353525252515150505055
:101070004F4F4F4E4E4D4D4D4C4C4C4B4B4B4A4AA7
:101080004A494949484848474747474646464545EB
:101090004544444444434343434242424241414124
:1010A000002B26D4770021D01CB54FEA370703B4B4
:1010B0004FF010004FF010014FF000000FBCBDE8E2
:1010C00010400BF1010BBBF1010F08BF5FEA1707DE
:1010D00022BF12F1010211F101014FF0004143F171
:1010E000000300F0004043EA00007047F9D35708BE
:1010F000DAE746EA064613F1400F4FEA16461FDDCF
:1011000013F1200FDFBF16430A46002120335B4254
:10111000C8D0C3F1200746EA064602FA07F74FEAAD
:10112000164646EA0706C3F1200722FA03F201FA3F
:1011300007F721FA03F14FF0000342EA0702B1E793
:1011400046EA020646EA06464FEA164646EA01061F
:10115000BCBF46EA0646360C4FF000034FF00002D3
:101160004FF000019EE72DE9C048934630B491E866
:10117000380007C831EA400C48BF34EA430C03D5B5
:10118000FFF7F2FDFFF78CFFF0BCBDE800882DE90A
:10119000C048934630B491E8380007C810F0804F3B
:1011A00008BF13F0804F03D100F005F8FFF778FF78
:1011B000F0BCBDE8008820F07F4780EA030023F000
:1011C0007F4C07EB0C03A3F57C5300F00040A3F128
:1011D000FE0392F0000F00F0B38095F0000F00F0D6
:1011E00077802DE901494FEA11404FEA144621EA80
:1011F000004800FB06FC24EA064708FB06F607FB4E
:1012000008F800FB07F718EB06484CEB164C4FEAC2
:10121000124B18EB07484FEA15464CEB174022EAF1
:101220000B4E0BFB06FC25EA06470EFB06F607FBFA
:101230000EFE0BFB07F71EEB064E4CEB164C4FF069
:1012400000061EEB074E4CEB174B18EB0B0840F15A
:10125000000018EB0E0B58EB000840F100008F1A4D
:101260004FF000013CBFC943661B14BFB5EB040C33
:1012700000213CBFC943F61B4FEA17444EEA8E0ECD
:1012800027EA04454FEA1C4704FB07622CEA074C97
:1012900005FB07F70CFB05F604FB0CFC16EB0746F9
:1012A00042EB174216EB0C4642EB1C421BEB0606C8
:1012B00058EB0202414146EA9E0601D5BDE801898C
:1012C000B619524141EB0101A3F10103BDE80189C7
:1012D0004FEA14454FEA114724EA054621EA074C34
:1012E00005FB07F406FB07F70CFB06F105FB0CFCFE
:1012F00011EB074144EB17444FEA124711EB0C4145
:1013000044EB1C4422EA074C05FB07F206FB07F7F7
:101310000CFB06F605FB0CFC16EB074642EB1742EE
:1013200016EB0C4642EB1C456A1854F1000148BF0D
:101330007047B619524141EB0101A3F10103704717
:1013400095F0000F37D04FEA11424FEA144721EAD7
:10135000024624EA074C02FB07F106FB07F70CFBE9
:1013600006F402FB0CFC14EB074441EB17414FEA77
:10137000154714EB0C4441EB1C4125EA074C02FBDA
:1013800007F506FB07F70CFB06F602FB0CFC16EB59
:10139000074645EB174516EB0C4645EB1C42121968
:1013A00051F1000148BF7047B619524141EB0101AC
:1013B000A3F1010370474FEA14454FEA114724EAAD
:1013C000054621EA074C05FB07F106FB07F70CFB76
:1013D00006F24FF0000605FB0CFC12EB074241EB56
:1013E000174112EB0C4251EB1C4148BF7047921859
:1013F00041EB0101A3F10103704700BFFEE70000CC
:1014000010B501222021024800F0AAFE10BD000004
:101410000010014000200849086008490860084998
:101420000860084908604FF4487007490860404266
:1014300006490860704700006C0000207000002022
:101440008C0000209000002030000020340000209C
:1014500010B50C48027804210B4800F081FE0B48BF
:10146000027802210A4800F07BFE0A480278012136
:10147000054800F075FE084802780221024800F095
:101480006FFE10BD4200002000100140430000200C
:10149000000801404000002041000020704700008B
:1014A0001C4991F900101C4A12785143194A92F9CB
:1014B0000120194B5B7802FB0311164A92F90220B6
:1014C000154B9B7802FB0311124A92F90320124B31
:1014D000DB7802FB03120F4991F904100E4B1B79C4
:1014E00001FB03220B4991F905100B4B5B7901FBC2
:1014F0000321084A92F90620074B9B7902FB03114E
:10150000044A92F90720044BDB7902FB031148B22D
:1015100070470000080000200000002072B600BFE5
:10152000FEE700004FF4C860044908602620044923
:1015300008600448044908607047000074000020F7
:101540008C000020CDCC4CBE9000002000B50F4890
:1015500000780A2804D00C2811D103F05BF800BFF2
:101560000B480078401C0A49087008460078022899
:1015700004D104F0A3F800200549087000E000BF82
:1015800000BF14200149087000BD0000B800002011
:10159000BA00002000B55B4800780A38072871D2ED
:1015A000DFE800F0075704A9A99BA20003F032F876
:1015B00000BF55480078401C534908700846007821
:1015C000032806D104F07AF800204F4908704F49EB
:1015D000087000204E4908704E4908704A4800784B
:1015E000022835D14C48007830B94C48007818B9F9
:1015F00001204649087012E04748007830B147485A
:10160000007818B902204149087008E04248007883
:1016100028B94248007810B103203C4908703B4883
:101620000078012804D0022805D0032809D105E05C
:1016300002F0F0FF06E002F0EDFF03E003F064FCCF
:1016400000E000BF00BF0020334908703349087034
:1016500052E030480078401C2E4908700846007857
:10166000042802D101202A4908702A48007801285C
:1016700014D126480078012805D0022806D0032876
:101680000AD106E037E003F03FFC06E002F0C2FFBB
:1016900003E003F039FC00E000BF00BF1D48007804
:1016A000022813D119480078012804D0022805D057
:1016B000032809D105E002F0ADFF06E003F024FCA9
:1016C00003E002F0A7FF00E000BF00BF1148007870
:1016D000032801D102F09EFF0EE00D48007810B102
:1016E00001200D49087007E00948007810B1012079
:1016F0000A49087000E000BF00BF142001490870CB
:1017000000BD0000B8000020BA000020C00000208A
:10171000C1000020BB000020BE000020BF00002050
:1017200000B51D4800780A2806D00B281DD00C28CB
:101730002BD102F06FFF00BF18480078401C1749FA
:10174000087008460078032804D103F0B7FF002092
:1017500012490870002012490870104800780228C9
:1017600002D101200F49087010E00D480078401C9C
:101770000B49087009480078012805D1084600780F
:10178000012801D10749087000E000BF00BF142004
:101790000149087000BD0000B8000020BA00002018
:1017A000BB000020C200002000B502F033FF00BDE6
:1017B00010B5464800780A2809D00B2821D00C28FB
:1017C00002D00D287CD178E002F024FF00BF002079
:1017D0003F49087005203F490870084602783EA13D
:1017E0004148FEF723FD4048FEF70CFE84B2322349
:1017F00022463D493D4802F024FB0020354908704F
:101800005FE000223A4B3B4903C904F099FE0AD835
:101810000022394B374903C904F058FD03D2012097
:101820002C49087034E00022334B324903C904F0DC
:1018300087FE0AD80022314B2E4903C904F046FD29
:1018400003D202202349087022E000222B4B2949B1
:1018500003C904F075FE0AD80022294B254903C9A3
:1018600004F034FD03D203201A49087010E000226E
:10187000234B204903C904F063FE09D80022214B01
:101880001C4903C904F022FD02D20420114908704A
:101890001048027810A11448FEF7C8FC1248FEF761
:1018A000B1FD84B2322322460F49104802F0C9FA32
:1018B00000200849087004E002E003F0FFFE00E0A9
:1018C00000BF00BF14200149087010BDB8000020FF
:1018D000BB000020C30000207661302E76616C3D95
:1018E0002564FFFFFF0000002E0200202C090020CD
:1018F00000804B40B000002000A0694000E076402E
:1019000000207E400048824000B51A4800780E282A
:1019100029D2DFE800F0280D101316191C1F22250C
:101920002828070A02F076FE00BF03F0C7FE1BE07E
:1019300003F0EAFA18E003F0E7FA15E003F0E4FA3E
:1019400012E002F067FE0FE002F064FE0CE002F02D
:1019500061FE09E0FFF7E6FD06E0FFF7E3FD03E0C7
:10196000FFF7E0FD00E000BF00BF14200149087050
:1019700000BD0000B800002000B5134800780A2818
:1019800007D00C2802D00E2818D111E002F042FE38
:1019900000BF0E480078401C0C49087008460078CB
:1019A000022804D103F08AFE00200849087006E0EE
:1019B000FFF730FD01200649087000E000BF00BFBE
:1019C00014200149087000BDB8000020BA000020B2
:1019D000C600002000B500200A4908700A490870B6
:1019E0000A4908700A4908700A4908700A490870CB
:1019F00002F010FE09480078042801D1FFF792FD9B
:101A000000BD0000C1000020BA000020BB00002083
:101A1000C0000020C2000020C3000020BD00002044
:101A200010B51148007807281AD2DFE800F0040743
:101A30000A0D10131600FFF7B7FE12E0FFF786FD40
:101A40000FE0FFF7A7FD0CE0FFF76AFE09E0FFF7E4
:101A5000AFFE06E0FFF758FF03E0FFF78DFF00E061
:101A600000BF00BF10BD0000BD0000202DE9F05FE9
:101A700039490968394A12681144394A1268501ABA
:101A800004F0F6FF374908603748006804F078FE34
:101A900006464FF06632354B04F054FC04460D46C2
:101AA0003048006804F06CFE06464FF03332304B8D
:101AB00004F048FC804622462B4604F0E3F98246B7
:101AC00004F0AEF92B490860084600682649086012
:101AD000294801682748006805F014F9044627489A
:101AE0000168204604F078FE244908602449234810
:101AF000006805F0D5F802D2214820490860214944
:101B00001E48006804F0CCFF02D21E481B49086042
:101B10001D480078012802D01C48007810B9002028
:101B2000164908601A4801681448006804F0ECFF80
:101B30000446184801680F48006804F0E5FF0546B0
:101B4000214604F049FE144908600846006804F084
:101B500073FFBDE8F09F0000240000202800002053
:101B60007400002058000020600000206666E63FF8
:101B70003333D33F5C000020640000206800002065
:101B800000803B4500803BC544000020450000200C
:101B9000700000206C000020540000202DE9F0416E
:101BA00004460E490968601A04F062FF80460C483A
:101BB0000168404604F0A8FF06460A49096801FB8F
:101BC00004F004F055FF0746314604F005FE0546D3
:101BD000024804602846BDE8F08100007C00002037
:101BE000900000208C0000200146002291F8210086
:101BF000022808D00420886300BF002081F820005C
:101C000000BF012070470868006820F00E000B68D4
:101C100018600868006820F001000B68186091F8EF
:101C2000403001209840CB6B5860012081F82100A2
:101C300000BF002081F8200000BF1046E2E700004E
:101C400070B50446002594F82100022803D0042032
:101C5000A0630125C1E02068006820F00E00216823
:101C600008602068006820F00100216808605C4975
:101C70002068884252D95A4978392068884201D16F
:101C8000012047E0564964392068884201D110207C
:101C900040E0534950392068884201D1801539E02D
:101CA0004F493C392068884201D1801432E04C49C8
:101CB00028392068884202D14FF480302AE0484910
:101CC00014392068884202D14FF4801022E0444940
:101CD0002068884201D140041CE0424920688842C3
:101CE00001D1012016E03F4914312068884201D11A
:101CF00010200FE03B4928312068884201D180152F
:101D000008E038493C312068884201D1801401E064
:101D10004FF480303349091F086051E03049783969
:101D20002068884201D1012047E02D4964392068AC
:101D3000884201D1102040E029495039206888426A
:101D400001D1801539E026493C392068884201D10B
:101D5000801432E0224928392068884202D14FF4A9
:101D600080302AE01E4914392068884202D14FF49D
:101D7000801022E01A492068884201D140041CE00A
:101D800018492068884201D1012016E01549143114
:101D90002068884201D110200FE0124928312068C4
:101DA000884201D1801508E00E493C312068884204
:101DB00001D1801401E04FF4803009498039486036
:101DC000012084F8210000BF002084F8200000BF1B
:101DD000606B10B12046616B8847284670BD0000DB
:101DE000800002400804024070B5044600F0BEF9CD
:101DF00006462546681C10B104480078054400BF1B
:101E000000F0B4F9801BA842FAD370BDE4000020B2
:101E10002DE9F847024600239C467BE14FF001087C
:101E200008FA03F4D1F8008008EA0400A0427DD14A
:101E3000DFF8F4A2D1F80480A8EB0A09D0453AD023
:101E400014DCB8F1030F50D009DCB8F1000F31D029
:101E5000B8F1010F1CD0B8F1020F49D120E0B8F160
:101E6000110F18D0B8F1120F42D11EE0B9F5881F3A
:101E700025D006DCB9F5803F20D0B9F5801F37D1D9
:101E80001AE0B9F5001F18D0B9F5041F30D117E0DA
:101E9000D1F80CC02DE0D1F80C8008F1040C28E03A
:101EA000D1F80C8008F1080C23E0D1F80C8008F17F
:101EB0000C0C1EE000BF00BF00BF00BF00BF00BF92
:101EC000D1F80880B8F1000F02D14FF0040C0BE0FC
:101ED000D1F80880B8F1010F03D14FF0080C14615C
:101EE00002E04FF0080C546103E04FF0000C00E0FA
:101EF00000BF00BFFF2801D8904601E002F10408AE
:101F00004646FF2802D84FEA830803E0A3F10808F9
:101F10004FEA88084746D6F800804FF00F0909FAC3
:101F200007F928EA09080CFA07F900E07AE048EA1C
:101F30000908C6F80080D1F8048008F08058B8F18C
:101F4000805F6FD100BFDFF8E481D8F8188048F0D7
:101F50000108DFF8D891C9F81880C846D8F8188069
:101F600008F00108CDF8008000BF00BF4FEAB93883
:101F70004FEA930958F829504FEA83784FEA1879C5
:101F80004FF00F0808FA09F825EA0805DFF8A081E4
:101F9000424502D14FF0000824E0DFF89881424525
:101FA00002D14FF001081DE0DFF88C81424502D1DB
:101FB0004FF0020816E0DFF88481424502D14FF06D
:101FC00003080FE0DFF87881424502D14FF00408A2
:101FD00008E0DFF87081424502D14FF0050801E0CA
:101FE0004FF006084FEA83794FEA197908FA09F8A1
:101FF00048EA0505DFF850814FEA930948F829506F
:10200000D1F8048008F48018B8F5801F0BD1DFF8F0
:102010003C81D8F8008048EA0008DFF83091C9F820
:1020200000800AE075E0DFF82481D8F8008028EA13
:102030000008DFF81891C9F80080D1F8048008F48E
:102040000018B8F5001F0ED1DFF8008108F1040870
:10205000D8F8008048EA0008DFF8F09009F1040998
:10206000C9F800800DE0DFF8E48008F10408D8F832
:10207000008028EA0008DFF8D49009F10409C9F8C3
:102080000080D1F8048008F40038B8F5003F0ED184
:10209000DFF8B880A8F10408D8F8008048EA000802
:1020A000DFF8A890A9F10409C9F800800DE0DFF875
:1020B0009C80A8F10408D8F8008028EA0008DFF81E
:1020C0008C90A9F10409C9F80080D1F8048008F4C3
:1020D0008038B8F5803F0ED1DFF87080A8F108088D
:1020E000D8F8008048EA0008DFF86090A9F10809F4
:1020F000C9F800800DE0DFF85480A8F10808D8F88E
:10210000008028EA0008DFF84490A9F10809C9F81E
:1021100000805B1CD1F8008028FA03F8B8F1000FAA
:102120007FF47CAEBDE8F88700001110001002407B
:1021300000080140000C0140001001400014014063
:1021400000180140001C0140080001400804014043
:10215000024693680B400BB1012000E0002070475D
:102160000AB1016101E00B04036170470148006896
:1021700070470000DC00002070B504460CB9012057
:1021800070BD94F83D0028B9002084F83C0020463A
:1021900000F0DAF8242084F83D002068006820F080
:1021A0000100216808602068006840F40040216850
:1021B00008602068006820F400402168086000F092
:1021C0009DFA05465C496068884206D85B488542AE
:1021D00001D2012007E0002005E05948854201D2E4
:1021E000012000E00020012800D1C9E75548B5FBD7
:1021F000F0F62068406820F03F00304321684860D6
:102200004D496068884201D8701C07E04FF4967011
:1022100070434FF47A71B0FBF1F0401C2168096AF9
:1022200021F03F0108432168086243496068884201
:1022300014D8681E61684900B0FBF1F0401CC0F37F
:102240000B00042801D204203DE0681E61684900AB
:10225000B0FBF1F0401CC0F30B0034E0A06838B9CB
:10226000681E616801EB4101B0FBF1F0401C0AE01F
:10227000681E616801EBC10202EB0111B0FBF1F0D5
:10228000401C40F48040C0F30B0008B901201AE064
:10229000A06848B9681E616801EB4101B0FBF1F02C
:1022A000401CC0F30B000CE0681E616801EBC1022A
:1022B00002EB0111B0FBF1F0401CC0F30B0040F445
:1022C000804040F400402168C9694CF6FF72914398
:1022D00008432168C861D4E90701084321680968F7
:1022E00021F0C001084321680860D4E903100843C5
:1022F0002168896848F2FF32914308432168886069
:10230000D4E9050108432168C96821F0FF010843A9
:102310002168C8602068006840F0010021680860FA
:1023200000202064202084F83D000020206384F8F1
:102330003E0000BF24E70000A086010080841E004C
:1023400000093D0040420F0010B586B00446002051
:10235000029003900490059016492068884226D187
:1023600000BF1548806940F008001349886108469D
:10237000806900F00800019000BF00BF4FF440608A
:102380000290122003900320059002A90B48FFF74A
:102390003FFD00BF0848C06940F480000649C8619D
:1023A0000846C06900F48000019000BF00BF06B07D
:1023B00010BD00000058004000100240000C014019
:1023C00003480068034909780844014908607047D8
:1023D000DC000020E400002010B50848006840F050
:1023E000100006490860032000F0A8F80F2000F054
:1023F00007F800F02BF8002010BD0000002002407C
:1024000070B504460E4800784FF47A71B1FBF0F0D5
:102410000C490968B1FBF0F5284600F0F9FB08B15A
:10242000012070BD102C07D200222146501E00F062
:1024300047F80548046001E00120F2E70020F0E7DA
:10244000E4000020E8000020E000002008B500BF04
:102450001148806940F001000F4988610846806991
:1024600000F00100009000BF00BF00BF0846C06937
:1024700040F08050C8610846C06900F0805000906C
:1024800000BF00BF00BF0549486820F0E06040F091
:102490000070486000BF08BD00100240000001400D
:1024A00001460846002809DB00F01F0301229A407C
:1024B00043099B0003F1E023C3F8002100BF7047EC
:1024C0002DE9F05F80460D461646002703F018F907
:1024D000074639462A46334601F00700C0F1070A8D
:1024E000BAF1040F02D94FF0040A01E0C0F1070A63
:1024F000D14600F1040ABAF1070F02D24FF0000AE8
:1025000001E0A0F1030AD4464FF0010A0AFA09FAE1
:10251000AAF1010A0AEA020A0AFA0CFA4FF0010BC0
:102520000BFA0CFBABF1010B0BEA030B4AEA0B04B1
:102530002146404603F0ECF8BDE8F09F00BF00F0F4
:102540000702064B19684FF6FF031940044B0B4373
:1025500043EA0221014B196000BF70470CED00E017
:102560000000FA0570B504460D460CB9012070BD97
:102570005A48006800F00700A8420ED25748006889
:1025800020F007002843554908600846006800F01D
:102590000700A84201D00120E9E7207800F00200FE
:1025A00002281DD1207800F00400042805D14C48F1
:1025B000406840F4E0604A494860207800F0080034
:1025C000082805D14648406840F4605044494860B6
:1025D0004348406820F0F000A16808434049486043
:1025E000207800F0010078B36068012806D13C48EB
:1025F000006800F4003090B90120B8E76068022854
:1026000006D13748006800F0007040B90120AEE7FD
:102610003348006800F0020008B90120A7E73048FD
:10262000406820F00300616808432D494860FFF7C7
:102630009DFD064609E0FFF799FD801B41F28831B8
:10264000884202D9032092E707E02548406800F05D
:102650000C006168B0EB810FEDD12048006800F0FC
:102660000700A8420ED91D48006820F00700284343
:102670001A4908600846006800F00700A84201D027
:10268000012074E7207800F00400042807D11448E2
:10269000406820F4E060E168084311494860207810
:1026A00000F00800082808D10D48406820F4605068
:1026B000216940EAC1000A49486000F03FF8084932
:1026C0004968C1F30311074A515CC84006490860D4
:1026D00006480068FFF794FE002048E7002002400B
:1026E0000010024014900008E8000020E0000020E4
:1026F0000148006870470000E800002000B5FFF7BF
:10270000F7FF04494968C1F30221034A515CC840FC
:1027100000BD0000001002402490000800B5FFF743
:10272000E7FF04494968C1F3C221034A515CC8402C
:1027300000BD0000001002402490000870B5002188
:102740000022002400230020134D696801F00C05CD
:10275000F5B1042D02D0082D19D101E00F4819E080
:102760000F4DC1F38346AB5D01F4803555B10A4D81
:102770006D68C5F340450B4E725D084D5D43B5FB7A
:10278000F2F402E0084D03FB05F4204602E000BF2E
:10279000024800BF00BF70BD0010024000127A0066
:1027A000029000081290000800093D00F8B50446A8
:1027B0000CB90120F8BD207800F00100002878D085
:1027C000F848406800F00C0004280CD0F548406838
:1027D00000F00C00082811D1F248406800F4803065
:1027E000B0F5803F0AD1EF48006800F400300028BF
:1027F0005FD0606800285CD10120DBE700BF606823
:10280000B0F5803F06D1E748006840F48030E549E4
:10281000086028E0606858B9E248006820F4803019
:10282000E04908600846006820F4802008601AE04B
:102830006068B0F5A02F0BD1DA48006840F4802022
:10284000D84908600846006840F4803008600AE013
:10285000D448006820F48030D249086008460068F7
:1028600020F48020086000BF606888B1FFF77EFC1C
:10287000054606E0FFF77AFC401B642801D90320D7
:1028800098E7C848006800F400300028F2D010E053
:10289000FFF76CFC054606E0FFF768FC401B642868
:1028A00001D9032086E7BF48006800F40030002803
:1028B000F2D1207800F00200022857D1B9484068D0
:1028C00000F00C0050B1B748406800F00C00082838
:1028D00018D1B448406800F4803098B9B148006815
:1028E00000F0020020B12069012801D0012061E739
:1028F000AC48006820F0F800616940EAC100A949CD
:10290000086033E02069E8B10120A7490860FFF7BB
:102910002DFC054606E0FFF729FC401B022801D9E3
:10292000032047E79F48006800F002000028F2D02B
:102930009C48006820F0F800616940EAC1009949AC
:10294000086013E0002098490860FFF70FFC054677
:1029500006E0FFF70BFC401B022801D9032029E702
:102960009048006800F002000028F2D1207800F0C2
:10297000080008282DD1A069B8B101208B49086052
:10298000FFF7F4FB054606E0FFF7F0FB401B0228CB
:1029900001D903200EE78348406A00F002000028B6
:1029A000F2D0012002F0C4F913E000207F49086052
:1029B000FFF7DCFB054606E0FFF7D8FB401B0228CB
:1029C00001D90320F6E67748406A00F002000028AB
:1029D000F2D1207800F00400042873D10027714858
:1029E000C06900F0805070B900BF6E48C06940F007
:1029F00080506C49C8610846C06900F08050009062
:102A000000BF00BF01276A48006800F48070B0B9B9
:102A10006748006840F4807065490860FFF7A6FBCE
:102A2000054606E0FFF7A2FB401B642801D90320FE
:102A3000C0E65F48006800F480700028F2D000BF54
:102A4000E068012806D15748006A40F00100554966
:102A5000086227E0E06858B95248006A20F0010097
:102A6000504908620846006A20F00400086219E034
:102A7000E06805280BD14B48006A40F00400494942
:102A800008620846006A40F0010008620AE0454812
:102A9000006A20F00100434908620846006A20F0FD
:102AA0000400086200BFE068A0B1FFF75FFB0546C5
:102AB00009E0FFF75BFB401B41F28831884202D9F5
:102AC000032077E622E03748006A00F00200002881
:102AD000EFD012E0FFF74AFB054608E0FFF746FBA0
:102AE000401B41F28831884201D9032062E62D481B
:102AF000006A00F002000028F0D1012F05D129481A
:102B0000C06920F080502749C86100BFE069C8B3A0
:102B10002448406800F00C00082860D0E0690228D2
:102B200048D1002020490866FFF720FB054606E053
:102B3000FFF71CFB401B022801D903203AE6194885
:102B4000006800F000700028F2D1206AB0F5803FE4
:102B500007D11448406820F40030A16808431149A7
:102B60004860D4E9080108430E49496821F474110A
:102B700008430C49486001200B490866FFF7F6FA44
:102B8000054607E03DE0FFF7F1FA401B022801D9B6
:102B900003200FE60348006800F000700028F2D020
:102BA0002FE0000000100240000042428004424238
:102BB00000700040002014490866FFF7D7FA054668
:102BC00006E0FFF7D3FA401B022801D90320F1E504
:102BD0000E48006800F000700028F2D111E0E069B2
:102BE000012800D1E6E50948466806F48031206AEC
:102BF000814204D106F47011606A814201D0012043
:102C0000D8E50020D6E50000000042420010024056
:102C100070B504462546681EB0F1807F01D30120BF
:102C20000FE0681E4FF0E02148610F214FF0FF30A8
:102C300002F06EFD00204FF0E0218861072008615E
:102C4000002070BD7047704710B50346002200BFDA
:102C500093F83C00012801D1022010BD012083F827
:102C60003C0000BF22F0FF00CC6840EA040222F4DE
:102C700040708C6840EA040222F480604C6840EAAC
:102C8000040222F400600C6840EA040222F480503E
:102C90000C6940EA040222F400504C6940EA040244
:102CA00022F48040CC6940EA04021868426400BF04
:102CB000002083F83C0000BF00BFCEE730B50246DD
:102CC0000B4600BF92F83C00012801D1022030BD24
:102CD000012082F83C0000BF022082F83D0010680D
:102CE00044681068816824F0700418680443106810
:102CF0004460144D1068A84213D0134D1068A842C8
:102D00000FD01068B0F1804F0BD0104D1068A84262
:102D100007D00F4D1068A84203D00E4D1068A8428E
:102D200005D121F0800158680143106881600120BD
:102D300082F83D0000BF002082F83C0000BF00BFC9
:102D4000C5E70000002C01400034014000040040B1
:102D500000080040000C004010B504460CB90120EA
:102D600010BD94F83D0028B9002084F83C002046AE
:102D700000F026F8022084F83D00211D206802F0B2
:102D800027F9012084F8460000BF84F83E000121A5
:102D90003F200155402001554120015500BF00BF93
:102DA000012084F84200432001554420015545206C
:102DB000015500BF012084F83D000020D0E700004D
:102DC00038B504463A49206888420DD100BF3948D9
:102DD000806940F40060374988610846806900F4E2
:102DE0000060009000BF62E02068B0F1804F16D113
:102DF00000BF3048C06940F001002E49C861084654
:102E0000C06900F00100009000BF00BF0022022155
:102E10001C20FFF755FB1C20FFF742FB47E026492B
:102E20002068884216D100BF2248C06940F00800DF
:102E30002049C8610846C06900F00800009000BF42
:102E400000BF002207213220FFF73AFB3220FFF7B4
:102E500027FB2CE019492068884216D100BF15488D
:102E6000C06940F010001349C8610846C06900F00D
:102E70001000009000BF00BF002204213620FFF7A1
:102E80001FFB3620FFF70CFB11E00D49206888423C
:102E90000DD100BF0748806940F4005005498861A2
:102EA0000846806900F40050009000BF00BF38BDA4
:102EB000002C014000100240000C004000100040B7
:102EC00000340140014691F83D00012801D0012065
:102ED0007047022081F83D000868C06840F001009A
:102EE0000B68D860164B0868984213D0154B0868D9
:102EF00098420FD00868B0F1804F0BD0124B086891
:102F0000984207D0114B0868984203D0104B0868CC
:102F100098420CD10868806800F00702062A0CD09D
:102F20000868006840F001000B68186005E0086858
:102F3000006840F001000B6818600020C8E700003E
:102F4000002C014000340140000400400008004013
:102F5000000C00402DE9F04104460D46002700BF5B
:102F600094F83C00012802D10220BDE8F081012044
:102F700084F83C0000BF022084F83D002068866889
:102F800026F0770626F47F46206886602868502859
:102F900033D00CDC202850D004DC00284BD0102883
:102FA00051D149E0302849D040284CD139E060283F
:102FB0002DD0702807D0B0F5805F03D0B0F5005F4A
:102FC00041D10DE041E0D5E902136A68206802F0C2
:102FD0005EF82068866846F077062068866034E0F0
:102FE000D5E902136A68206802F051F82068806809
:102FF00040F480402168886027E0EA6869682068BA
:1030000002F036F95021206802F04CF81DE0EA6821
:103010006968206802F03FF96021206802F042F8F8
:1030200013E0EA686968206802F022F9402120680C
:1030300002F038F809E000BF00BF00BF296820682F
:1030400002F030F801E0012700BF00BF012084F842
:103050003D0000BF002084F83C0000BF384684E7F4
:103060002DE9F04104460D4614B90120BDE8F08178
:1030700094F83D0028B9002084F83C00204600F078
:1030800051F8022084F83D002068806844F207016E
:10309000884321688860211D206801F099FF20681D
:1030A000D0F80880206886692068076A286840EAA6
:1030B000080840F203308643A969A86840EA012065
:1030C000064340F60C4086434FF2F0008643E96920
:1030D000E86840EA0120064328690001296A40EABD
:1030E0000130064327F022076969686840EA011049
:1030F00007432068C0F8088020688661206807625E
:10310000012084F8460084F83E0001213F2001554B
:10311000012084F8420043200155012084F83D003D
:103120000020A3E710B586B004460020029003906B
:103130000490059029492068884224D100BF28487E
:10314000C06940F002002649C8610846C06900F025
:103150000200019000BF00BF00BF0846806940F038
:10316000040088610846806900F00400019000BFF7
:1031700000BFC020029000200390049002A91948CB
:10318000FEF746FE27E018492068884223D100BF99
:103190001348C06940F004001149C8610846C0697D
:1031A00000F00400019000BF00BF00BF0846806926
:1031B00040F0080088610846806900F0080001902E
:1031C00000BF00BFC020029000200390049002A91D
:1031D0000648FEF71DFE06B010BD000000040040CA
:1031E000001002400008014000080040000C0140AF
:1031F0002DE9F04304460D4694F83E603F20075DFC
:1032000094F84280432010F804906DB9012E02D149
:10321000B8F1010F02D00120BDE8F083022084F84C
:103220003E0084F8420025E0042D0CD1012F02D18C
:10323000B9F1010F01D00120EEE702213F20015535
:103240004320015516E0012E07D1012F05D1B8F119
:10325000010F02D1B9F1010F01D00120DCE70220FA
:1032600084F83E0002213F200155022084F84200EC
:103270004320015515B1042D0CD105E00122002198
:10328000206801F0F3FE10E001220421206801F023
:10329000EDFE0AE001220021206801F0E7FE012294
:1032A0000421206801F0E2FE00BF00BF2068006832
:1032B00040F00100216808600020ADE7704710B5BC
:1032C000044620680069C0F34000D8B12068C06897
:1032D000C0F34000B0B16FF0020021680861012026
:1032E00020772068806900F0030018B12046FFF7BE
:1032F000E5FF05E0204600F0F9F8204600F0ADF9C2
:103300000020207720680069C0F38000D8B12068D1
:10331000C068C0F38000B0B16FF00400216808619C
:10332000022020772068806900F4407018B12046A0
:10333000FFF7C4FF05E0204600F0D8F8204600F073
:103340008CF90020207720680069C0F3C000D8B154
:103350002068C068C0F3C000B0B16FF008002168F9
:103360000861042020772068C06900F0030018B1CC
:103370002046FFF7A3FF05E0204600F0B7F82046FF
:1033800000F06BF90020207720680069C0F300107E
:10339000D8B12068C068C0F30010B0B16FF0100061
:1033A00021680861082020772068C06900F4407017
:1033B00018B12046FFF782FF05E0204600F096F89E
:1033C000204600F04AF9002020772068006900F0CC
:1033D000010058B12068C06800F0010030B16FF002
:1033E000010021680861204600F0B2F920680069F8
:1033F000C0F3C01058B12068C068C0F3C01030B12D
:103400006FF08000216808612046FFF71BFC2068F0
:103410000069C0F3801058B12068C068C0F3801004
:1034200030B16FF0400021680861204600F086FA54
:1034300020680069C0F3401058B12068C068C0F32C
:10344000401030B16FF02000216808612046FFF77E
:10345000FAFB10BD10B586B0044600200290039020
:10346000049005901C492068884217D100BF1B4872
:10347000806940F00400194988610846806900F0BD
:103480000400019000BF00BF881502900220039045
:10349000059002A91248FEF7BBFC1AE0114920680A
:1034A000884216D100BF0D48806940F010000B49DA
:1034B00088610846806900F01000019000BF00BFDD
:1034C0004020029002200390059002A90648FEF7D2
:1034D0009FFC06B010BD0000002C0140001002400F
:1034E00000080140003401400010014070472DE900
:1034F000F04104460D461646002700BF94F83C00F4
:10350000012802D10220BDE8F081012084F83C00AE
:1035100000BF36B1042E1BD0082E31D00C2E5ED148
:1035200045E02946206801F0C7FD2068806940F029
:103530000800216888612068806920F00400216803
:10354000886120688069296908432168886148E0AA
:103550002946206801F0E8FD2068806940F4006099
:10356000216888612068806920F480602168886112
:1035700020688069296940EA01202168886130E07B
:103580002946206801F00EFE2068C06940F008005E
:103590002168C8612068C06920F004002168C86102
:1035A0002068C069296908432168C86119E0294673
:1035B000206801F033FE2068C06940F40060216893
:1035C000C8612068C06920F480602168C8612068F3
:1035D000C069296940EA01202168C86101E001272A
:1035E00000BF00BF00BF002084F83C0000BF384689
:1035F00089E710B504460CB9012010BD94F83D00D0
:1036000028B9002084F83C00204600F025F802206C
:1036100084F83D00211D206801F0DAFC012084F8C7
:10362000460000BF84F83E0001213F2001554020A4
:1036300001554120015500BF00BF012084F8420020
:1036400043200155442001554520015500BF01206C
:1036500084F83D000020D0E77047704770B50446FD
:103660000D4615B994F83E000BE0042D02D13F2021
:10367000005D06E0082D02D14020005D01E0412000
:10368000005D012801D0012070BD1DB9022084F821
:103690003E000EE0042D03D102213F20015508E039
:1036A000082D03D102214020015502E002214120D2
:1036B000015501222946206801F0D8FC1F492068E5
:1036C000884203D01E492068884201D1012000E0D1
:1036D000002028B12068406C40F400402168486414
:1036E00016492068884213D01549206888420FD0B7
:1036F0002068B0F1804F0BD012492068884207D073
:1037000011492068884203D01049206888420CD1B2
:103710002068806800F00706062E0CD0206800683C
:1037200040F001002168086005E02068006840F072
:103730000100216808600020A6E70000002C01407D
:10374000003401400004004000080040000C00402C
:1037500070B504462068B0F1804F75D1042001F0A7
:103760003DFB5F490860032001F038FB5D490860BC
:10377000084601685A480068FEF778F95A49086017
:1037800001F0EAFA5949087057480068584908603A
:10379000564890F90000FEF701FA054603F04CF98F
:1037A000544908605448007838B14FF44870534980
:1037B00008604042524908604AE05248807828B97F
:1037C0005048C07810B94F48007940B14D48C07892
:1037D000B8B94C480079A0B94A48407988B9012065
:1037E0004949087042480068484909680844434903
:1037F00008603F48006845490968401A4049086028
:103800000DE03B4800683B49096808443B490860B3
:103810003748006837490968401A3949086038490B
:10382000364800F0CBFB364801683448006801F0A8
:103830002BFB3548007840B92E480168344801F028
:1038400009FA3249086003E00CE000202E490870B4
:103850002B492A4800F0B2FB294801682748006834
:1038600001F012FB2B492068884231D12A4A2B49AA
:103870002B4800F0E5FE2B48007898B129480078E5
:10388000401C2849087008460078062801D101F03C
:1038900015FF24480078742804D100F0BBFE0020F6
:1038A000204908701448007890B113480078401CF3
:1038B0001149087008460078142809D100200870C2
:1038C00019481A4908601A481A49086000F0A2FE0F
:1038D00019492068884201D102F04AF870BD000001
:1038E00024000020280000201C0000208900002067
:1038F0003800002084000020C60000203000002096
:1039000034000020000000208A00002080000020F9
:1039100088000020000C0040A8000020A00000202B
:1039200098000020C2000020333393406C00002038
:103930007F6ABC3C70000020001000407047F8B562
:1039400004460E46174694F8420020282ED106B1B0
:103950000FB90120F8BD01202063002060633A46C2
:103960003146204601F0F8FD0546EDB9206B0128EF
:1039700019D100BF002000902068006800902068E6
:103980004068009000BF00BF00BF00BF21680C313D
:1039900051E8001F41F0100021680C3141E800029D
:1039A000002AF3D100E001252846D3E70220D1E721
:1039B000044B02689A4204D1034A1278303A034B0E
:1039C0001A7070470044004098010020B8000020A1
:1039D000704700002DE9F84F04462068056820680C
:1039E000C668206847694FF00009CA4605F00F090C
:1039F000B9F1000F0AD105F0200038B106F020001F
:103A000020B1204601F0ABFCBDE8F88FB9F1000F02
:103A10007BD007F0010018B906F49070002874D02C
:103A200005F0010030B106F4807018B1606C40F010
:103A30000100606405F0040030B107F0010018B126
:103A4000606C40F00200606405F0020030B107F0E5
:103A5000010018B1606C40F00400606405F00800DB
:103A600048B106F0200010B907F0010018B1606CF1
:103A700040F008006064606C002845D005F020002C
:103A800028B106F0200010B1204601F068FC206843
:103A90004069C0F3801A606C00F0080010B9BAF1F8
:103AA000000F2CD0204601F014FC2068406900F083
:103AB000400000B300BF00BF2168143151E8001F6F
:103AC00021F040002168143141E80002002AF3D1BE
:103AD00000BFE06B50B17748E16B4863E06BFEF7E5
:103AE000AFF888B1E06B416B88470DE02046FFF7E7
:103AF0006FFF09E009E02046FFF76AFF04E0204677
:103B0000FFF766FF002060647EE7206B012877D115
:103B100005F01000002873D006F010000028FAD03D
:103B200000BF002000902068006800902068406876
:103B3000009000BF00BF2068406900F040000028EE
:103B40005FD0E06B006840681FFA80F8B8F1000FA2
:103B500055D0A08D404552DDA4F82E80E06B8069E1
:103B6000202843D000BF00BF21680C3151E8001F5E
:103B700021F4807021680C3141E80002002AF3D161
:103B800000BF00BF00BF2168143151E8001F21F0C1
:103B900001002168143141E80002002AF3D100BF7E
:103BA00000BF00BF2168143151E8001F21F0400020
:103BB0002168143141E80002002AF3D100BF20201F
:103BC00084F842000020206300BF00BF21680C3150
:103BD00051E8001F21F0100021680C3141E800027B
:103BE000002AF3D100BFE06BFDF7FEFF0220606307
:103BF000A08DE28D801A81B22046FFF7D9FE03E73F
:103C000042E0A08DE18D401A1FFA80F8E08DD0B31C
:103C1000B8F1000F37D000BF00BF21680C3151E868
:103C2000001F21F4907021680C3141E80002002A45
:103C3000F3D100BF00BF00BF2168143151E8001F5D
:103C400021F001002168143141E80002002AF3D17B
:103C500000BF202084F842000020206300BF00BF86
:103C600021680C3151E8001F21F0100021680C314F
:103C700041E80002002AF3D100BF02206063414600
:103C80002046FFF795FEBFE605F0800030B106F054
:103C9000800018B1204601F07FFCB5E605F0400039
:103CA00030B106F0400018B1204601F048FBABE609
:103CB00000BFA9E6BF52000810B504460CB90120A8
:103CC00010BDA06900B100E000BF94F8410028B920
:103CD000002084F84000204600F02AF8242084F8D0
:103CE00041002068C06820F400502168C860204668
:103CF00001F0B4FB2068006920F49040216808615D
:103D00002068406920F02A00216848612068C06866
:103D100040F400502168C86000206064202084F8CE
:103D2000410084F842000020606300BFC8E7000043
:103D300010B586B0044600200290039004900590D0
:103D40003B492068884237D100BF3A48806940F437
:103D50008040384988610846806900F480400190BD
:103D600000BF00BF00BF0846806940F004008861C2
:103D70000846806900F00400019000BF00BF4815AC
:103D80000290022003900320059002A92A48FEF722
:103D90003FF84FF48060029000200390049002A945
:103DA0002548FEF735F800220C212520FEF788FB78
:103DB0002520FEF775FB39E020492068884235D17F
:103DC00000BF1C48C06940F400301A49C861084669
:103DD000C06900F40030019000BF00BF00BF08467A
:103DE000806940F0040088610846806900F00400A2
:103DF000019000BF00BF0420029002200390032026
:103E0000059002A90C48FEF703F808200290002054
:103E10000390049002A90848FDF7FAFF00220E2142
:103E20002620FEF74DFB2620FEF73AFB06B010BD1C
:103E300000380140001002400008014000440040EA
:103E400070472DE9F84F04460E46174699464FF045
:103E5000000A94F8410020284AD106B117B9012080
:103E6000BDE8F88F00206064212084F84100FEF74F
:103E70007DF98246A784E784A068B0F5805F04D10D
:103E8000206910B90025B04602E035464FF0000821
:103E90001BE05346002280212046CDF8009001F01F
:103EA000ABFB08B10320DBE745B9B8F80000C0F36D
:103EB00008002168486008F1020803E028782168BA
:103EC00048606D1CE08C401EE084E08C0028E0D14E
:103ED0005346002240212046CDF8009001F08CFB93
:103EE00008B10320BCE7202084F841000020B7E798
:103EF0000220B5E7704700BFFEE7000000B585B0BF
:103F000000BF0D48806940F010000B4988610846E9
:103F1000806900F01000009000BF00BF4FF4204007
:103F200001900120029003900320049001A903480E
:103F3000FDF76EFF05B000BD00100240001001400B
:103F400010B5012251030A48FEF70AF90122D103F4
:103F50000748FEF705F900224FF400510448FEF728
:103F6000FFF800224FF400410148FEF7F9F810BDB8
:103F70000010014010B50122D1030748FEF7F0F808
:103F800000224FF400510448FEF7EAF801225103E1
:103F90000148FEF7E5F810BD0010014010B5012200
:103FA000D1030548FEF7DCF800224FF40041024837
:103FB000FEF7D6F810BD00000010014041F658335E
:103FC00002689A4201DD1A4602600A4B02689A4270
:103FD00001DA1A46026041F658330A689A4201DD56
:103FE0001A460A60034B0A689A4201DA1A460A60C6
:103FF00070470000A8E4FFFF00B585B000200190E5
:1040000002900390049000BF5E48806940F0100069
:104010005C4988610846806900F01000009000BF8C
:1040200000BF00BF0846806940F020008861084654
:10403000806900F02000009000BF00BF00BF08466C
:10404000806940F0040088610846806900F004003F
:10405000009000BF00BF00BF0846806940F0080024
:1040600088610846806900F00800009000BF00BF2A
:1040700000224AF207014448FEF772F800220221AA
:104080004248FEF76DF8012220213F48FEF768F80C
:104090004AF22000019001200290002003900220AB
:1040A000049001A93848FDF7B3FE4FF49440019005
:1040B00000200290039001A93348FDF7A9FE0720D4
:1040C000019001200290002003900320049001A998
:1040D0002D48FDF79DFE48F211000190002002904E
:1040E000039001A92948FDF793FE022001900120C9
:1040F0000290002003900320049001A92348FDF7BB
:1041000087FE20200190002002900220039001A948
:104110001E48FDF77DFE4FF4004001900020029004
:104120000120039001A91A48FDF772FE4FF4A05038
:104130000190002002900220039001A91248FDF78F
:1041400067FE04200190002002900220039001A944
:104150001048FDF75DFE082001900020029002202B
:10416000039001A90A48FDF753FE4FF488700190AF
:1041700000200290039001A90548FDF749FE05B013
:1041800000BD000000100240001001400008014086
:10419000000C01400014014010B50B480B490860A9
:1041A0000B484860002109488160C1604FF480419C
:1041B0000161002141618161C1610162FDF7DCFFA4
:1041C00008B1FDF7ABF910BD00580040E006002033
:1041D000801A060000B595B000201190129013903F
:1041E00014900F9010901C2108A8FCF72AF92021A8
:1041F0006846FCF726F92B482B49086000204860E8
:1042000000212948816041F61F41C1600021016100
:10421000416180218161FEF79FFD08B1FDF77EF9C4
:104220004FF48050119011A91F48FEF793FE08B17A
:10423000FDF774F91C48FFF7DCF908B1FDF76EF9DA
:1042400000200F9010900FA91748FEF737FD08B116
:10425000FDF764F960200890002009900A900B9007
:104260000C900D900E90002208A90F48FFF73FF91F
:1042700008B1FDF753F900200090019002900390DF
:1042800004904FF4005005900020079069460648BE
:10429000FEF7DAFC08B1FDF741F90348FFF7DAF859
:1042A00015B000BD002C01403407002000B587B0D8
:1042B00000200390049005900690019002904FF02A
:1042C00080401449086041F61F40486000211148B1
:1042D00081606321C160002101618161FEF73CFDC5
:1042E00008B1FDF71BF94FF48050039003A909486A
:1042F000FEF730FE08B1FDF711F9002001900290A1
:1043000001A90448FEF7DAFC08B1FDF707F907B088
:1043100000BD00007C07002000B58BB0242102A85E
:10432000FCF78FF8002000900190184818490860A9
:10433000002048600021164881604FF6FF71C1607F
:104340000021016181610120029000200390012081
:10435000049000200590069007900120089000200E
:1043600009900A9002A90A48FEF77AFE08B1FDF703
:10437000D5F800200090019069460548FEF79EFCA4
:1043800008B1FDF7CBF80BB000BD00000004004001
:10439000C407002000B58BB0242102A8FCF751F817
:1043A00000200090019018481849086000204860DB
:1043B0000021164881604FF6FF71C1600021016144
:1043C00081610120029000200390012004900020D0
:1043D00005900690079001200890002009900A900F
:1043E00002A90A48FEF73CFE08B1FDF797F8002045
:1043F0000090019069460548FEF760FC08B1FDF7A2
:104400008DF80BB000BD0000000800400C08002033
:1044100000B587B0002003900490059006900190AD
:10442000029015481549086040F2CF2048600021ED
:104430001248816042F20F71C16000210161816107
:10444000FEF78AFC08B1FDF769F84FF4805003903D
:1044500003A90A48FEF77EFD08B1FDF75FF80020CA
:104460000190029001A90548FEF728FC08B1FDF76C
:1044700055F807B000BD0000000C004054080020B3
:104480001CB50020009001900E480F49086041F6CD
:104490001F40486000210C4881606321C1600021F9
:1044A0008161FEF759FC08B1FDF738F80020009053
:1044B000019069460448FEF701FC08B1FDF72EF8AB
:1044C0001CBD0000001000409C08002000B595B005
:1044D000002011901290139014900F9010901C21B6
:1044E00008A8FBF7AEFF20216846FBF7AAFF2B4880
:1044F0002B4908600020486000212948816041F66E
:104500001F41C16000210161416180218161FEF78D
:1045100023FC08B1FDF702F84FF48050119011A967
:104520001F48FEF717FD08B1FCF7F8FF1C48FFF71E
:1045300060F808B1FCF7F2FF00200F9010900FA96F
:104540001748FEF7BBFB08B1FCF7E8FF60200890B6
:10455000002009900A900B900C900D900E90002274
:1045600008A90F48FEF7C3FF08B1FCF7D7FF0020EA
:10457000009001900290039004904FF40050059039
:104580000020079069460648FEF75EFB08B1FCF77D
:10459000C5FF0348FEF75EFF15B000BD00340140C3
:1045A000E408002010B50B480B4908604FF4E130D7
:1045B0004860002108488160C16001610C214161AF
:1045C00000218161C161FFF777FB08B1FCF7A6FF0D
:1045D00010BD0000003801402C09002010B50B4828
:1045E0000B4908604FF4165048600021084881606C
:1045F000C16001610C21416100218161C161FFF74E
:104600005BFB08B1FCF78AFF10BD000000440040CE
:10461000740900204FF47A70044908601E20044990
:1046200008600448044908607047000074000020D6
:104630008C000020AE47613E9000002000BFFEE7E6
:104640002DE9F0478CB004460D469046042000F05A
:10465000C5FB414908600846006801F01FFE0022C2
:104660003E4BCDE9000101F06DFE81463C4A3D4BD9
:1046700001F068FE00224FF08043CDE9020101F015
:1046800061FE4FF02042384BCDE9040101F0AEFC51
:1046900006460022354B01F0A9FC0022344BCDE93F
:1046A000060101F0A3FC0022324BCDE9080101F024
:1046B0009DFCCDE90A01D4E90063324601F0E2FB3A
:1046C000C4E900012C4A284BD8E90061304601F0CA
:1046D000D9FBC8E90001032000F080FB27490860EE
:1046E0000846006801F0DAFD4FF08042244BCDE926
:1046F000000101F027FE1A4A1A4BCDE9020101F030
:1047000021FE064600224FF0804301F01BFE4FF0D1
:104710002042154BCDE9040101F068FC0022134B47
:10472000CDE9060101F062FC0022114BCDE9080140
:1047300001F05CFC814600220E4B01F057FCCDE9F4
:104740000A01D5E90063324601F09CFBC5E900018E
:104750000CB0BDE8F0870000CC000020D7A3A03F3C
:104760001F85EB51B81E09409999B93F00001040D0
:104770000000594000003E409A999999D4000020C9
:1047800060E5A03F00BFFEE770B500240CE0002507
:1047900006E00020074901EBC5010855681CC5B2B9
:1047A000802DF6DB601CC4B2082CF0DB00F0D8F8DA
:1047B00070BD00006002002070B50B46CE1701EB03
:1047C0005676C6F3C702CE1701EB5676F610A1EB6C
:1047D000C606F4B20123A340DDB20E4B03EBC003C7
:1047E0009B5CDB430B4E06EBC006B354094B03EB5B
:1047F000C0039B5C2B43074E06EBC006B354054B2E
:1048000003EBC0039B5CDB43024E06EBC006B354D4
:1048100070BD00006002002070B50A46CE1701EBA3
:104820005676C6F3C703CE1701EB5676F610A1EB0A
:10483000C606F4B20122A240D5B2054A02EBC0027C
:10484000D25C2A43024E06EBC006F25470BD000053
:104850006002002010B5FFF751FB4FF47A70FDF7AE
:10486000C3FA0021AE2000F0D8F90021084600F07C
:10487000D4F90021102000F0D0F90021402000F0F0
:10488000CCF90021812000F0C8F90021CF2000F0F0
:10489000C4F90021A12000F0C0F90021C82000F0D7
:1048A000BCF90021A62000F0B8F90021A82000F0F2
:1048B000B4F900213F2000F0B0F90021D32000F02E
:1048C000ACF90021084600F0A8F90021D52000F03D
:1048D000A4F90021802000F0A0F90021D92000F0E7
:1048E0009CF90021F12000F098F90021DA2000F075
:1048F00094F90021122000F090F90021DB2000F053
:104900008CF90021402000F088F90021202000F0DF
:1049100084F90021022000F080F900218D2000F0B0
:104920007CF90021142000F078F90021A42000F087
:1049300074F90021A62000F070F90021AF2000F0EA
:104940006CF9FFF721FF10BD10B50246012000E011
:1049500050430B1EA1F10104E1B2F9D110BD0000DA
:1049600070B500241CE004F1B001C8B2002100F0D1
:1049700054F90021084600F050F90021102000F001
:104980004CF9002508E0084901EBC501085D01214B
:1049900000F043F9681CC5B2802DF4DB601CC4B282
:1049A000082CE0DB70BD0000600200202DE9FF4F05
:1049B00081B080460E461C4600962046E31704EB65
:1049C0005373DB1021464FEAE47C04EB5C7C4FEA36
:1049D000EC0CA4EBCC0CBCF1000F02D04FF0010C9E
:1049E00001E04FF0000C6344224604EBD27C4FEA16
:1049F0006C0C03FB0CF303F0FF0B03982038C7B2D9
:104A0000002547E00C2C07D107EB4700234901EBB9
:104A1000800010F805A014E0102C05D1204800EB10
:104A2000071010F805A00CE0182C07D107EBC70001
:104A30001C4901EB800010F805A002E005B0BDE8BC
:104A4000F08F4FF000091FE00AF0800020B13146DE
:104A50004046FFF7E1FE03E031464046FFF7ACFE7B
:104A60004FEA4A604FEA106A701CC6B20098301ACA
:104A7000A04205D1009E08F1010000F0FF0806E009
:104A800009F1010000F0FF09B9F1080FDCDB00BFFC
:104A9000681CC5B25D45B5DB00BFCFE7F26D00080D
:104AA00066720008567800082DE9F84305460E4660
:104AB000144699460AA000680090204601F060FE66
:104AC00007463A460B4607A16846FBF7AFFB4B4645
:104AD0006A463146284600F07FF8BDE8F8830000BA
:104AE00020000000252E3366000000002DE9F04F65
:104AF00006468A4691461F46099C00252CE0781BF5
:104B0000401EC1B20A20FFF71FFFB9FBF0F00A21D7
:104B1000B0FBF1F201FB1208B8F1000F0CD1A34673
:104B200004EBDB71491001FB0561C8B2234630225A
:104B30005146FFF73BFF0DE0A34604EBDB71491044
:104B400001FB0561C8B208F13001CAB223465146E3
:104B5000FFF72CFF681CC5B2BD42D0DBBDE8F08F6B
:104B60002DE9FF4F814615461E460D9F002D07DBA0
:104B70003B462B2248460199FFF718FFA84607E05D
:104B80003B462D2248460199FFF710FFC5F100086A
:104B900000241DE0301B401EC1B20A20FFF7D4FEE6
:104BA000B8FBF0F00A21B0FBF1F201FB120000F1BA
:104BB000300BBA4607EBDA714A10611C02FB019117
:104BC000C8B23B465A460199FFF7F0FE601CC4B2DA
:104BD000B442DFDBBDE8FF8FF0B506460F46144652
:104BE0001D4613E022782B4639463046FFF7DEFE9D
:104BF000284605EBD07106EB6101CEB2C5F180000D
:104C0000B04202DA0026B81CC7B2641C2078202803
:104C100002DB20787E28E5DDF0BD70B505460C4648
:104C2000FFF78EF9782000F001F9FFF7B7F91CB112
:104C3000402000F0FBF802E0002000F0F7F8FFF75A
:104C4000ADF9284600F0F2F8FFF7A8F9FFF792F95E
:104C500070BD000002461078334B43F820101078E6
:104C6000401C107010781E2801DB002010702E48A8
:104C700000682D4B5B6818442B4B9B6818442A4BEB
:104C8000DB681844284B1B691844274B5B691844A0
:104C9000254B9B691844244BDB691844224B1B6A43
:104CA0001844214B5B6A18441F4B9B6A18441E4BE7
:104CB000DB6A18441C4B1B6B18441B4B5B6B184482
:104CC000194B9B6B1844184BDB6B1844164B1B6C31
:104CD0001844154B5B6C1844134B9B6C1844124BD7
:104CE000DB6C1844104B1B6D18440F4B5B6D184464
:104CF0000D4B9B6D18440C4BDB6D18440A4B1B6E1F
:104D00001844094B5B6E1844074B9B6E1844064BC6
:104D1000DB6E1844044B1B6F1844034B5B6F184445
:104D20001E2390FBF3F07047EC000020704700005A
:104D300008B508490968C9084FF47A72B1FBF2F165
:104D40004143009100BF00BF00994A1E0092002914
:104D5000F9D108BDE800002010B54FF400711B48E0
:104D6000FDF7F6F91A4908704FF400411948FDF7AC
:104D7000EFF9174948704FF400611448FDF7E8F95E
:104D80001349887010211448FDF7E2F91049C870E2
:104D90004FF480711048FDF7DBF90D4908714FF4AD
:104DA00080410A48FDF7D4F90949487101210948B1
:104DB000FDF7CEF90649887110210648FDF7C8F9BC
:104DC0000349C871FCF76CFB10BD000000100140E6
:104DD0000000002000080140000C014001460329AA
:104DE0000ED0042918D10E4A1268526A12B26FF01E
:104DF000310302FB03F00022094B1B685A620DE0ED
:104E0000084A1268526A12B2322302FB03F00022EF
:104E1000044B1B685A6201E0002000BF00BF7047CE
:104E20000C080020C40700207047000070B504463D
:104E3000002523E000224FF400411248FDF790F9CD
:104E400004F0800028B1012251030E48FDF788F9D3
:104E500005E000224FF400510A48FDF781F90122D4
:104E6000D1030848FDF77CF900224FF400410548C2
:104E7000FDF776F96006040E681CC5B2082DD9DB73
:104E800070BD00000010014070B504460D46002CB6
:104E900006DD00201649087001201649087005E05B
:104EA000012013490870002012490870201E01DB00
:104EB000014600E04142104A12685163002D06DDB0
:104EC00000200E49087001200D49087005E00120FE
:104ED0000A49087000200A490870281E01DB0146B3
:104EE00000E04142074A12685163FCF7B1FA70BD15
:104EF0004000002041000020340700204200002034
:104F000043000020E40800204FF4C8700449086002
:104F100019200449086004480449086070470000EB
:104F2000740000208C000020295C0F3E90000020BF
:104F300010B5FDF745FA10BD00B58FB0282105A8C2
:104F4000FBF77FFA14216846FBF77BFA01200590F6
:104F500000040690002007900120099002200C9088
:104F6000C1030D914FF4E0110E9105A8FDF71EFC51
:104F700008B1FCF7D3FA0F20009002200190002026
:104F800002904FF480600390002004900221684654
:104F9000FDF7E8FA08B1FCF7C1FA0FB000BD7047A1
:104FA00010B50248FEF78BF910BD00007C07002009
:104FB00010B50248FEF783F910BD00005408002028
:104FC00010B50248FEF77BF910BD00009C080020D8
:104FD00010B50268204B98420ED0204B98420BD05F
:104FE000B0F1804F08D01E4B984205D01D4B98421F
:104FF00002D01D4B984203D122F070024B681A4335
:10500000154B98420ED0154B98420BD0B0F1804F03
:1050100008D0134B984205D0124B984202D0124B45
:10502000984203D122F44072CB681A4322F08003E5
:105030004C6943EA040202608B68C3620B688362B6
:10504000054B984202D0054B984201D10B6903638E
:105050000123436110BD0000002C014000340140D9
:105060000004004000080040000C004030B501F092
:105070001F05012404FA05F3046A9C430462046AD0
:1050800001F01F0502FA05F52C43046230BD30B56E
:105090000C46816821F47F4142EA032525432943D8
:1050A000816030BD0A46816821F0700142F007033B
:1050B000194381607047000030B5026A056A25F027
:1050C000010505624368846924F0700424F0030438
:1050D0000D682C4322F002028D682A43104DA8422D
:1050E00000D103E00F4DA84206D100BF22F0080214
:1050F000CD682A4322F00402094DA84202D0094D8E
:10510000A84207D123F4807323F400734D692B4325
:105110008D692B43436084614D684563026230BDF5
:10512000002C01400034014030B5026A056A25F0C8
:10513000100505624368846924F4E04424F4407453
:105140000D6844EA052422F020028D6842EA051227
:10515000124DA84200D103E0114DA84207D100BF73
:1051600022F08002CD6842EA051222F040020B4D87
:10517000A84202D00A4DA84209D123F4806323F447
:1051800000634D6943EA85038D6943EA8503436003
:1051900084614D688563026230BD0000002C0140CF
:1051A0000034014030B5026A056A25F48075056255
:1051B0004368C46924F0700424F003040D682C4390
:1051C00022F400728D6842EA0522124DA84200D1F5
:1051D00003E0114DA84207D100BF22F40062CD6860
:1051E00042EA052222F480620A4DA84202D00A4D0A
:1051F000A84209D123F4805323F400534D6943EAB4
:1052000005138D6943EA05134360C4614D68C563A6
:10521000026230BD002C01400034014030B5036A09
:10522000056A25F4805505624468C26922F4E042AB
:1052300022F440720D6842EA052223F400538D687F
:1052400043EA0533084DA84202D0084DA84204D1D4
:1052500024F480444D6944EA85144460C2614D6879
:105260000564036230BD0000002C014000340140A1
:1052700030B50B461446026A056A25F00105056241
:10528000816921F0F00141EA041122F00A021A4377
:105290008161026230BD30B50B461446026A056A70
:1052A00025F010050562816921F4704141EA04315D
:1052B00022F0A00242EA03128161026230BD70B5A1
:1052C00005466C6A0020E085E0842046FEF780FBFE
:1052D00070BD00BF00BF02680C3252E8002F22F4FC
:1052E000907102680C3242E80013002BF3D100BF2A
:1052F00000BF00BF0268143252E8002F22F0010103
:105300000268143242E80013002BF3D100BF016B96
:1053100001290ED100BF00BF02680C3252E8002FF5
:1053200022F0100102680C3242E80013002BF3D186
:1053300000BF202180F8421000210163704710B5A2
:1053400004462068C06820F040002168C860202022
:1053500084F841002046FEF7CDFD002010BDF8B5D1
:10536000044694F84200222875D1A068B0F5805F09
:105370000CD1206950B90025A66A20684068C0F3A6
:1053800008003080A06A801CA06215E0A56A002693
:10539000A068B0F5805F03D0A06828B9206918B96B
:1053A00020684068287004E02068406800F07F00B2
:1053B0002870A06A401CA062E08D401E80B2E0858B
:1053C000002846D12068C06820F020002168C8600D
:1053D0002068C06820F480702168C8602068406937
:1053E00020F0010021684861202084F8420000205C
:1053F0006063206B012826D10020206300BF00BF1E
:1054000021680C3151E8001F21F0100021680C3197
:1054100041E80002002AF3D100BF2068006800F0D4
:10542000100010280AD100BF0020009020680068FA
:10543000009020684068009000BF00BFA18D20460A
:10544000FEF7B6FA02E02046FEF7FAFC0020F8BDAF
:1054500001E00020FBE70220F9E7000070B50446F8
:105460002168096921F44051E26811432268116101
:105470002269A1681143626941EA02052168C9688D
:1054800041F20C62914329432268D1602168496945
:1054900021F44071A2691143226851612D4A2168AB
:1054A000914202D1FDF73AF901E0FDF727F900EB4F
:1054B000C00101EB001162689200B1FBF2F100EB58
:1054C000C00202EB001263689B00B2FBF3F264239C
:1054D000B2FBF3F202EBC20303EB0212A1EB820177
:1054E000322202EB01116422B1FBF2F101F0F00172
:1054F00000EBC00202EB001263689B00B2FBF3F208
:105500006423B2FBF3F201EB021200EBC00101EBEA
:10551000001163689B00B1FBF3F100EBC00303EBE8
:1055200000136668B600B3FBF6F36426B3FBF6F32C
:1055300003EBC30606EB0313A1EB8301322303EB5A
:1055400001116423B1FBF3F101F00F011144226852
:10555000916070BD0038014010B5034699629A858C
:10556000DA8500205864222083F84200186928B1A7
:105570001868C06840F480701C68E0601868406972
:1055800040F001001C6860611868C06840F02000AD
:105590001C68E060002010BD014691F84100212800
:1055A00028D18868B0F5805F0BD1086948B90A6ACC
:1055B0001088C0F308000B685860086A801C0862F5
:1055C00005E00B6A581C086218780B685860C88C94
:1055D000401E80B2C88458B90868C06820F08000B6
:1055E0000B68D8600868C06840F040000B68D8605D
:1055F000002070470220FCE72DE9F04104460D46EB
:1056000017469846069E34E0701C88B32EB1FCF70E
:10561000ADFDA0EB0800B0422BD900BF00BF216850
:105620000C3151E8001F21F4D07021680C3141E8A1
:105630000002002AF3D100BF00BF00BF216814316F
:1056400051E8001F21F001002168143141E80002F7
:10565000002AF3D100BF202084F8410084F84200E2
:1056600000BF002084F8400000BF0320BDE8F081A7
:10567000FFE7206800682840A84201D1012000E02F
:105680000020B842C0D00020F0E7000010B502486A
:10569000FEF7A0F910BD00002C09002010B5044849
:1056A000FEF798F9322203490148FEF748F910BD88
:1056B000740900209801002000BFFEE70020034984
:1056C00008600349086003490860704774000020BF
:1056D0008C00002090000020490050EAC12018BF33
:1056E00004204A0D18BF40F0010040F2FF72B2EBF7
:1056F000515F08BF40F00200012808BF0520704735
:1057000002480068C0F30220704700000CED00E082
:1057100010B5002804DB0A07130E054A135406E0EF
:105720000A07140E034A00F00F031B1FD45410BDC8
:1057300000E400E018ED00E030380A2801D2012032
:10574000704700207047000070B56548807A0128D6
:105750003FD16448007801281FD0022804D00328D4
:1057600012D004282FD128E05F48006801F080F9AA
:1057700005465E480168284601F02EF8044601F00F
:105780005BF9594908601FE05948016859480068A9
:1057900001F022F85749086016E057480168574859
:1057A000006801F019F855490860554953480068E8
:1057B00001F080F85349086006E053480068C8309B
:1057C0005149086000E000BF00BF002144488172D9
:1057D00084E04348807C01283FD14248007801287A
:1057E0001FD0022804D0032812D004282FD128E08B
:1057F0003D48006801F03CF905463C4801682846F0
:1058000001F080FA044601F017F9374908601FE0FB
:10581000374801683748006801F074FA3549086074
:1058200016E0354801683548006801F06BFA3349E5
:10583000086033493148006801F03CF8314908609C
:1058400006E031480068C8382F49086000E000BF12
:1058500000BF00212248817440E0214890F82200D6
:1058600001280FD129480078401C284908700846B3
:105870000078072801D1002008700021184880F81E
:1058800022102BE01648807E012813D1FCF7A2F8E5
:105890001FA12048FAF7CAFC1E48FAF7B3FD84B2EC
:1058A000322322461B491C48FEF7CBFA00210C4844
:1058B000817613E00A48007B01280FD1094800785F
:1058C000401C0849087008460078052801D10120CD
:1058D0000870FEF759FF00210148017370BD0000F8
:1058E00064010020460000208C0000204C000020B5
:1058F0005000002090000020480000206C00002094
:10590000000048437000002074000020BD0000200B
:1059100030000000CA0100207409002010B50821E1
:105920001048FCF715FC012800D110BD04210E48D9
:10593000FCF70EFC012801D10220F6E74FF480614C
:105940000A48FCF705FC012801D10320EDE74FF4DC
:1059500080510648FCF7FCFB012801D10420E4E754
:105960000020E2E7000C014000140140001001405B
:1059700010B5FFF7D3FF044684B11C4830F834005B
:10598000401C1A4921F83400084630F83400022837
:105990002AD1012001EBC401C87025E0002021E0DC
:1059A000124931F83010452904DD01210F4A02EB7C
:1059B000C00211710D4901EBC001C978012909D15B
:1059C0000A4901EBC001097921B90121074A02EB1B
:1059D000C00291700021054A22F8301002EBC0028B
:1059E000D170401C0528DBDB10BD000064010020E5
:1059F00010B5FFF7A9FE00F023F8FCF711F810BD71
:105A0000FCF7EAFCFFF798FAFEF7F6FAFEF7E2FB7E
:105A1000FEF782FCFEF7BEFCFEF7C4FDFEF7DEFDDE
:105A2000FEF744FCFEF752FDFEF7B6FBFEF7F0FC76
:105A3000FEF726FD00F09EF901E0FFF7D9FFFCE735
:105A400038B5AD48007801285BD002287ED0032805
:105A50007DD0042854D10C23A8A200210846FFF7CA
:105A6000BBF8A84903C900F0DBF904460C23224621
:105A700000213C20FFF718F80C23A3A219460020B0
:105A8000FFF7AAF80C23A2A218210020FFF7A4F820
:105A90000C20012300909F48027818213C20FFF73A
:105AA00025F80C239CA218214820FFF795F80C201C
:105AB000032300909948027818215420FFF716F824
:105AC0000C2397A224210020FFF786F80C20032343
:105AD00000909548027824213C20FFF707F80C231A
