:020000040800F2
:10000000F80F00202D020008615300080343000888
:10001000E1510008611600085D6900080000000059
:10002000000000000000000000000000595D000812
:1000300081180008000000002F580008995E000891
:10004000470200084702000847020008470200086C
:10005000470200084702000847020008470200085C
:10006000470200084702000847020008470200084C
:10007000470200084702000847020008470200083C
:10008000470200084702000847020008470200082C
:10009000470200084702000847020008470200081C
:1000A000470200084702000847020008470200080C
:1000B000095F0008470200084702000847020008DD
:1000C00047020008470200084702000847020008EC
:1000D000470200083169000841690008470200082A
:1000E00047020008470200084702000847020008CC
:1000F00047020008470200084702000847020008BC
:100100004702000847020008195F0008470200087C
:100110004702000847020008295F0008470200085C
:10012000470200084702000847020008470200088B
:1001300000F002F800F06AF80AA090E8000C82448F
:100140008344AAF10107DA4501D100F05FF8AFF26C
:10015000090EBAE80F0013F0010F18BFFB1A43F0A5
:1001600001031847F0E1000010E200000A444FF0DC
:10017000000C10F8013B13F0070408BF10F8014B06
:100180001D1108BF10F8015B641E05D010F8016B4B
:10019000641E01F8016BF9D113F0080F1EBF10F8AF
:1001A000014BAD1C0C1B09D16D1E58BF01F801CBD2
:1001B000FAD505E014F8016B01F8016B6D1EF9D555
:1001C0009142D6D37047000000230024002500266A
:1001D000103A28BF78C1FBD8520728BF30C148BFAA
:1001E0000B60704766290BF02C80642900F0768044
:1001F000002070471FB500F031FD040000200021F1
:1002000009F0B0FEE0601FBD10B510BD00F02AFE81
:100210001146FFF7EFFF08F095FA00F048FE03B42F
:10022000FFF7F2FF03BC00F04DFE000009488047D5
:1002300009480047FEE7FEE7FEE7FEE7FEE7FEE7C8
:10024000FEE7FEE7FEE7FEE704480549054A064BE0
:1002500070470000075F000831010008F80900201E
:10026000F80F0020F80B0020F80B002010B54C1000
:1002700084EA530404D54042C1F1000138BF491E4D
:100280001B4204D55242C3F1000338BF5B1E00F08D
:10029000BAF914F0804F04D04042C1F1000138BFD8
:1002A000491E14F0004F04D05242C3F1000338BF7E
:1002B0005B1E10BD0FB41CB5074B06AA7B446946F4
:1002C0000090059800F08FFC0020694600F09EFC2D
:1002D0001CBC5DF814FB00004D0900002DE9F04145
:1002E0000646002410687529314616A510D0AFF3D4
:1002F0000080002802DA404213A507E031688A072F
:1003000001D512A502E0490704D511A5012401E099
:10031000AFF3008000210A2206F1240709E0B0FBB8
:10032000F2FCB0FBF2F302FB1C00303078541846AC
:10033000491C0028F3D123462A463046BDE8F04147
:1003400000F0E3B9000000002D0000002B000000C9
:10035000200000002DE9F05F894604464FF0000AB6
:10036000DFF824B1FB44C0F820A02046E1688847AC
:1003700000287DD0252806D0D4E901219047206AA5
:10038000401C2062F1E700255F462046E16888476F
:100390002028064607DB312E05D2B81910F8200CAC
:1003A00008B10543F1E7A80701D525F00405C4F815
:1003B0001CA00027C4F818A02A2E09D0304606F049
:1003C0009BFB38B304EB8708303EC8F8186019E08F
:1003D00059F8041B204604EB87029161E1688847C5
:1003E000012F064618D1E069002820DA25F0200503
:1003F0001DE0D8F8180000EB800006EB4000303814
:10040000C8F818002046E1688847064606F074FBE5
:100410000028EED1012F0AD02E2E08D12046E16807
:1004200088477F1C0646022F45F02005C4DBA069E3
:10043000002803DA404245F00105A061E80701D039
:1004400025F01005A6B1A6F14100192802D82036E2
:1004500045F400654A463146204625604D46FFF783
:10046000C1FE60B1012807D0ED1D25F0070000E0B6
:1004700007E000F1080978E705F1040975E730465F
:100480007AE7206ABDE8F09F50DE000040EA0103F1
:1004900010B59B070FD1042A0DD310C808C9121F2D
:1004A0009C42F8D020BA19BA884201D9012010BD67
:1004B0004FF0FF3010BD1AB1D30703D0521C07E034
:1004C000002010BD10F8013B11F8014B1B1B07D198
:1004D00010F8013B11F8014B1B1B01D1921EF1D109
:1004E000184610BD10B5431C02E010F8011B71B195
:1004F0008107FAD14FF0013202C88C1A8C4314EAFA
:10050000C211F9D0C01A0A0603D0C01E10BDC01A0D
:1005100010BD0A0401D0801E10BD0902FCD0401E8F
:1005200010BD02F0FF0343EA032242EA024200F058
:1005300074BB4FF0000200B513469446964620392E
:1005400022BFA0E80C50A0E80C50B1F12001BFF48C
:10055000F7AF090728BFA0E80C5048BF0CC05DF8F2
:1005600004EB890028BF40F8042B08BF704748BF40
:1005700020F8022B11F0804F18BF00F8012B7047B4
:100580004FF0013C50F8042B51F8043B9A4221D122
:10059000A2EB0C03934313EACC1317D150F8042BAE
:1005A00051F8043B9A4215D1A2EB0C03934313EA92
:1005B000CC130BD150F8042B51F8043B9A4209D1CB
:1005C000A2EB0C03934313EACC13DBD04FF00000F3
:1005D000704700BFD01A01BAB1FA81F101F01801D9
:1005E00022FA01F0CB40C1F12001DBB2C0B2C01A47
:1005F0002CFA01F3D11A914311EAC311E6D17047E5
:1006000070477047704753EA020C00F069802DE98B
:10061000F04B4FF00006002B1FBFB3FA83F503FA2F
:1006200005F424FA05F65E4012BF1643B2FA82F5CD
:1006300002FA05F4C5F120051EBF22FA05FC44EAC2
:100640000C04203556EA044C4FEA144418BF641CCD
:100650004FF000084FF00009904271EB030C39D3C2
:10066000002919BFB1FA81F701FA07F6B0FA80F74D
:1006700000FA07F6C7F120071EBF20FA07FC46EA7A
:100680000C062037B6FBF4FCA7EB0507103F07F07C
:100690001F0BCBF120060CFA0BFB2CFA06F644BF1D
:1006A000B3460026202FA4BF5E464FF0000B5BEA46
:1006B000060C08BF4FF0010B19EB0B09ABFB027CDA
:1006C00048EB0608C01B06FB02CC0BFB03CC71EB0E
:1006D0000C01C1E70B46024641464846BDE8F08B97
:1006E00013B54FF000004FF00001AFF30080BDE8FC
:1006F0001C40704710B500F0B5FA006810BD10B589
:10070000044600F0AFFA046010BD2DE9F0470D4635
:1007100099469246044600F124080168880604D5EB
:10072000E06921F01001216000E00120A84201DD14
:10073000471B00E00027A1697A1902EB0900081A9B
:10074000A0612078C00602D42046AFF300800026C6
:1007500008E0D4E901211AF806009047206A401CFD
:10076000761C20624E45F4DB2078C0060AD5204670
:10077000AFF3008006E0D4E9012130209047206AE1
:10078000401C2062381EA7F10107F4DC07E0D4E921
:10079000012118F805009047206A401C2062281E9D
:1007A000A5F10105F3DC2046AFF3008020780006B8
:1007B00002D50220BDE8F0870120FBE770472DE954
:1007C000FF4F0C461E464FF0FF378BB0D2E90001B9
:1007D000DDF860800A908A46C1F30A5505B93D46A6
:1007E000002108464FF00000BAF1000F00F440006D
:1007F00005DA00EB80004FF4400101EA50004FEAB7
:100800009059B9F1010F00DDB9460A9850EA4A0043
:100810000ED044F61050A5F2FF3545432F14B8F121
:10082000000F1ED07542291E1EDDC9F100021CE01A
:10083000B8F1010F4FF0000001D0302103E0F24386
:1008400005E02154401CB042FBDB30460022002171
:1008500021540B99C1F80880C1E900200FB0BDE810
:10086000F08FBD1B6D1CDEE74A4600DA694206A820
:1008700000F082FA06AB93E8070003AB83E80700B9
:1008800050460A9900F024FB8DE80700A0F50050BF
:100890001F3800900398002D0ADD42F21F014A46DE
:1008A0000844002303A90390684600F08DFD09E089
:1008B000A0F500504A461F38002303A9039068465C
:1008C00000F097FD8DE807000004000C03D04FF006
:1008D000FF30410800E01046B8F1000F03D00022BD
:1008E000009215461EE0751E05D400F0BFF93032A7
:1008F00062556D1EF9D5B3460122084302D000228D
:100900007F1C04E02078302801D100227F1E002ABD
:10091000099784D01DE0112D07DA00F0A7F93032D5
:1009200062556D1C50EA0102F5D1084302D00098CF
:10093000C8B10EE00021681E05E0235C625C6354D0
:100940002254401E491C8142F7DBAB46A81B401EC7
:100950000990002004F80B000B98099AC0F8088051
:10096000C0E9002B7AE711264FF0000857E72DE980
:10097000F04F88460446D21D22F0070191B0D1E91C
:100980000001CDE90A0106F01FF802460B98C00FDE
:1009900001D02D2007E02068810701D52B2002E03F
:1009A000202101EAC000032A099001D0072A05DBB3
:1009B00003464146204600F09FF90BE1207880066F
:1009C00001D5E06900E00620B8F1650F814606D048
:1009D000B8F1660F18D0B8F1670F70D131E0002080
:1009E000B9F1110F009001DB112301E009F10103BE
:1009F0000AAA01A90CA8FFF7E2FEDDE90C700026A7
:100A000009F10105834647E001204B4600904FF075
:100A100000470AAA01A90CA8FFF7D1FEDDE90DB035
:100A20000C995D46002610B909F101000D18B9EBCB
:100A3000050003D4C0F1FF3609F10105A5EB09005B
:100A40002BE0B9F1010F01DA4FF001090020B9F1F3
:100A5000110F0090484601DD112300E003460AAA69
:100A600001A90CA8FFF7ABFEDDE90C704D4600268E
:100A70008346207800070AD4AB4500DA5D4601A81A
:100A8000012D04DD411911F8011C302907D04F4513
:100A900002DA17F1040F04DA012082460FE06D1E1E
:100AA000EEE7002F02DCED1B3E4403E0781CA84279
:100AB00000DD7D1CB81B00F1010A4FF000472078D3
:100AC000000703D4AA4501DB4FF0FF3A0021B7F13C
:100AD000004F0DF143088DF8431024D002202B2342
:100AE000002F01DA7F422D230A21021EA0F101000E
:100AF00000DC5FB197FBF1FC97FBF1F201FB1C7C82
:100B000017460CF1300C08F801CDEEE7A8F1010012
:100B100003702188090501D5452100E06521A0F178
:100B2000010800F8011C09980FA9A1EB0807FF1D97
:100B300000B10120411901EBEA70A1693844081A9B
:100B4000401EA0612078C00602D42046AFF300808A
:100B5000099828B1D4E901219047206A401C2062FD
:100B60002078C00622D52046AFF300801EE0002E7C
:100B700004DBB34502DD01A8805D00E03020D4E94C
:100B800001219047206A401C2062761CAAF10100D6
:100B90005FEA000A0AD100F061F8C0680168405CB1
:100BA000D4E901219047206A401C2062281EA5F14B
:100BB0000105DCDC07E0D4E9012118F8010B9047BE
:100BC000206A401C2062381EA7F10107F3DC204692
:100BD000AFF30080032011B041E6000001694A1C18
:100BE00002610878704700B58FB0CDE9013100216E
:100BF000059105497944CDE9031011466846FFF790
:100C0000A9FB0FB000BD0000E5FFFFFF0A6802F876
:100C1000010B0A6070474FF000020429C0F01280F7
:100C200010F0030C3FF487ACCCF1040CBCF1020FC4
:100C300018BF00F8012BA8BF20F8022BA1EB0C0174
:100C4000FFF779BC5FEAC17C24BF00F8012B00F8F4
:100C5000012B48BF00F8012B704700000048704787
:100C6000B8090020004870479809002030B5B0F15D
:100C70000A024FEA900E71F100034EEA817EB0EB5A
:100C80000E0061EB91014FEA101E4EEA017E10EB5F
:100C90000E0041EB11114FEA102E4EEA016E10EBDF
:100CA0000E0041EB11214FEA104E4EEA014E10EBBF
:100CB0000E0041EB1141401841F100014FEAD00014
:100CC00040EA41704FEAD10110EB80054FEA810400
:100CD00044EA907444EB01046D1944EB0404521B84
:100CE000A3414FF0000348BF0A3200D530BD401C7D
:100CF00041F1000130BD00002DE9F0411F460446DE
:100D000003260168072A01F4006004DB08B116A578
:100D100005E016A503E008B115A500E015A521F032
:100D200010002060A069C01EA0610FB1401EA0612C
:100D30002046AFF300804FB1D4E9012138469047F7
:100D4000206A401C2062C01C206206E0206AFAE78C
:100D5000D4E9012115F8010B9047761EF8D2204600
:100D6000AFF30080BDE8F0814E414E006E616E0031
:100D7000494E4600696E66002DE9F04781461646E9
:100D80008AB0354878440DC88DE80D003248784463
:100D9000801C03AC0DC884E80D0041F69B3008446C
:100DA000372190FBF1F290FBF1F5A5F1800501FBF5
:100DB00012041B3C02D56442012000E00020DFF851
:100DC00098A080460027FA44AAF1BE0A0EE0E00788
:100DD0000AD03246684607EB470101230AEB81013E
:100DE00000F007FB8DE8070064107F1C002CEED19B
:100DF000194F7F44AE3F19E0E80715D007EB041008
:100E00000DF1180A90E80E008AE80E00C068F04262
:100E100001D1981908903246012306A903A800F0D1
:100E2000E8FA03AB83E807006D10641C002DE3D1E2
:100E30004FF0010332466946B8F1000F03A802D013
:100E400000F0C2FA01E000F0D4FAC9E90001C9F8E3
:100E500008200AB0BDE8F087B4D50000004870470C
:100E6000980900207546FFF7F9FFAE460500694670
:100E7000534620F00700854618B020B5FFF7E4F987
:100E8000BDE820404FF000064FF000074FF000088B
:100E90004FF0000B21F00701AC46ACE8C009ACE80C
:100EA000C009ACE8C009ACE8C0098D46704710B570
:100EB0000446AFF300802046BDE81040FFF7AFB90D
:100EC0007047000001491820ABBEFEE72600020073
:100ED0005FEA400C08BF91F0000F4FEA8C234FEA05
:100EE000C12243EA51514FEA1C5018BF00F5F040AF
:100EF0004FEA300018BF41F000415FEA6C5C00F03F
:100F00002980BCF1FF3F08BF40F080407047130CC0
:100F100006BF12044FF0100C4FF0000C130E04BF6C
:100F200012020CF1080C130F04BF12010CF1040C97
:100F3000930F04BF92000CF1020CD30F04BF5200B8
:100F40000CF1010C11464FF00002A0F11F00A0EBC4
:100F50000C00704711F0004F08BF704731F000419E
:100F60003FF4D5AF0B0C06BF09044FF0100C4FF047
:100F7000000C0B0E04BF09020CF1080C0B0F04BF90
:100F800009010CF1040C8B0F04BF89000CF1020C59
:100F9000CB0F04BF49000CF1010CCCF12003A0EBF6
:100FA0000C0022FA03F302FA0CF241EA030100F109
:100FB0000100704720F07F4C80EA030023F07F4758
:100FC000ACEB070303F57C5300F0004003F1FF0393
:100FD0002DE980494FEA154B09B44FEA144325EA3D
:100FE0000B4E24EA03480FF2042606EB13274908A8
:100FF0003E785FEA320203FB0667C7F5000707FB8E
:1010000006F64FEA54374FEAD64606F1020607FBCA
:10101000066CCCF1005C4FEA1C472CEA074C07FB3E
:1010200006F40CFB06F504EB15464FEA961634BFA2
:1010300000204FF000404FEAD13706FB07FC4FEA93
:101040001C4C0CFB0BF7D21B03FB0CF761EB0701ED
:101050000CFB0EF7B0EB074072EB17420CFB08F7E6
:1010600034BFA2EB0742B2EB074261EB17414FEAF4
:101070000C444FEA910706FB07FC4FEA1C4C0CFBA3
:101080000BF7B0EBC74072EB573203FB0CF734BFE2
:10109000A2EBC742B2EBC74261EB57310CFB0EF734
:1010A000B0EBC70072EB57720CFB08F734BFA2EB32
:1010B000C702B2EBC70261EB5771039F4FEA816130
:1010C00041EA921104EBCC044FEAD1374FEA826235
:1010D00006FB07FC42EA90124FEA80604FEA1C4C84
:1010E0000CFB0BF7D21B03FB0CF761EB07010CFBAE
:1010F0000EF7B0EB074072EB17420CFB08F734BF5A
:10110000A2EB0742B2EB074261EB17414FEA8C5565
:101110004FEA910704EB9C2406FB07FC4FEA1C4CAA
:101120000CFB0BF7B0EBC74072EB573203FB0CF72D
:1011300034BFA2EBC742B2EBC74261EB57310CFBA5
:101140000EF7B0EBC70072EB57720CFB08F734BF19
:10115000A2EBC702B2EBC70261EB577115EB4C254E
:101160004FEA816141EA92114FEA82624FEAD13738
:1011700042EA901206FB07FC44F100044FEA80604B
:101180004FEA1C4C0CFB0BF7D21B03FB0CF761EB7B
:1011900007010CFB0EF7B0EB074072EB17420CFB9C
:1011A00008F734BFA2EB0742B2EB074261EB1741ED
:1011B00015EB1C154FEA813141EA92414FEA823228
:1011C00042EA90424FEA80304FEA0C7644F1000444
:1011D00048EA03434EEA0B484FF0000EB2EB080C0E
:1011E00071EB030724BF624639464EEB0E0E4FF0FB
:1011F000000B0018524149414BEB0B0BB2EB080CB2
:1012000071EB03077BF1000B24BF624639464EEBBE
:101210000E0E4FF0000B0018524149414BEB0B0BE7
:10122000B2EB080C71EB03077BF1000B24BF6246A5
:1012300039464EEB0E0E51EA020718BF46F0010682
:1012400016EB0E7655F1000254F1000103D5BDE80E
:101250008901BDE80088BDE88901BDE80048B619EC
:10126000524141EB0101A3F10103704780807F7E71
:101270007D7C7B7A7978777676757473727171700C
:101280006F6E6E6D6C6C6B6A6A69686867666665BE
:101290006464636362616160605F5F5E5E5D5D5C4C
:1012A0005C5B5B5A5A5959585857575656555555BD
:1012B0005454535352525251515050504F4F4F4E1D
:1012C0004E4D4D4D4C4C4C4B4B4B4A4A4A4949496B
:1012D00048484847474747464646454545444444AD
:1012E000444343434342424242414141002B9C46D6
:1012F00030D477002BD01CB54FEA370703B44FF03A
:1013000010004FF01001BAF1000F06D0BCF1000F31
:10131000DCBF40F0080040F008014FF000000FBCB7
:10132000BDE810400BF1010BBBF1010F08BF5FEAF4
:10133000170722BF12F1010211F101014FF0004124
:1013400043F1000300F0004043EA00007047F9D386
:101350005708D0E746EA064613F1400F4FEA164613
:101360001FDD13F1200FDFBF16430A460021203393
:101370005B42BED0C3F1200746EA064602FA07F7F1
:101380004FEA164646EA0706C3F1200722FA03F29F
:1013900001FA07F721FA03F14FF0000342EA0702CE
:1013A000A7E746EA020646EA06464FEA164646EA36
:1013B0000106BCBF46EA0646360C4FF000034FF06C
:1013C00000024FF0000194E72DE9804C9A469346C5
:1013D00070B491E8380007C831EA400C48BF34EADD
:1013E000430C03D5FFF7E6FDFFF780FFF0BCBDE837
:1013F000008C2DE9804C9A46934670B491E83800F1
:1014000007C810F0804F08BF13F0804F03D100F0E1
:1014100005F8FFF76BFFF0BCBDE8008C20F07F47BC
:1014200080EA030023F07F4C07EB0C03A3F57C5309
:1014300000F00040A3F1FE0392F0000F00F0B38033
:1014400095F0000F00F077802DE901494FEA114037
:101450004FEA144621EA004800FB06FC24EA06474E
:1014600008FB06F607FB08F800FB07F718EB064831
:101470004CEB164C4FEA124B18EB07484FEA154657
:101480004CEB174022EA0B4E0BFB06FC25EA064705
:101490000EFB06F607FB0EFE0BFB07F71EEB064ED8
:1014A0004CEB164C4FF000061EEB074E4CEB174B67
:1014B00018EB0B0840F1000018EB0E0B58EB00087E
:1014C00040F100008F1A4FF000013CBFC943661B7A
:1014D00014BFB5EB040C00213CBFC943F61B4FEA17
:1014E00017444EEA8E0E27EA04454FEA1C4704FBD8
:1014F00007622CEA074C05FB07F70CFB05F604FB1B
:101500000CFC16EB074642EB174216EB0C4642EB7F
:101510001C421BEB060658EB0202414146EA9E06BE
:1015200001D5BDE80189B619524141EB0101A3F192
:101530000103BDE801894FEA14454FEA114724EA47
:10154000054621EA074C05FB07F406FB07F70CFBF1
:1015500006F105FB0CFC11EB074144EB17444FEA85
:10156000124711EB0C4144EB1C4422EA074C05FBEB
:1015700007F206FB07F70CFB06F605FB0CFC16EB67
:10158000074642EB174216EB0C4642EB1C456A1825
:1015900054F1000148BF7047B619524141EB0101B7
:1015A000A3F10103704795F0000F37D04FEA1142C5
:1015B0004FEA144721EA024624EA074C02FB07F1EE
:1015C00006FB07F70CFB06F402FB0CFC14EB0744CC
:1015D00041EB17414FEA154714EB0C4441EB1C411A
:1015E00025EA074C02FB07F506FB07F70CFB06F69E
:1015F00002FB0CFC16EB074645EB174516EB0C46B9
:1016000045EB1C42121951F1000148BF7047B61951
:10161000524141EB0101A3F1010370474FEA144528
:101620004FEA114724EA054621EA074C05FB07F17A
:1016300006FB07F70CFB06F24FF0000605FB0CFC5F
:1016400012EB074241EB174112EB0C4251EB1C41EC
:1016500048BF7047921841EB0101A3F101037047A5
:1016600000BFFEE710B501222021024800F0B6FCC1
:1016700010BD00000010014010B5002220210248DA
:1016800000F0ACFC10BD00000010014010B558483F
:101690000CC80020014608F015FF0AD8554A564BE1
:1016A000534903C908F00EFF03D2052053490870BF
:1016B0009DE04F480CC84F484F4908F003FF0AD837
:1016C0004C4A4F4B4A4903C908F0FCFE03D206209E
:1016D0004A4908708BE046480CC84648484908F01B
:1016E000F1FE0AD8474A484B414903C908F0EAFECF
:1016F00003D207204149087079E03D480CC84148B1
:10170000414908F0DFFE0AD8404A414B384903C935
:1017100008F0D8FE03D208203849087067E0344842
:101720000CC83A483A4908F0CDFE0AD8394A3A4B33
:101730002F4903C908F0C6FE03D209202F490870BB
:1017400055E02B480CC83348334908F0BBFE0BD892
:101750004FF06632314B264903C908F0B3FE03D27D
:101760000A202649087042E021480CC84FF0663034
:101770002A4908F0A7FE0AD8294A2A4B1C4903C95E
:1017800008F0A0FE03D20B201C4908702FE0184877
:101790000CC82348234908F095FE0AD8224A234B57
:1017A000134903C908F08EFE03D20C2013490870B8
:1017B0001DE00F480CC81C481C4908F083FE0BD8DC
:1017C0004FF066321A4B0A4903C908F07BFE03D278
:1017D0000D200A4908700AE005480CC84FF0663031
:1017E000134908F06FFE02D80E200449087010BD9E
:1017F000E8000020295C8FC2F528DC3F2D01002085
:10180000F528EC3F48E17A14AE47F93F3D0AD7A3EB
:10181000703D024052B81E85EB51084066660E408E
:10182000A4703D0AD7A310401F85EB51B81E12408B
:101830006666144010B50C48027804210B4800F08D
:10184000CDFB0B48027802210A4800F0C7FB0A488A
:1018500002780121054800F0C1FB08480278022106
:10186000024800F0BBFB10BD420000200010014008
:1018700043000020000801404000002041000020FB
:10188000704700001C4991F900101C4A127851431E
:10189000194A92F90120194B5B7802FB0311164A91
:1018A00092F90220154B9B7802FB0311124A92F920
:1018B0000320124BDB7802FB03120F4991F904104D
:1018C0000E4B1B7901FB03220B4991F905100B4BC1
:1018D0005B7901FB0321084A92F90620074B9B79AB
:1018E00002FB0311044A92F90720044BDB7902FB47
:1018F000031148B2704700000800002000000020DB
:1019000072B600BFFEE700002DE9F05F39490968B3
:10191000394A12681144394A1268881A09F0B4FA2F
:10192000374908603748006809F0E2F806464FF08A
:101930006632354B08F002FE04460D46304800681A
:1019400009F0D6F806464FF03332304B08F0F6FD7A
:10195000804622462B4608F04DFB824608F018FBD5
:101960002B49086008460068264908602948016834
:101970002748006809F0F0FB044627480168204624
:1019800009F0E2F82449086024492348006809F076
:10199000A7FB02D221482049086021491E4800685F
:1019A00009F09EFA02D21E481B4908601D480078C3
:1019B000012802D01C48007810B9002016490860A0
:1019C0001A4801681448006809F0BEFA044618482D
:1019D00001680F48006809F0B7FA0546214609F08A
:1019E000B3F8144908600846006809F011FABDE828
:1019F000F09F00002400002028000020B8000020F4
:101A000098000020A00000206666E63F3333D33FF5
:101A10009C000020A4000020A800002000803B457E
:101A200000803BC54400002045000020B00000209D
:101A3000AC0000209400002010B50146064A126850
:101A40004A43064B1B68CB1A054C246804FB032051
:101A5000024A116010BD0000C4000020C000002038
:101A6000C80000200146002291F82100022808D079
:101A70000420886300BF002081F8200000BF0120FF
:101A800070470868006820F00E000B68186008684E
:101A9000006820F001000B68186091F840300120C8
:101AA0009840CB6B5860012081F8210000BF0020D6
:101AB00081F8200000BF1046E2E7000070B5044640
:101AC000002594F82100022803D00420A0630125FA
:101AD000C1E02068006820F00E00216808602068DE
:101AE000006820F00100216808605C492068884295
:101AF00052D95A4978392068884201D1012047E0FB
:101B0000564964392068884201D1102040E0534989
:101B100050392068884201D1801539E04F493C395D
:101B20002068884201D1801432E04C49283920686D
:101B3000884202D14FF480302AE0484914392068A5
:101B4000884202D14FF4801022E044492068884244
:101B500001D140041CE042492068884201D10120A3
:101B600016E03F4914312068884201D110200FE06F
:101B70003B4928312068884201D1801508E0384966
:101B80003C312068884201D1801401E04FF480305C
:101B90003349091F086051E030497839206888428C
:101BA00001D1012047E02D4964392068884201D1E4
:101BB000102040E0294950392068884201D1801521
:101BC00039E026493C392068884201D1801432E04E
:101BD000224928392068884202D14FF480302AE017
:101BE0001E4914392068884202D14FF4801022E047
:101BF0001A492068884201D140041CE01849206835
:101C0000884201D1012016E015491431206888422C
:101C100001D110200FE0124928312068884201D1FB
:101C2000801508E00E493C312068884201D18014BB
:101C300001E04FF48030094980394860012084F880
:101C4000210000BF002084F8200000BF606B10B1AD
:101C50002046616B8847284670BD00008000024026
:101C60000804024070B5044600F0BEF90646254659
:101C7000681C10B104480078054400BF00F0B4F9B6
:101C8000801BA842FAD370BD580100202DE9F84707
:101C9000024600239C467BE14FF0010808FA03F45A
:101CA000D1F8008008EA0400A0427DD1DFF8F4A258
:101CB000D1F80480A8EB0A09D0453AD014DCB8F179
:101CC000030F50D009DCB8F1000F31D0B8F1010F8B
:101CD0001CD0B8F1020F49D120E0B8F1110F18D093
:101CE000B8F1120F42D11EE0B9F5881F25D006DCED
:101CF000B9F5803F20D0B9F5801F37D11AE0B9F58A
:101D0000001F18D0B9F5041F30D117E0D1F80CC06E
:101D10002DE0D1F80C8008F1040C28E0D1F80C80FB
:101D200008F1080C23E0D1F80C8008F10C0C1EE03F
:101D300000BF00BF00BF00BF00BF00BFD1F80880D8
:101D4000B8F1000F02D14FF0040C0BE0D1F808807D
:101D5000B8F1010F03D14FF0080C146102E04FF00D
:101D6000080C546103E04FF0000C00E000BF00BF1E
:101D7000FF2801D8904601E002F104084646FF28FA
:101D800002D84FEA830803E0A3F108084FEA880865
:101D90004746D6F800804FF00F0909FA07F928EAFC
:101DA00009080CFA07F900E07AE048EA0908C6F8E1
:101DB0000080D1F8048008F08058B8F1805F6FD1BE
:101DC00000BFDFF8E481D8F8188048F00108DFF898
:101DD000D891C9F81880C846D8F8188008F00108CA
:101DE000CDF8008000BF00BF4FEAB9384FEA930931
:101DF00058F829504FEA83784FEA18794FF00F08C6
:101E000008FA09F825EA0805DFF8A081424502D161
:101E10004FF0000824E0DFF89881424502D14FF0EE
:101E200001081DE0DFF88C81424502D14FF0020825
:101E300016E0DFF88481424502D14FF003080FE03D
:101E4000DFF87881424502D14FF0040808E0DFF85E
:101E50007081424502D14FF0050801E04FF00608BD
:101E60004FEA83794FEA197908FA09F848EA050533
:101E7000DFF850814FEA930948F82950D1F80480DF
:101E800008F48018B8F5801F0BD1DFF83C81D8F832
:101E9000008048EA0008DFF83091C9F800800AE0C5
:101EA00075E0DFF82481D8F8008028EA0008DFF820
:101EB0001891C9F80080D1F8048008F40018B8F52A
:101EC000001F0ED1DFF8008108F10408D8F8008067
:101ED00048EA0008DFF8F09009F10409C9F8008029
:101EE0000DE0DFF8E48008F10408D8F8008028EA63
:101EF0000008DFF8D49009F10409C9F80080D1F88E
:101F0000048008F40038B8F5003F0ED1DFF8B8803F
:101F1000A8F10408D8F8008048EA0008DFF8A89083
:101F2000A9F10409C9F800800DE0DFF89C80A8F150
:101F30000408D8F8008028EA0008DFF88C90A9F19E
:101F40000409C9F80080D1F8048008F48038B8F595
:101F5000803F0ED1DFF87080A8F10808D8F8008023
:101F600048EA0008DFF86090A9F10809C9F8008084
:101F70000DE0DFF85480A8F10808D8F8008028EABE
:101F80000008DFF84490A9F10809C9F800805B1C3B
:101F9000D1F8008028FA03F8B8F1000F7FF47CAE86
:101FA000BDE8F88700001110001002400008014051
:101FB000000C0140001001400014014000180140D5
:101FC000001C0140080001400804014002469368DB
:101FD0000B400BB1012000E0002070470AB1016105
:101FE00001E00B040361704701480068704700007E
:101FF0005001002070B504460CB9012070BD94F862
:102000003D0028B9002084F83C00204600F03EFB4B
:10201000242084F83D002068006820F00100216839
:1020200008602068006840F400402168086020686B
:10203000006820F400402168086000F001FD0546BA
:102040005C496068884206D85B48854201D201201D
:1020500007E0002005E05948854201D2012000E058
:102060000020012800D1C9E75548B5FBF0F62068EB
:10207000406820F03F003043216848604D49606867
:10208000884201D8701C07E04FF4967070434FF4FB
:102090007A71B0FBF1F0401C2168096A21F03F0120
:1020A00008432168086243496068884214D8681E62
:1020B00061684900B0FBF1F0401CC0F30B0004283C
:1020C00001D204203DE0681E61684900B0FBF1F0D8
:1020D000401CC0F30B0034E0A06838B9681E61688A
:1020E00001EB4101B0FBF1F0401C0AE0681E6168A1
:1020F00001EBC10202EB0111B0FBF1F0401C40F416
:102100008040C0F30B0008B901201AE0A06848B96C
:10211000681E616801EB4101B0FBF1F0401CC0F3A7
:102120000B000CE0681E616801EBC10202EB0111BB
:10213000B0FBF1F0401CC0F30B0040F4804040F4D1
:1021400000402168C9694CF6FF7291430843216839
:10215000C861D4E9070108432168096821F0C0017A
:10216000084321680860D4E903100843216889689E
:1021700048F2FF329143084321688860D4E90501A1
:1021800008432168C96821F0FF0108432168C8603D
:102190002068006840F00100216808600020206489
:1021A000202084F83D000020206384F83E0000BF1A
:1021B00024E70000A086010080841E0000093D0085
:1021C00040420F002DE9FE4F04460F4690469946C7
:1021D000DDE90CAB0E9E00200290FFF705FF0546DF
:1021E00094F83D00202872D119230122CA492046C3
:1021F000009502F05CFA10B10220BDE8FE8F00BF2E
:1022000094F83C00012801D10220F6E7012084F86F
:102210003C0000BF2068006800F0010028B9206879
:10222000006840F00100216808602068006820F420
:10223000006021680860222084F83D00402084F876
:102240003E0000202064C4F824A0A4F82AB0608DC9
:102250002085B248E0624B46424639462046CDE9E9
:10226000006502F093F808B10120C6E7208D88B917
:1022700000BF0020019020684069019020688069BB
:10228000019000BF00BF2068006840F40070216822
:1022900008604BE0208D01281AD12068006820F4E6
:1022A00080602168086072B600BF0020019020683D
:1022B0004069019020688069019000BF00BF2068DC
:1022C000006840F400702168086062B62EE020E1EA
:1022D000208D022819D12068006840F40060216830
:1022E000086072B600BF002001902068406901902C
:1022F00020688069019000BF00BF2068006820F45A
:1023000080602168086062B610E02068006840F4D0
:1023100080602168086000BF00200190206840694B
:10232000019020688069019000BF00BFE2E0208D2D
:1023300003287DD8208D012815D12A463146204614
:1023400002F091FA08B1012057E720680069616A3C
:102350000870606A401C6062208D401E2085608D80
:10236000401E6085C6E0208D02282CD13346002215
:102370006B492046009502F09AF908B101203CE72C
:1023800072B62068006840F4007021680860206818
:102390000069616A0870606A401C6062208D401E9E
:1023A0002085608D401E608562B620680069616A84
:1023B0000870606A401C6062208D401E2085608D20
:1023C000401E608596E03346002255492046009520
:1023D00002F06DF908B101200FE72068006820F4D1
:1023E00080602168086072B620680069616A0870C0
:1023F000606A401C6062208D401E2085608D401EFA
:102400006085484800681921B0FBF1F04FF47A71FB
:10241000B0FBF1F0C0EBC00000EB8000029000BF09
:102420000298401E02900298A8B90020206300E0A4
:1024300039E0202084F83D00002084F83E00206C24
:1024400040F02000206462B600BF002084F83C0009
:1024500000BF0120D1E620684069C0F38000002859
:10246000DED02068006840F40070216808602068B1
:102470000069616A0870606A401C6062208D401EBD
:102480002085608D401E608562B620680069616AA3
:102490000870606A401C6062208D401E2085608D3F
:1024A000401E608526E02A463146204602F0DBF9D0
:1024B00008B10120A1E620680069616A0870606ABD
:1024C000401C6062208D401E2085608D401E60850E
:1024D00020684069C0F3800060B120680069616ACB
:1024E0000870606A401C6062208D401E2085608DEF
:1024F000401E6085208D00287FF419AF202084F8CD
:102500003D00002084F83E0000BF84F83C0000BF7E
:1025100073E6022071E60000020010000000FFFFD9
:10252000040001005C0100202DE9FC5F04460F4619
:1025300090469946DDE90CAB0E9EFFF755FD05462A
:1025400094F83D0020287DD1192301224D492046D1
:10255000009502F0ACF810B10220BDE8FC9F00BF6E
:1025600094F83C00012801D10220F6E7012084F80C
:102570003C0000BF2068006800F0010028B9206816
:10258000006840F00100216808602068006820F4BD
:10259000006021680860212084F83D00402084F814
:1025A0003E0000202064C4F824A0A4F82AB0608D66
:1025B00020853548E0624B46424639462046CDE903
:1025C000006501F093FF08B10120C6E731E02A461B
:1025D0003146204602F08CF950B1206C042805D118
:1025E0002068006840F40070216808600120B4E7AA
:1025F000606A007821680861606A401C6062208D12
:10260000401E2085608D401E608520684069C0F3B3
:10261000800070B1208D60B1606A00782168086127
:10262000606A401C6062208D401E2085608D401EC7
:102630006085208D0028CAD12A463146204602F006
:1026400003F800E01CE050B1206C042805D120689C
:10265000006840F400702168086001207DE7206870
:10266000006840F4007021680860202084F83D0074
:10267000002084F83E0000BF84F83C0000BF6CE7F7
:1026800002206AE7020010000000FFFF10B586B0CC
:10269000044600200290039004900590164920689B
:1026A000884226D100BF1548806940F008001349D0
:1026B00088610846806900F00800019000BF00BFF3
:1026C0004FF440600290122003900320059002A96D
:1026D0000B48FFF7DBFA00BF0848C06940F48000F0
:1026E0000649C8610846C06900F48000019000BF37
:1026F00000BF06B010BD00000058004000100240AE
:10270000000C014003480068034909780844014966
:1027100008607047500100205801002010B508489B
:10272000006840F0100006490860032000F0A8F897
:102730000F2000F007F800F02BF8002010BD00007B
:102740000020024070B504460E4800784FF47A71BC
:10275000B1FBF0F00C490968B1FBF0F5284600F038
:10276000F9FB08B1012070BD102C07D200222146D0
:10277000501E00F047F80548046001E00120F2E730
:102780000020F0E7580100205C01002054010020E7
:1027900008B500BF1148806940F001000F49886109
:1027A0000846806900F00100009000BF00BF00BF34
:1027B0000846C06940F08050C8610846C06900F012
:1027C0008050009000BF00BF00BF0549486820F05E
:1027D000E06040F00070486000BF08BD001002409B
:1027E0000000014001460846002809DB00F01F03F5
:1027F00001229A4043099B0003F1E023C3F8002122
:1028000000BF70472DE9F05F80460D461646002751
:1028100004F0EEF8074639462A46334601F0070031
:10282000C0F1070ABAF1040F02D94FF0040A01E01F
:10283000C0F1070AD14600F1040ABAF1070F02D22B
:102840004FF0000A01E0A0F1030AD4464FF0010A5C
:102850000AFA09FAAAF1010A0AEA020A0AFA0CFAC1
:102860004FF0010B0BFA0CFBABF1010B0BEA030B66
:102870004AEA0B042146404604F0C2F8BDE8F09F46
:1028800000BF00F00702064B19684FF6FF0319401E
:10289000044B0B4343EA0221014B196000BF704710
:1028A0000CED00E00000FA0570B504460D460CB9C9
:1028B000012070BD5A48006800F00700A8420ED2FF
:1028C0005748006820F0070028435549086008462B
:1028D000006800F00700A84201D00120E9E7207855
:1028E00000F0020002281DD1207800F00400042826
:1028F00005D14C48406840F4E0604A49486020787F
:1029000000F00800082805D14648406840F46050AF
:10291000444948604348406820F0F000A1680843FB
:1029200040494860207800F0010078B360680128D1
:1029300006D13C48006800F4003090B90120B8E7A7
:102940006068022806D13748006800F0007040B97E
:102950000120AEE73348006800F0020008B901200A
:10296000A7E73048406820F00300616808432D491C
:102970004860FFF739FB064609E0FFF735FB801B8F
:1029800041F28831884202D9032092E707E02548C6
:10299000406800F00C006168B0EB810FEDD1204879
:1029A000006800F00700A8420ED91D48006820F01A
:1029B000070028431A4908600846006800F007002D
:1029C000A84201D0012074E7207800F00400042818
:1029D00007D11448406820F4E060E16808431149D9
:1029E0004860207800F00800082808D10D484068A9
:1029F00020F46050216940EAC1000A49486000F0B3
:102A00003FF808494968C1F30311074A515CC840BF
:102A10000649086006480068FFF794FE002048E772
:102A20000020024000100240A0E100085C010020EC
:102A30005401002001480068704700005C0100203C
:102A400000B5FFF7F7FF04494968C1F30221034AC3
:102A5000515CC84000BD000000100240B0E1000819
:102A600000B5FFF7E7FF04494968C1F3C221034AF3
:102A7000515CC84000BD000000100240B0E10008F9
:102A800070B500210022002400230020134D696846
:102A900001F00C05F5B1042D02D0082D19D101E08B
:102AA0000F4819E00F4DC1F38346AB5D01F480354B
:102AB00055B10A4D6D68C5F340450B4E725D084D2A
:102AC0005D43B5FBF2F402E0084D03FB05F420463C
:102AD00002E000BF024800BF00BF70BD001002400E
:102AE00000127A008EE100089EE1000800093D0016
:102AF000F8B504460CB90120F8BD207800F00100BB
:102B0000002878D0F848406800F00C0004280CD069
:102B1000F548406800F00C00082811D1F2484068E0
:102B200000F48030B0F5803F0AD1EF48006800F42F
:102B3000003000285FD0606800285CD10120DBE70E
:102B400000BF6068B0F5803F06D1E748006840F4F8
:102B50008030E549086028E0606858B9E2480068BC
:102B600020F48030E04908600846006820F48020A6
:102B700008601AE06068B0F5A02F0BD1DA48006851
:102B800040F48020D84908600846006840F480304E
:102B900008600AE0D448006820F48030D249086018
:102BA0000846006820F48020086000BF606888B193
:102BB000FFF71AFA054606E0FFF716FA401B6428ED
:102BC00001D9032098E7C848006800F400300028C5
:102BD000F2D010E0FFF708FA054606E0FFF704FA26
:102BE000401B642801D9032086E7BF48006800F431
:102BF00000300028F2D1207800F00200022857D1DE
:102C0000B948406800F00C0050B1B748406800F087
:102C10000C00082818D1B448406800F4803098B9F6
:102C2000B148006800F0020020B12069012801D0FD
:102C3000012061E7AC48006820F0F800616940EAD3
:102C4000C100A949086033E02069E8B10120A74923
:102C50000860FFF7C9F9054606E0FFF7C5F9401B14
:102C6000022801D9032047E79F48006800F00200CE
:102C70000028F2D09C48006820F0F800616940EA22
:102C8000C1009949086013E0002098490860FFF7E7
:102C9000ABF9054606E0FFF7A7F9401B022801D96A
:102CA000032029E79048006800F002000028F2D1D4
:102CB000207800F0080008282DD1A069B8B10120C3
:102CC0008B490860FFF790F9054606E0FFF78CF99D
:102CD000401B022801D903200EE78348406A00F018
:102CE00002000028F2D0012002F0A2FD13E0002033
:102CF0007F490860FFF778F9054606E0FFF774F9A9
:102D0000401B022801D90320F6E67748406A00F00C
:102D100002000028F2D1207800F00400042873D1CA
:102D200000277148C06900F0805070B900BF6E483C
:102D3000C06940F080506C49C8610846C06900F025
:102D40008050009000BF00BF01276A48006800F46F
:102D50008070B0B96748006840F4807065490860C9
:102D6000FFF742F9054606E0FFF73EF9401B6428ED
:102D700001D90320C0E65F48006800F48070002895
:102D8000F2D000BFE068012806D15748006A40F041
:102D900001005549086227E0E06858B95248006AC6
:102DA00020F00100504908620846006A20F0040043
:102DB000086219E0E06805280BD14B48006A40F032
:102DC0000400494908620846006A40F001000862B0
:102DD0000AE04548006A20F00100434908620846BD
:102DE000006A20F00400086200BFE068A0B1FFF7AD
:102DF000FBF8054609E0FFF7F7F8401B41F2883180
:102E0000884202D9032077E622E03748006A00F0C2
:102E100002000028EFD012E0FFF7E6F8054608E0D0
:102E2000FFF7E2F8401B41F28831884201D90320C4
:102E300062E62D48006A00F002000028F0D1012F60
:102E400005D12948C06920F080502749C86100BFDA
:102E5000E069C8B32448406800F00C00082860D03E
:102E6000E069022848D1002020490866FFF7BCF835
:102E7000054606E0FFF7B8F8401B022801D90320F9
:102E80003AE61948006800F000700028F2D1206A84
:102E9000B0F5803F07D11448406820F40030A168A5
:102EA000084311494860D4E9080108430E494968BC
:102EB00021F4741108430C49486001200B4908664D
:102EC000FFF792F8054607E03DE0FFF78DF8401B5D
:102ED000022801D903200FE60348006800F00070C3
:102EE0000028F2D02FE00000001002400000424213
:102EF0008004424200700040002014490866FFF739
:102F000073F8054606E0FFF76FF8401B022801D969
:102F10000320F1E50E48006800F000700028F2D1AF
:102F200011E0E069012800D1E6E50948466806F4A9
:102F30008031206A814204D106F47011606A8142B6
:102F400001D00120D8E50020D6E500000000424273
:102F50000010024070B504462546681EB0F1807F1F
:102F600001D301200FE0681E4FF0E02148610F21DE
:102F70004FF0FF3003F044FD00204FF0E021886166
:102F800007200861002070BD7047704710B50346E8
:102F9000002200BF93F83C00012801D1022010BD9F
:102FA000012083F83C0000BF22F0FF00CC6840EA1B
:102FB000040222F440708C6840EA040222F480602B
:102FC0004C6840EA040222F400600C6840EA040203
:102FD00022F480500C6940EA040222F400504C694B
:102FE00040EA040222F48040CC6940EA04021868F6
:102FF000426400BF002083F83C0000BF00BFCEE762
:1030000030B502460B4600BF92F83C00012801D1C2
:10301000022030BD012082F83C0000BF022082F86F
:103020003D00106844681068816824F070041868D6
:10303000044310684460144D1068A84213D0134D27
:103040001068A8420FD01068B0F1804F0BD0104D1F
:103050001068A84207D00F4D1068A84203D00E4D4B
:103060001068A84205D121F080015868014310681A
:103070008160012082F83D0000BF002082F83C0002
:1030800000BF00BFC5E70000002C01400034014034
:103090000004004000080040000C004010B5044649
:1030A0000CB9012010BD94F83D0028B9002084F827
:1030B0003C00204600F026F8022084F83D00211D47
:1030C000206802F039FF012084F8460000BF84F830
:1030D0003E0001213F20015540200155412001556E
:1030E00000BF00BF012084F8420043200155442066
:1030F00001554520015500BF012084F83D00002006
:10310000D0E7000038B504463A49206888420DD11E
:1031100000BF3948806940F400603749886108463B
:10312000806900F40060009000BF62E02068B0F1A8
:10313000804F16D100BF3048C06940F001002E49D1
:10314000C8610846C06900F00100009000BF00BFE0
:10315000002202211C20FFF755FB1C20FFF742FB39
:1031600047E026492068884216D100BF2248C0693E
:1031700040F008002049C8610846C06900F0080016
:10318000009000BF00BF002207213220FFF73AFB6A
:103190003220FFF727FB2CE019492068884216D11E
:1031A00000BF1548C06940F010001349C8610846C7
:1031B000C06900F01000009000BF00BF0022042191
:1031C0003620FFF71FFB3620FFF70CFB11E00D49FF
:1031D000206888420DD100BF0748806940F4005044
:1031E000054988610846806900F40050009000BFDE
:1031F00000BF38BD002C014000100240000C004010
:103200000010004000340140014691F83D000128C3
:1032100001D001207047022081F83D000868C06895
:1032200040F001000B68D860164B0868984213D034
:10323000154B086898420FD00868B0F1804F0BD04A
:10324000124B0868984207D0114B0868984203D087
:10325000104B086898420CD10868806800F007029B
:10326000062A0CD00868006840F001000B6818605E
:1032700005E00868006840F001000B681860002055
:10328000C8E70000002C0140003401400004004069
:1032900000080040000C00402DE9F04104460D46B6
:1032A000002700BF94F83C00012802D10220BDE8AD
:1032B000F081012084F83C0000BF022084F83D002A
:1032C0002068866826F0770626F47F4620688660A8
:1032D0002868502833D00CDC202850D004DC00288B
:1032E0004BD0102851D149E0302849D040284CD14A
:1032F00039E060282DD0702807D0B0F5805F03D06A
:10330000B0F5005F41D10DE041E0D5E902136A68F4
:10331000206802F070FE2068866846F07706206814
:10332000866034E0D5E902136A68206802F063FE23
:103330002068806840F480402168886027E0EA685F
:103340006968206802F048FF5021206802F05EFEA4
:103350001DE0EA686968206802F051FF602120687A
:1033600002F054FE13E0EA686968206802F034FF56
:103370004021206802F04AFE09E000BF00BF00BF04
:103380002968206802F042FE01E0012700BF00BF6B
:10339000012084F83D0000BF002084F83C0000BFFD
:1033A000384684E72DE9F04104460D4614B9012062
:1033B000BDE8F08194F83D0028B9002084F83C0075
:1033C000204600F051F8022084F83D002068806813
:1033D00044F20701884321688860211D206802F0BB
:1033E000ABFD2068D0F80880206886692068076AED
:1033F000286840EA080840F203308643A969A868B3
:1034000040EA0120064340F60C4086434FF2F000AC
:103410008643E969E86840EA01200643286900011B
:10342000296A40EA0130064327F022076969686883
:1034300040EA011007432068C0F8088020688661D0
:1034400020680762012084F8460084F83E000121CC
:103450003F200155012084F84200432001550120FE
:1034600084F83D000020A3E710B586B00446002094
:10347000029003900490059029492068884224D145
:1034800000BF2848C06940F002002649C8610846CC
:10349000C06900F00200019000BF00BF00BF0846F5
:1034A000806940F0040088610846806900F00400EB
:1034B000019000BF00BFC020029000200390049044
:1034C00002A91948FEF7E2FB27E018492068884264
:1034D00023D100BF1348C06940F004001149C861FE
:1034E0000846C06900F00400019000BF00BF00BFA3
:1034F0000846806940F0080088610846806900F04D
:103500000800019000BF00BFC0200290002003907F
:10351000049002A90648FEF7B9FB06B010BD0000F2
:103520000004004000100240000801400008004074
:10353000000C01402DE9F04304460D4694F83E602E
:103540003F20075D94F84280432010F804906DB945
:10355000012E02D1B8F1010F02D00120BDE8F083A5
:10356000022084F83E0084F8420025E0042D0CD1AE
:10357000012F02D1B9F1010F01D00120EEE70221A4
:103580003F2001554320015516E0012E07D1012FA0
:1035900005D1B8F1010F02D1B9F1010F01D001201D
:1035A000DCE7022084F83E0002213F200155022082
:1035B00084F842004320015515B1042D0CD105E0DB
:1035C00001220021206802F005FD10E00122042103
:1035D000206802F0FFFC0AE001220021206802F0CE
:1035E000F9FC01220421206802F0F4FC00BF00BFB6
:1035F0002068006840F00100216808600020ADE705
:10360000704710B5044620680069C0F34000D8B187
:103610002068C068C0F34000B0B16FF002002168BC
:103620000861012020772068806900F0030018B14C
:103630002046FFF7E5FF05E0204600F0F9F82046B8
:1036400000F0ADF90020207720680069C0F3800009
:10365000D8B12068C068C0F38000B0B16FF004003A
:1036600021680861022020772068806900F440709A
:1036700018B12046FFF7C4FF05E0204600F0D8F857
:10368000204600F08CF90020207720680069C0F304
:10369000C000D8B12068C068C0F3C000B0B16FF0FE
:1036A000080021680861042020772068C06900F0C4
:1036B000030018B12046FFF7A3FF05E0204600F005
:1036C000B7F8204600F06BF90020207720680069E9
:1036D000C0F30010D8B12068C068C0F30010B0B1CA
:1036E0006FF0100021680861082020772068C06909
:1036F00000F4407018B12046FFF782FF05E0204635
:1037000000F096F8204600F04AF900202077206863
:10371000006900F0010058B12068C06800F00100A5
:1037200030B16FF0010021680861204600F006FA10
:1037300020680069C0F3C01058B12068C068C0F3A9
:10374000C01030B16FF08000216808612046FFF79B
:103750001BFC20680069C0F3801058B12068C06865
:10376000C0F3801030B16FF040002168086120463E
:1037700000F0C4FA20680069C0F3401058B1206816
:10378000C068C0F3401030B16FF0200021680861BC
:103790002046FFF7FAFB10BD10B586B004460020A6
:1037A00002900390049005901C492068884217D12C
:1037B00000BF1B48806940F0040019498861084631
:1037C000806900F00400019000BF00BF88150290DE
:1037D00002200390059002A91248FEF757FA1AE05A
:1037E00011492068884216D100BF0D48806940F019
:1037F00010000B4988610846806900F010000190B4
:1038000000BF00BF4020029002200390059002A953
:103810000648FEF73BFA06B010BD0000002C014040
:103820000010024000080140003401400010014037
:1038300070472DE9F04104460D461646002700BFAB
:1038400094F83C00012802D10220BDE8F08101205B
:1038500084F83C0000BF36B1042E1BD0082E31D0B6
:103860000C2E5ED145E02946206802F0D9FB206885
:10387000806940F00800216888612068806920F034
:1038800004002168886120688069296908432168EB
:10389000886148E02946206802F0FAFB20688069C8
:1038A00040F40060216888612068806920F48060AD
:1038B0002168886120688069296940EA01202168BF
:1038C000886130E02946206802F020FC2068C06949
:1038D00040F008002168C8612068C06920F0040039
:1038E0002168C8612068C069296908432168C861E6
:1038F00019E02946206802F045FC2068C06940F4C0
:1039000000602168C8612068C06920F48060216877
:10391000C8612068C069296940EA01202168C8613E
:1039200001E0012700BF00BF00BF002084F83C0079
:1039300000BF384689E710B504460CB9012010BD18
:1039400094F83D0028B9002084F83C00204600F09F
:1039500025F8022084F83D00211D206802F0ECFAD1
:10396000012084F8460000BF84F83E0001213F207A
:103970000155402001554120015500BF00BF0120E5
:1039800084F842004320015544200155452001554B
:1039900000BF012084F83D000020D0E77047704749
:1039A00070B504460D4615B994F83E000BE0042DA1
:1039B00002D13F20005D06E0082D02D14020005DCD
:1039C00001E04120005D012801D0012070BD1DB93A
:1039D000022084F83E000EE0042D03D102213F2096
:1039E000015508E0082D03D102214020015502E0D5
:1039F00002214120015501222946206802F0EAFAFD
:103A00001F492068884203D01E492068884201D19E
:103A1000012000E0002028B12068406C40F4004004
:103A20002168486416492068884213D015492068E7
:103A300088420FD02068B0F1804F0BD01249206827
:103A4000884207D011492068884203D01049206875
:103A500088420CD12068806800F00706062E0CD042
:103A60002068006840F001002168086005E02068D7
:103A7000006840F00100216808600020A6E700000F
:103A8000002C0140003401400004004000080040C8
:103A9000000C004030B504460D460022294620683F
:103AA00002F098FA23492068884203D0224920680E
:103AB000884201D1012000E0002090B100BF2068C1
:103AC000006A41F21111084050B92068006A89105B
:103AD000084028B92068406C20F400402168486400
:103AE00000BF00BF2068006A41F21111084050B9C0
:103AF0002068006A8910084028B92068006820F012
:103B000001002168086000BF1DB9012084F83E0053
:103B10000EE0042D03D101213F20015508E0082DBE
:103B200003D101214020015502E00121412001552E
:103B3000002030BD002C0140003401402DE9F04749
:103B40008246DAF80000B0F1804F50D1504A514916
:103B5000514804F051FE514A5149524800F01AFFB1
:103B6000042002F0D9F850490860032002F0D4F88C
:103B70004E490860084601684B480068FDF7C4FEDE
:103B80004B4908604648B0F9000007F07DF904464B
:103B900021464148006802F0E3FE4649086002F011
:103BA00079F8454908704348006841490968084464
:103BB00042490860404890F90000FDF73DFF3F4949
:103BC000096808443E4908603B4890F90000FDF749
:103BD00033FF3A490968081A3A490860384800F042
:103BE000BBFE384801683648006802F0E5F83649FF
:103BF000DAF8000088423DD13448007808B33448F0
:103C0000007801281DDC334A3349344801F0EAFAD0
:103C1000314832490CC803C906F0ECF906460022C7
:103C20002F4B06F08BFC04464FF080422D4B06F0E4
:103C300085FC80464FF080422B4B06F07FFC2B4AE0
:103C400003C22B48007820B92A48007802F0ECFA29
:103C500010E027480078012804D12648007802F0B7
:103C600015FB07E022480078022803D1214800789C
:103C700002F090FB2049DAF80000884205D101F0FB
:103C8000EBFD01F079FF01F097FFBDE8F087000040
:103C9000500000204C000020480000205800002068
:103CA000560000205400002024000020280000209E
:103CB0001C000020180000206400002038000020B4
:103CC0003000002034000020000C00402F010020B4
:103CD00034010020E0000020D8000020D0000020A7
:103CE0000000E03F3333EB3F3333E33FE800002095
:103CF00069000020BC000020001000407047F8B5AB
:103D000004460E46174694F8420020282ED106B1EC
:103D10000FB90120F8BD01202063002060633A46FE
:103D20003146204602F06AFD0546EDB9206B0128B8
:103D300019D100BF00200090206800680090206822
:103D40004068009000BF00BF00BF00BF21680C3179
:103D500051E8001F41F0100021680C3141E80002D9
:103D6000002AF3D100E001252846D3E70220D1E75D
:103D700070B504460D4611A11148FCF701FCE0B1F5
:103D800010A10F48FCF7FCFBB8B10FA10C48FCF7E1
:103D9000F7FB90B10DA10A48FCF7F2FB68B10CA14A
:103DA0000748FCF7EDFB40B10AA10548FCF7E8FB2A
:103DB00018B109A10248FCF7E3FB70BD3100000017
:103DC00094010020320000003300000034000000A5
:103DD000350000003600000037000000704700008A
:103DE0002DE9F84F0446206805682068C6682068F9
:103DF00047694FF00009CA4605F00F09B9F1000FF5
:103E00000AD105F0200038B106F0200020B120468C
:103E100002F0F8FBBDE8F88FB9F1000F7BD007F096
:103E2000010018B906F49070002874D005F0010064
:103E300030B106F4807018B1606C40F0010060642D
:103E400005F0040030B107F0010018B1606C40F0DB
:103E50000200606405F0020030B107F0010018B103
:103E6000606C40F00400606405F0080048B106F0A2
:103E7000200010B907F0010018B1606C40F0080094
:103E80006064606C002845D005F0200028B106F081
:103E9000200010B1204602F0B5FB20684069C0F355
:103EA000801A606C00F0080010B9BAF1000F2CD035
:103EB000204602F009FB2068406900F0400000B392
:103EC00000BF00BF2168143151E8001F21F04000FD
:103ED0002168143141E80002002AF3D100BFE06BF1
:103EE00050B17748E16B4863E06BFDF7E7FD88B1BF
:103EF000E06B416B88470DE02046FFF76FFF09E05C
:103F000009E02046FFF76AFF04E02046FFF766FF5E
:103F1000002060647EE7206B012877D105F0100057
:103F2000002873D006F010000028FAD000BF00204F
:103F3000009020680068009020684068009000BFF2
:103F400000BF2068406900F0400000285FD0E06BAF
:103F5000006840681FFA80F8B8F1000F55D0A08DB6
:103F6000404552DDA4F82E80E06B8069202843D0C4
:103F700000BF00BF21680C3151E8001F21F48070A0
:103F800021680C3141E80002002AF3D100BF00BFD4
:103F900000BF2168143151E8001F21F001002168A1
:103FA000143141E80002002AF3D100BF00BF00BF76
:103FB0002168143151E8001F21F0400021681431BC
:103FC00041E80002002AF3D100BF202084F842001B
:103FD0000020206300BF00BF21680C3151E8001FA2
:103FE00021F0100021680C3141E80002002AF3D1D1
:103FF00000BFE06BFDF736FD02206063A08DE28D0F
:10400000801A81B22046FFF7B3FE03E742E0A08D9D
:10401000E18D401A1FFA80F8E08DD0B3B8F1000F9F
:1040200037D000BF00BF21680C3151E8001F21F4D8
:10403000907021680C3141E80002002AF3D100BFE2
:1040400000BF00BF2168143151E8001F21F00100BA
:104050002168143141E80002002AF3D100BF20207A
:1040600084F842000020206300BF00BF21680C31AB
:1040700051E8001F21F0100021680C3141E80002D6
:10408000002AF3D100BF0220606341462046FFF7BB
:104090006FFEBFE605F0800030B106F0800018B179
:1040A000204602F0CBFBB5E605F0400030B106F04B
:1040B000400018B1204602F03DFAABE600BFA9E689
:1040C000B564000810B504460CB9012010BDA06904
:1040D00000B100E000BF94F8410028B9002084F846
:1040E0004000204600F02AF8242084F8410020688F
:1040F000C06820F400502168C860204602F000FB30
:104100002068006920F490402168086120684069B7
:1041100020F02A00216848612068C06840F40050FF
:104120002168C86000206064202084F8410084F881
:1041300042000020606300BFC8E7000010B586B0F1
:104140000446002002900390049005903B492068AB
:10415000884237D100BF3A48806940F480403849EE
:1041600088610846806900F48040019000BF00BF6C
:1041700000BF0846806940F00400886108468069F5
:1041800000F00400019000BF00BF4815029002201B
:1041900003900320059002A92A48FDF777FD4FF40C
:1041A0008060029000200390049002A92548FDF74A
:1041B0006DFD00220C212520FEF724FB2520FEF7B3
:1041C00011FB39E020492068884235D100BF1C48E6
:1041D000C06940F400301A49C8610846C06900F45B
:1041E0000030019000BF00BF00BF0846806940F06A
:1041F000040088610846806900F00400019000BF57
:1042000000BF04200290022003900320059002A921
:104210000C48FDF73BFD082002900020039004901D
:1042200002A90848FDF732FD00220E212620FEF7E4
:10423000E9FA2620FEF7D6FA06B010BD0038014094
:1042400000100240000801400044004070472DE982
:10425000F84F04460E46174699464FF0000A94F868
:10426000410020284AD106B117B90120BDE8F88FD6
:1042700000206064212084F84100FDF7B5FE8246ED
:10428000A784E784A068B0F5805F04D1206910B9E5
:104290000025B04602E035464FF000081BE05346CB
:1042A000002280212046CDF8009002F0F7FA08B1F4
:1042B0000320DBE745B9B8F80000C0F30800216827
:1042C000486008F1020803E02878216848606D1C06
:1042D000E08C401EE084E08C0028E0D153460022B0
:1042E00040212046CDF8009002F0D8FA08B1032012
:1042F000BCE7202084F841000020B7E70220B5E7A2
:10430000704700BFFEE7000000B585B000BF0D4854
:10431000806940F010000B4988610846806900F010
:104320001000009000BF00BF4FF42040019001201A
:10433000029003900320049001A90348FDF7A6FC16
:1043400005B000BD001002400010014001460868A1
:104350004069C0F38020B0B16FF480600A6850619A
:1043600000200863202081F83D00002081F83E00F5
:10437000086C40F00400086400BF002081F83C0095
:1043800000BF012070470020FCE700002DE9F84342
:1043900004460F4615469946DDE908862068006800
:1043A00040F48060216808602068006840F48070F4
:1043B00021680860434600224FF001112046009614
:1043C00000F075F960B12068006800F48070B0F505
:1043D000807F02D14FF4007020640320BDE8F88391
:1043E00007F0FE0021680861334642463E492046F8
:1043F00000F0BCF908B10120F0E700BF00200090F8
:1044000020684069009020688069009000BF00BF6C
:1044100032464146204600F06BFA50B1206C042829
:1044200005D12068006840F4007021680860012010
:10443000D4E7B9F1010F03D1E8B22168086117E0B0
:10444000C5F307202168086132464146204600F046
:104450004FFA50B1206C042805D12068006840F460
:104460000070216808600120B8E7E8B2216808619F
:1044700032464146204600F03BFA50B1206C0428F9
:1044800005D12068006840F40070216808600120B0
:10449000A4E72068006840F4807021680860434603
:1044A00000224FF001112046009600F000F958B1AB
:1044B0002068006800F48070B0F5807F02D14FF46E
:1044C00000702064032089E7F8B240F00100216801
:1044D0000861334642460449204600F047F908B1D6
:1044E00001207BE7002079E7020001002DE9F84375
:1044F0000446884615469946DDE908672068006845
:1045000040F4807021680860334600224FF00111AA
:104510002046009700F0CBF860B12068006800F4F6
:104520008070B0F5807F02D14FF4007020640320CA
:10453000BDE8F88308F0FE00216808613B4632467A
:104540002149204600F012F908B10120F0E700BF30
:1045500000200090206840690090206880690090E9
:1045600000BF00BF3A463146204600F0C1F950B1C5
:10457000206C042805D12068006840F40070216890
:1045800008600120D4E7B9F1010F03D1E8B2216836
:10459000086117E0C5F30720216808613A463146F3
:1045A000204600F0A5F950B1206C042805D1206800
:1045B000006840F40070216808600120B8E7E8B2A4
:1045C000216808610020B3E70200010010B5012254
:1045D00051030A48FDF702FD0122D1030748FDF708
:1045E000FDFC00224FF400510448FDF7F7FC0022C7
:1045F0004FF400410148FDF7F1FC10BD00100140EF
:1046000010B50122D1030748FDF7E8FC00224FF462
:1046100000510448FDF7E2FC012251030148FDF777
:10462000DDFC10BD0010014010B50122D10305488A
:10463000FDF7D4FC00224FF400410248FDF7CEFC08
:1046400010BD00000010014070B504460D4616462E
:1046500025E02046FFF77AFE08B1012070BD681CF6
:10466000E8B1FDF7C1FC801BA84200D8BDB92068A5
:104670004069C0F3800090B900202063202084F8B6
:104680003D00002084F83E00206C40F020002064B3
:1046900000BF002084F83C0000BF0120DEE7206856
:1046A0004069C0F380000028D3D00020D6E72DE970
:1046B000F04104460D4617461E46DDF8188038E0E6
:1046C000701CA8B3FDF790FCA0EB0800B04200D826
:1046D00076BBC5F3074001280AD120684069A9B21A
:1046E0000840A9B2884201D101200BE0002009E076
:1046F00020688069A9B20840A9B2884201D101208E
:1047000000E00020B84214D100202063202084F86B
:104710003D00002084F83E00206C40F02000206422
:1047200000BF002084F83C0000BF0120BDE8F081FC
:10473000FFE7C5F3074001280AD120684069A9B204
:104740000840A9B2884201D101200BE0002009E015
:1047500020688069A9B20840A9B2884201D101202D
:1047600000E00020B842ABD00020DFE72DE9F041A7
:1047700004460D4616461F4658E020684069C0F3BF
:104780008020E8B12068006840F40070216808606B
:104790006FF480602168486100202063202084F845
:1047A0003D00002084F83E00206C40F004002064AE
:1047B00000BF002084F83C0000BF0120BDE8F0816C
:1047C000701C90B3FDF710FCC01BB04200D866BB54
:1047D000C5F3074001280AD120684069A9B2084002
:1047E000A9B2884201D101200BE0002009E0206835
:1047F0008069A9B20840A9B2884201D1012000E035
:10480000002090B900202063202084F83D00002083
:1048100084F83E00206C40F02000206400BF00209F
:1048200084F83C0000BF0120C8E7FFE7C5F307405C
:1048300001280AD120684069A9B20840A9B288427B
:1048400001D101200BE0002009E020688069A9B2B5
:104850000840A9B2884201D1012000E000200028D0
:104860008BD00020AAE770B504460D46164637E007
:1048700020684069C0F30010A0B16FF010002168FB
:10488000486100202063202084F83D00002084F847
:104890003E00206C206400BF002084F83C0000BF74
:1048A000012070BDFDF7A0FB801BA84200D8BDB958
:1048B00020684069C0F3801090B900202063202058
:1048C00084F83D00002084F83E00206C40F0200079
:1048D000206400BF002084F83C0000BF0120E0E716
:1048E00020684069C0F380100028C1D00020D8E7BC
:1048F00070B504460D46164625E02046FFF726FD16
:1049000008B1012070BD681CE8B1FDF76DFB801B8C
:10491000A84200D8BDB920684069C0F3C01090B962
:1049200000202063202084F83D00002084F83E0011
:10493000206C40F02000206400BF002084F83C0080
:1049400000BF0120DEE720684069C0F3C0100028E6
:10495000D3D00020D6E7000041F6583302689A42CF
:1049600001DD1A4602600A4B02689A4201DA1A46D1
:10497000026041F658330A689A4201DD1A460A601D
:10498000034B0A689A4201DA1A460A60704700002F
:10499000A8E4FFFF2DE9FC4104460D4616466B4690
:1049A00006224321682000F077F80746BFB99DF83A
:1049B00001009DF8001040EA012000B220809DF81F
:1049C00003009DF8021040EA012000B228809DF803
:1049D00005009DF8041040EA012000B230803846FE
:1049E000BDE8FC8110B580226B21682000F0BAF888
:1049F0006420FDF737F900226B21682000F0B2F83F
:104A0000032000F06AF8002000F05EF8322000F089
:104A10008BF800223821682000F0A4F800226A21D7
:104A2000682000F09FF800222321682000F09AF807
:104A300080223721682000F095F87521682000F069
:104A400015F80446682C0CD101226B2100F08AF87D
:104A500000226C21682000F085F8322000F064F814
:104A600001E0012010BD0020FCE700007FB50446F6
:104A70000D4640F6FF70012103AACDE90021029006
:104A8000610001232A460348FDF79CFB9DF80C00BA
:104A900004B070BDBC0600202DE9FE4304460D465F
:104AA00016461F4640F6FF70610001232A46CDE9F5
:104AB000007602900348FDF785FB80464046BDE83E
:104AC000FE830000BC06002010B50446E006020E7E
:104AD0001C21682000F046F810BD10B50446E00621
:104AE000020E1B21682000F03DF810BD70B5044691
:104AF0000025BC2C01DB012510E0622C01DB022526
:104B00000CE02A2C01DB032508E0142C01DB042532
:104B100004E00A2C01DB052500E006252A461A21BF
:104B2000682000F01FF870BD70B50446B4F57A7FB8
:104B300001DD4FF47A74042C00DA04244FF47A7007
:104B400090FBF4F0401EC5B22A461921682000F0FF
:104B500009F80546264604EBD671C1F34F00FFF76E
:104B6000C5FF70BD77B583B004460D4640F6FF70B3
:104B7000012105AACDE900210290610001232A4606
:104B80000348FDF7D1FC0646304606B070BD000074
:104B9000BC0600202DE9FE4304460D4616461F467E
:104BA00040F6FF70610001232A46CDE900760290AD
:104BB0000348FDF7B9FC80464046BDE8FE8300008F
:104BC000BC06002000B585B0002001900290039043
:104BD000049000BF5E48806940F010005C49886125
:104BE0000846806900F01000009000BF00BF00BFC1
:104BF0000846806940F0200088610846806900F01E
:104C00002000009000BF00BF00BF0846806940F050
:104C1000040088610846806900F00400009000BF2D
:104C200000BF00BF0846806940F008008861084660
:104C3000806900F00800009000BF00BF00224AF227
:104C400007014448FDF7CAF9002202214248FDF756
:104C5000C5F9012220213F48FDF7C0F94AF22000A2
:104C6000019001200290002003900220049001A9ED
:104C70003848FDF70BF84FF4944001900020029063
:104C8000039001A93348FDF701F8072001900120A6
:104C90000290002003900320049001A92D48FCF706
:104CA000F5FF48F21100019000200290039001A945
:104CB0002948FCF7EBFF0220019001200290002020
:104CC00003900320049001A92348FCF7DFFF202074
:104CD0000190002002900220039001A91E48FCF7D9
:104CE000D5FF4FF400400190002002900120039076
:104CF00001A91A48FCF7CAFF4FF4A0500190002008
:104D000002900220039001A91248FCF7BFFF042083
:104D10000190002002900220039001A91048FCF7A6
:104D2000B5FF08200190002002900220039001A905
:104D30000A48FCF7ABFF4FF4887001900020029006
:104D4000039001A90548FCF7A1FF05B000BD0000D4
:104D5000001002400010014000080140000C01401A
:104D60000014014010B50B480B4908600B4848601F
:104D7000002109488160C1604FF480410161002138
:104D800041618161C1610162FDF734F908B1FCF74D
:104D9000B7FD10BD00580040BC060020801A060078
:104DA00000B595B0002011901290139014900F90C0
:104DB00010901C2108A8FBF7BCFB20216846FBF7DC
:104DC000B8FB2B482B490860002048600021294887
:104DD000816041F61F41C160002101614161802174
:104DE0008161FEF75BF908B1FCF78AFD4FF4805052
:104DF000119011A91F48FEF74FFA08B1FCF780FD8A
:104E00001C48FEF798FD08B1FCF77AFD00200F90D2
:104E100010900FA91748FEF7F3F808B1FCF770FDE2
:104E200060200890002009900A900B900C900D9043
:104E30000E90002208A90F48FEF7FBFC08B1FCF712
:104E40005FFD0020009001900290039004904FF4C9
:104E5000005005900020079069460648FEF796F836
:104E600008B1FCF74DFD0348FEF796FC15B000BDF8
:104E7000002C01401007002000B587B000200390EF
:104E8000049005900690019002904FF080401449E4
:104E9000086041F61F40486000211148816063218D
:104EA000C160002101618161FEF7F8F808B1FCF7EB
:104EB00027FD4FF48050039003A90948FEF7ECF951
:104EC00008B1FCF71DFD00200190029001A90448E3
:104ED000FEF796F808B1FCF713FD07B000BD00001F
:104EE0005807002000B58BB0242102A8FBF721FB56
:104EF0000020009001901848184908600020486080
:104F00000021164881604FF6FF71C16000210161E8
:104F10008161012002900020039001200490002074
:104F200005900690079001200890002009900A90B3
:104F300002A90A48FEF736FA08B1FCF7E1FC0020A6
:104F40000090019069460548FEF75AF808B1FCF751
:104F5000D7FC0BB000BD000000040040A0070020FB
:104F600000B58BB0242102A8FBF7E3FA00200090E3
:104F70000190184818490860002048600021164830
:104F800081604FF6FF71C1600021016181610120E4
:104F900002900020039001200490002005900690CC
:104FA000079001200890002009900A9002A90A4861
:104FB000FEF7F8F908B1FCF7A3FC0020009001907F
:104FC00069460548FEF71CF808B1FCF799FC0BB0E0
:104FD00000BD000000080040E807002000B587B0D1
:104FE00000200390049005900690019002901548CF
:104FF0001549086040F2CF204860002112488160C6
:1050000042F20F71C160002101618161FEF746F833
:1050100008B1FCF775FC4FF48050039003A90A48CF
:10502000FEF73AF908B1FCF76BFC00200190029002
:1050300001A90548FDF7E4FF08B1FCF761FC07B0E2
:1050400000BD0000000C0040300800201CB500200E
:10505000009001900E480F49086041F61F404860DB
:1050600000210C4881606321C16000218161FEF74D
:1050700015F808B1FCF744FC002000900190694647
:105080000448FDF7BDFF08B1FCF73AFC1CBD000069
:10509000001000407808002000B595B00020119065
:1050A0001290139014900F9010901C2108A8FBF7F9
:1050B00040FA20216846FBF73CFA2B482B49086050
:1050C0000020486000212948816041F61F41C160ED
:1050D00000210161416180218161FDF7DFFF08B19D
:1050E000FCF70EFC4FF48050119011A91F48FEF7F9
:1050F000D3F808B1FCF704FC1C48FEF71CFC08B10F
:10510000FCF7FEFB00200F9010900FA91748FDF749
:1051100077FF08B1FCF7F4FB6020089000200990AD
:105120000A900B900C900D900E90002208A90F4849
:10513000FEF77FFB08B1FCF7E3FB00200090019035
:105140000290039004904FF40050059000200790C7
:1051500069460648FDF71AFF08B1FCF7D1FB034882
:10516000FEF71AFB15B000BD00340140C008002056
:1051700010B50B480B4908604FF4E130486000213E
:1051800008488160C16001610C2141610021816199
:10519000C161FEF797FF08B1FCF7B2FB10BD00003C
:1051A000003801400809002010B50B480B49086081
:1051B0004FF416504860002108488160C1600161C9
:1051C0000C21416100218161C161FEF77BFF08B1C3
:1051D000FCF796FB10BD0000004400405009002081
:1051E00000BFFEE72DE9F04790B004460D4690461B
:1051F000042000F091FD4F4908600846006805F062
:1052000049F94FF080424C4BCDE9000105F096F989
:105210004A4A4B4BCDE9020105F090F900224FF0CC
:105220008043CDE9040105F089F94FF02042454B58
:10523000CDE9060104F09AFF06460022424B04F035
:1052400095FF0022414BCDE9080104F08FFF0022B9
:105250003F4BCDE90A0104F089FF4FF02042394B62
:10526000CDE90C0105F06AF981464FF06042394BF7
:1052700005F064F9CDE90E01D4E90063324604F08B
:10528000B9FEC4E90001344A2E4BD8E9006130462A
:1052900004F0B0FEC8E90001032000F03DFD2F49F5
:1052A00008600846006805F0F5F84FF08042224B90
:1052B000CDE9000105F042F9204A214BCDE9020178
:1052C00005F03CF900224FF08043CDE9040105F0E0
:1052D00035F906464FF020421A4B04F047FF0022F2
:1052E000194BCDE9060104F041FF0022174BCDE92F
:1052F000080104F03BFF81460022154B04F036FF05
:105300004FF020420F4BCDE90A0105F017F94FF09D
:105310006042104BCDE90C0105F010F9CDE90E010A
:10532000D5E90063324604F065FEC5E9000110B01E
:10533000BDE8F0874001002060E5A03F1F85EB51EC
:10534000B81E09409999B93F0000104000407F40C5
:1053500000003E404F5553409A99999948010020CA
:1053600000BFFEE770B500240CE0002506E0002039
:10537000074901EBC5010855681CC5B2802DF6DB55
:10538000601CC4B2082CF0DB00F0D8F870BD00003F
:105390002A02002070B50B46CE1701EB5676C6F3F5
:1053A000C702CE1701EB5676F610A1EBC606F4B293
:1053B0000123A340DDB20E4B03EBC0039B5CDB4338
:1053C0000B4E06EBC006B354094B03EBC0039B5CCA
:1053D0002B43074E06EBC006B354054B03EBC0034B
:1053E0009B5CDB43024E06EBC006B35470BD00006D
:1053F0002A02002070B50A46CE1701EB5676C6F396
:10540000C703CE1701EB5676F610A1EBC606F4B231
:105410000122A240D5B2054A02EBC002D25C2A4367
:10542000024E06EBC006F25470BD00002A020020B6
:1054300010B5FEF769FF4FF47A70FCF713FC0021FA
:10544000AE2000F0D8F90021084600F0D4F9002180
:10545000102000F0D0F90021402000F0CCF900210C
:10546000812000F0C8F90021CF2000F0C4F900210C
:10547000A12000F0C0F90021C82000F0BCF90021F3
:10548000A62000F0B8F90021A82000F0B4F900210E
:105490003F2000F0B0F90021D32000F0ACF900214A
:1054A000084600F0A8F90021D52000F0A4F9002159
:1054B000802000F0A0F90021D92000F09CF9002103
:1054C000F12000F098F90021DA2000F094F9002191
:1054D000122000F090F90021DB2000F08CF900216F
:1054E000402000F088F90021202000F084F90021FC
:1054F000022000F080F900218D2000F07CF90021CD
:10550000142000F078F90021A42000F074F90021A3
:10551000A62000F070F90021AF2000F06CF9FFF731
:1055200021FF10BD10B50246012000E050430B1EC4
:10553000A1F10104E1B2F9D110BD000070B5002461
:105540001CE004F1B001C8B2002100F054F90021C0
:10555000084600F050F90021102000F04CF9002519
:1055600008E0084901EBC501085D012100F043F99D
:10557000681CC5B2802DF4DB601CC4B2082CE0DBD3
:1055800070BD00002A0200202DE9FF4F81B0804647
:105590000E461C4600962046E31704EB5373DB10BF
:1055A00021464FEAE47C04EB5C7C4FEAEC0CA4EB74
:1055B000CC0CBCF1000F02D04FF0010C01E04FF019
:1055C000000C6344224604EBD27C4FEA6C0C03FBD4
:1055D0000CF303F0FF0B03982038C7B2002547E017
:1055E0000C2C07D107EB4700234901EB800010F892
:1055F00005A014E0102C05D1204800EB071010F88E
:1056000005A00CE0182C07D107EBC7001C4901EBE3
:10561000800010F805A002E005B0BDE8F08F4FF063
:1056200000091FE00AF0800020B131464046FFF734
:10563000E1FE03E031464046FFF7ACFE4FEA4A6028
:105640004FEA106A701CC6B20098301AA04205D109
:10565000009E08F1010000F0FF0806E009F10100DA
:1056600000F0FF09B9F1080FDCDB00BF681CC5B210
:105670005D45B5DB00BFCFE736B30008AAB7000829
:105680009ABD00082DE9F84305460E461446994692
:105690000AA000680090204605F02AFA07463A461C
:1056A0000B4607A16846FAF705FE4B466A463146A7
:1056B000284600F07FF8BDE8F883000020000000D5
:1056C000252E3366000000002DE9F04F06468A467D
:1056D00091461F46099C00252CE0781B401EC1B254
:1056E0000A20FFF71FFFB9FBF0F00A21B0FBF1F22F
:1056F00001FB1208B8F1000F0CD1A34604EBDB71DB
:10570000491001FB0561C8B2234630225146FFF71C
:105710003BFF0DE0A34604EBDB71491001FB056183
:10572000C8B208F13001CAB223465146FFF72CFF38
:10573000681CC5B2BD42D0DBBDE8F08F2DE9FF4F3C
:10574000814615461E460D9F002D07DB3B462B224A
:1057500048460199FFF718FFA84607E03B462D226F
:1057600048460199FFF710FFC5F1000800241DE02D
:10577000301B401EC1B20A20FFF7D4FEB8FBF0F088
:105780000A21B0FBF1F201FB120000F1300BBA4626
:1057900007EBDA714A10611C02FB0191C8B23B466B
:1057A0005A460199FFF7F0FE601CC4B2B442DFDB39
:1057B000BDE8FF8FF0B506460F4614461D4613E0C0
:1057C00022782B4639463046FFF7DEFE284605EBA9
:1057D000D07106EB6101CEB2C5F18000B04202DAB1
:1057E0000026B81CC7B2641C2078202802DB207871
:1057F0007E28E5DDF0BD70B505460C46FEF7E6FEF9
:10580000782000F0ABFAFEF70FFF1CB1402000F04B
:10581000A5FA02E0002000F0A1FAFEF705FF2846F5
:1058200000F09CFAFEF700FFFEF7EAFE70BD70473D
:1058300008B508490968C9084FF47A72B1FBF2F15A
:105840004143009100BF00BF00994A1E0092002909
:10585000F9D108BD5C01002010B5B948807828B99D
:10586000B748C07810B9B6480079E8B1B448C078F4
:1058700028B9B348007910B9B1484079A0B1B0480F
:10588000407828B9AE48807810B9AD48C07858B192
:10589000AB48007900287DD1A94840790028FAD189
:1058A000A74880790028F6D1A648007820B933208F
:1058B000A4490870FBF7E0FEA348007850B9002027
:1058C000A24908700120A249088015209E4908704D
:1058D000FBF7D2FE9F48007850B901209B49087021
:1058E00002209B49088015209A490870FBF7C4FEE6
:1058F0009948007850B902209449087003209449CF
:105900000880152094490870FBF7B6FE934800788C
:1059100050B903208D49087004208D490880152056
:105920008E490870FBF7A8FE8D48007850B9042016
:105930008649087005208649088034208849087007
:10594000FBF79AFE8748007838B90620804908801E
:10595000152084490870FBF78FFE8348007838B91A
:1059600007207B49088015207F490870FBF784FEDB
:105970007E48007838B908207549088015207B4991
:105980000870FBF779FE7A48007848B90920704919
:10599000088000E00FE0152075490870FBF76CFEE9
:1059A0007448007838B90A20694908803320714961
:1059B0000870FBF761FE6348007801280DDD61483F
:1059C0000078401E5F49087008460078012804D11D
:1059D000FBF748FE00205C4908705B48007801280E
:1059E0000DDD59480078401E574908700846007878
:1059F000012804D1FBF736FE0020564908705548AF
:105A0000007801280DDD53480078401E5149087088
:105A100008460078012804D1FBF724FE00204E49F7
:105A200008704D48007801280DDD4B480078401E75
:105A30004949087008460078012804D1FBF712FE96
:105A40000020464908704548007801280DDD43488C
:105A50000078401E4149087008460078012804D1AA
:105A6000FBF700FE00203E4908703D480078022800
:105A70000DDD3B480078401E394908700846007823
:105A8000022804D1002037490870FBF7EBFD3548A8
:105A9000007801280DDD33480078401E3149087038
:105AA00008460078012804D1FBF7DCFD00202E49D0
:105AB00008702D48007801280DDD2B480078401E25
:105AC0002949087008460078012804D1FBF7CAFD6F
:105AD0000020264908702548007801280DDD23485C
